:040000000DEF00F010
:04000800D6EF2FF010
:10001800FF0090EF2FF08DC0B0F18EC0B1F18FC00E
:10002800B2F190C0B3F1B0C158F1B1C159F1B2C148
:100038005AF1B3C15BF191C0B0F192C0B1F193C074
:10004800B2F194C0B3F1B0C174F1B1C175F1B2C1EC
:1000580076F1B3C177F1FF0E01015815A06FFF0EBD
:100068005915A16FFF0E5A15A26F7F0E5B15A36F6E
:10007800FF0E7415886FFF0E7515896FFF0E7615C4
:100088008A6F7F0E77158B6F885189118A118B11B2
:10009800D8A451EF00F053EF00F05EEF00F0000E2F
:1000A80000018D6F000E8E6F800E8F6F3F0E906F68
:1000B80048EF15F0800E5A1909E13F0E5B195811E7
:1000C8005911D8A46AEF00F06CEF00F077EF00F058
:1000D800000E00018D6F000E8E6F800E8F6F3F0E29
:1000E800906F48EF15F0A3BF88EF00F0A005000E51
:1000F800A159800EA2597F0EA359D8B086EF00F0FF
:1001080088EF00F099EF00F08BBF97EF00F08805BB
:10011800000E8959800E8A597F0E8B59D8A097EF07
:1001280000F099EF00F0B5EF00F08DC02CF08EC014
:100138002DF08FC02EF090C02FF091C030F092C0FB
:1001480031F093C032F094C033F0D8EC20F02CC0DA
:100158008DF02DC08EF02EC08FF02FC090F048EF9C
:1001680015F0000E486F000E496F000E4A6F000E22
:100178004B6F5BBFC4EF00F0C2EF00F090EF01F0EF
:100188008BBFD0EF00F0800E8A5D4B0E8B59D8A044
:10019800D0EF00F0D2EF00F0DCEF00F0020E486F75
:1001A800000E496F000E4A6F000E4B6F90EF01F082
:1001B8008BBFE8EF00F0800E8A5D3F0E8B59D8A008
:1001C800E8EF00F0EAEF00F090EF01F0170E000101
:1001D800956F88C196F089C197F08AC198F08BC154
:1001E80099F09567FAEF00F002EF01F0993599332D
:1001F800983397339633952FF5EF00F0810E000171
:1002080096250101986FFF0E000197210101996F52
:10021800FF0E0001982101019A6FFF0E000199213C
:1002280001019B6F985117080001956F88C196F0DE
:1002380089C197F08AC198F08BC199F0956727EF2B
:1002480001F02FEF01F099359933983397339633AE
:10025800952F22EF01F096C0A4F197C0A5F198C0A0
:10026800A6F199C0A7F10101985117080001956FEF
:10027800A4C196F0A5C197F0A6C198F0A7C199F0BE
:10028800952B4CEF01F0D8909637973798379937D8
:10029800952F47EF01F0010188510001961913E1EC
:1002A80001018951000197190EE101018A510001EC
:1002B800981909E101018B5100019919D8A467EF38
:1002C80001F069EF01F090EF01F0010E0101A415B2
:1002D8000001956F000E0101A5150001966F000E33
:1002E8000101A6150001976F000E0101A715000175
:1002F800986F955102080101486F000E000196554C
:100308000101496F000E0001975501014A6F000E67
:100318000001985501014B6F800E01018A1909E10E
:100328007F0E8B1988118911D8A49DEF01F09FEFDA
:1003380001F00BEF02F0800EA21909E13F0EA3199C
:10034800A011A111D8A4ABEF01F0ADEF01F0B8EF07
:1003580001F0000E00018D6F000E8E6F800E8F6F02
:100368003F0E906F48EF15F0A3BFC7EF01F0A0054F
:10037800000EA159800EA2593F0EA359D8A0C7EF6D
:1003880001F0C9EF01F0E5EF01F077BFD0EF01F020
:10039800CEEF01F0DBEF01F0000E00018D6F000ED3
:1003A8008E6F000E8F6F000E906F48EF15F091C0A2
:1003B8008DF092C08EF093C08FF094C090F048EF0B
:1003C80015F077BFECEF01F0EAEF01F000EF02F073
:1003D80091C003F092C004F093C005F094C006F0F9
:1003E800F4EC2FF003C08DF004C08EF005C08FF040
:1003F80006C090F048EF15F0000E00018D6F000E5A
:100408008E6F000E8F6F000E906F48EF15F0800E04
:100418008A1909E13F0E8B1988118911D8A417EFA1
:1004280002F019EF02F046EF02F077BF20EF02F07A
:100438001EEF02F03CEF02F0000E4E6E000E4F6E03
:10044800800E506E3F0E516E8DC052F08EC053F02C
:100458008FC054F090C055F05FEC25F04EC08DF081
:100468004FC08EF050C08FF051C090F048EF15F09B
:100478008DC08DF08EC08EF08FC08FF090C090F040
:1004880048EF15F0400E7719741175117611D8A43C
:1004980050EF02F052EF02F06EEF02F08DC013F051
:1004A8008EC014F08FC015F090C016F08DC017F0F4
:1004B8008EC018F08FC019F090C01AF038EC23F0F5
:1004C80013C08DF014C08EF015C08FF016C090F0D8
:1004D80048EF15F03F0E7719741175117611D8A4ED
:1004E80078EF02F07AEF02F095EF02F05BBF7FEF52
:1004F80002F081EF02F095EF02F08DC060F08EC03F
:1005080061F08FC062F090C063F078EC1EF060C0BC
:100518008DF061C08EF062C08FF063C090F048EF3C
:1005280015F08DC003F08EC004F08FC005F090C0A8
:1005380006F010EC30F003C068F104C069F105C0A2
:100548006AF106C06BF1800E0101A2190BE17F0E62
:10055800A319A011A111D8B4B4EF02F0B6EF02F0BC
:10056800CFEF02F0A051A111A211A311D8B4BFEF8F
:1005780002F0C1EF02F0CFEF02F0800EA21909E1FC
:100588003F0EA319A011A111D8A4CDEF02F0CFEF0F
:1005980002F09EEF03F068C1ACF169C1ADF16AC128
:1005A800AEF16BC1AFF177BFDEEF02F0DCEF02F026
:1005B800F8EF02F0000E4E6E000E4F6E800E506E79
:1005C8003F0E516EACC152F0ADC153F0AEC154F004
:1005D800AFC155F05FEC25F04EC0ACF14FC0ADF1A6
:1005E80050C0AEF151C0AFF101015BBF00EF03F0A5
:1005F800FEEF02F094EF03F0000EA0250001956FC6
:10060800000E0101A1210001966F800E0101A221B7
:100618000001976FC00E0101A3210001986F01012D
:10062800485100019511996F010149510001961136
:100638009A6F01014A51000197119B6F01014B51BB
:10064800000198119C6F99519A119B119C11D8A483
:1006580030EF03F032EF03F076EF03F0000EFC6F9B
:10066800210EFB6FACC14AF0ADC14BF0AEC14CF0EE
:10067800AFC14DF0ACC146F0ADC147F0AEC148F0D6
:10068800AFC149F0B3EC2FF046C04EF047C04FF071
:1006980048C050F049C051F0ACC14AF0ADC14BF070
:1006A800AEC14CF0AFC14DF0ACC146F0ADC147F0A2
:1006B800AEC148F0AFC149F0B3EC2FF046C052F0DC
:1006C80047C053F048C054F049C055F05FEC25F0DE
:1006D8004EC0ACF14FC0ADF150C0AEF151C0AFF15A
:1006E80094EF03F00101480549114A114B11D8A4B0
:1006F80080EF03F082EF03F094EF03F0ACC103F056
:10070800ADC104F0AEC105F0AFC106F0F4EC2FF0B6
:1007180003C0ACF104C0ADF105C0AEF106C0AFF145
:10072800ACC18DF0ADC18EF0AEC18FF0AFC190F00D
:1007380048EF15F0000E806F000E816F800E826FFB
:100748003F0E836F5BBFADEF03F0ABEF03F010EF2D
:1007580004F0485149114A114B11D8A4B6EF03F0DF
:10076800B8EF03F0FDEF03F0000E0001FC6F210E5F
:10077800FB6F8DC04AF08EC04BF08FC04CF090C01C
:100788004DF08DC046F08EC047F08FC048F090C045
:1007980049F0B3EC2FF046C04EF047C04FF048C0C8
:1007A80050F049C051F08DC04AF08EC04BF08FC058
:1007B8004CF090C04DF08DC046F08EC047F08FC011
:1007C80048F090C049F0B3EC2FF046C052F047C053
:1007D80053F048C054F049C055F05FEC25F04EC0C6
:1007E8008DF04FC08EF050C08FF051C090F048EFA0
:1007F80015F0480549114A114B11D8A406EF04F029
:1008080008EF04F010EF04F0000E806F000E816F07
:10081800800E826FBF0E836F8BBF1FEF04F08805B9
:10082800000E8959000E8A594D0E8B59D8A01FEF1A
:1008380004F021EF04F0A6EF06F0A3BF33EF04F0B5
:10084800F80EA05DFF0EA1597F0EA2593F0EA359C5
:10085800D8B031EF04F033EF04F0A6EF04F077BF1F
:1008680038EF04F03AEF04F070EF04F0600E176E02
:10087800420E186EA20E196E0D0E1A6E80C113F07C
:1008880081C114F082C115F083C116F038EC23F051
:1008980013C09CF114C09DF115C09EF116C09FF1C4
:1008A8009CC113F09DC114F09EC115F09FC116F0B4
:1008B800600E176E420E186EA20E196E0D0E1A6E8D
:1008C80038EC23F013C08DF014C08EF015C08FF0F3
:1008D80016C090F048EF15F0CA0E176EF20E186E9B
:1008E800490E196E710E1A6E80C113F081C114F091
:1008F80082C115F083C116F038EC23F013C09CF1C7
:1009080014C09DF115C09EF116C09FF19CC113F053
:100918009DC114F09EC115F09FC116F0CA0E176E46
:10092800F20E186E490E196E710E1A6E38EC23F01D
:1009380013C08DF014C08EF015C08FF016C090F063
:1009480048EF15F0A3BFB6EF04F0080EA05D000E47
:10095800A159800EA2593F0EA359D8A0B6EF04F0B2
:10096800B8EF04F033EF05F077BFC7EF04F0775125
:100978007611751106E17405D8B0C5EF04F0C7EF1C
:1009880004F0FDEF04F0600E176E420E186EA20E12
:10099800196E0D0E1A6E80C113F081C114F082C158
:1009A80015F083C116F038EC23F013C09CF114C085
:1009B8009DF115C09EF116C09FF19CC113F09DC119
:1009C80014F09EC115F09FC116F0600E176E420E0E
:1009D800186EA20E196E0D0E1A6E38EC23F013C0A5
:1009E8008DF014C08EF015C08FF016C090F048EF4F
:1009F80015F0CA0E176EF20E186E490E196E710EAA
:100A08001A6E80C113F081C114F082C115F083C140
:100A180016F038EC23F013C09CF114C09DF115C0FA
:100A28009EF116C09FF19CC113F09DC114F09EC1A8
:100A380015F09FC116F0CA0E176EF20E186E490E09
:100A4800196E710E1A6E38EC23F013C08DF014C0B5
:100A58008EF015C08FF016C090F048EF15F068C101
:100A68002CF069C12DF06AC12EF06BC12FF0000E79
:100A7800306E000E316E800E326EBF0E336ED8ECC3
:100A880020F02CC0A8F12DC0A9F12EC0AAF12FC0CA
:100A9800ABF1000E176E000E186E800E196E3E0E2A
:100AA8001A6EA8C113F0A9C114F0AAC115F0ABC100
:100AB80016F038EC23F013C04AF014C04BF015C000
:100AC8004CF016C04DF0AB0E466EAA0E476EAA0E3D
:100AD800486E3E0E496EB3EC2FF046C09CF147C0FD
:100AE8009DF148C09EF149C09FF1A8C117F0A9C166
:100AF80018F0AAC119F0ABC11AF0A8C113F0A9C126
:100B080014F0AAC115F0ABC116F038EC23F013C0ED
:100B18004CF114C04DF115C04EF116C04FF1A8C1EB
:100B280017F0A9C118F0AAC119F0ABC11AF09CC1FD
:100B380013F09DC114F09EC115F09FC116F038EC5A
:100B480023F013C04AF014C04BF015C04CF016C087
:100B58004DF0000E466E000E476E000E486E3F0EBA
:100B6800496EB3EC2FF046C03CF147C03DF148C098
:100B78003EF149C03FF14CC113F04DC114F04EC1D4
:100B880015F04FC116F03CC117F03DC118F03EC139
:100B980019F03FC11AF038EC23F013C038F114C033
:100BA80039F115C03AF116C03BF1A8C113F0A9C13B
:100BB80014F0AAC115F0ABC116F0000E176EAA0EFC
:100BC800186EB80E196E3F0E1A6E38EC23F013C06B
:100BD8006CF114C06DF115C06EF116C06FF1700E96
:100BE800176EA50E186EEC0E196E360E1A6EA8C189
:100BF80013F0A9C114F0AAC115F0ABC116F038EC76
:100C080023F013C046F014C047F015C048F016C0D2
:100C180049F03B0E176EAA0E186EB80E196E3F0EED
:100C28001A6E38C113F039C114F03AC115F03BC13E
:100C380016F038EC23F013C04AF014C04BF015C07E
:100C48004CF016C04DF0B3EC2FF046C070F147C021
:100C580071F148C072F149C073F16CC12CF06DC1DB
:100C68002DF06EC12EF06FC12FF070C130F071C140
:100C780031F072C132F073C133F0D8EC20F02CC0DF
:100C88007CF12DC07DF12EC07EF12FC07FF17CC19B
:100C9800B0F17DC1B1F17EC1B2F17FC1B3F1B0C194
:100CA8008CF1B1C18DF1B2C18EF1B3C18FF1000EDB
:100CB80001018C15B06FF00E8D15B16FFF0E8E15FA
:100CC800B26FFF0E8F15B36FB0C17CF1B1C17DF16A
:100CD800B2C17EF1B3C17FF16CC14AF06DC14BF076
:100CE8006EC14CF06FC14DF07CC146F07DC147F03C
:100CF8007EC148F07FC149F0B3EC2FF046C090F1B7
:100D080047C091F148C092F149C093F170C146F0D3
:100D180071C147F072C148F073C149F090C14AF0FF
:100D280091C14BF092C14CF093C14DF0B3EC2FF050
:100D380046C010F147C011F148C012F149C013F183
:100D48003EEF0EF0000E786F000E796F000E7A6F8E
:100D5800000E7B6FA3BFBCEF06F0A35107E1800E26
:100D6800A25DD8B0BAEF06F0BCEF06F0EFEF06F0E0
:100D780068C113F069C114F06AC115F06BC116F0AF
:100D8800000E176E000E186E800E196E4B0E1A6E3E
:100D980038EC23F013C068F114C069F115C06AF18A
:100DA80016C06BF1E80E01017827FF0E7923FF0EBC
:100DB8007A23FF0E7B2368C1B0F169C1B1F16AC122
:100DC800B2F16BC1B3F1B0C1A0F1B1C1A1F1B2C12F
:100DD800A2F1B3C1A3F1170E0001956FA0C196F05F
:100DE800A1C197F0A2C198F0A3C199F09567FFEF50
:100DF80006F007EF07F09935993398339733963310
:100E0800952FFAEF06F0810E000196259A6FFF0ED6
:100E180097219B6FFF0E98219C6FFF0E99219D6F64
:100E28009A510101782700019B51010179230001A2
:100E38009C5101017A2300019D5101017B23FF0E82
:100E4800A015A46FFF0EA115A56F7F0EA215A66FA2
:100E5800000EA315A76F000EA411A06F000EA51118
:100E6800A16F800EA611A26F3F0EA711A36FA7BF97
:100E78004DEF07F0A7510BE1720EA45DC40EA55902
:100E88001C0EA659D8B04BEF07F04DEF07F057EFFF
:100E980007F0000E986F000E996F000E9A6F000E03
:100EA8009B6F89EF07F0A7BF69EF07F0A7510BE128
:100EB800D70EA45DB30EA5595D0EA659D8B067EF3D
:100EC80007F069EF07F073EF07F0010E986F000E57
:100ED800996F000E9A6F000E9B6F89EF07F0000E56
:100EE800986F000E996F000E9A6F000E9B6F010E9F
:100EF8007827000E79237A237B23000EA027000E83
:100F0800A123800EA223FF0EA323A0C1B0F1A1C18B
:100F1800B1F1A2C1B2F1A3C1B3F1B0C168F1B1C1DD
:100F280069F1B2C16AF1B3C16BF168C146F069C138
:100F380047F06AC148F06BC149F098C195F099C172
:100F480096F00001D89095379637D8909537963710
:100F5800E50E9525F66EFF0E9621F76EF86A000EDF
:100F6800F82209006F00D4FF4AF009006F00D4FF8F
:100F78004BF009006F00D4FF4CF00A006F00D4FF5B
:100F88004DF0B3EC2FF046C06CF147C06DF148C08E
:100F98006EF149C06FF1000E4E6E000E4F6E800E5E
:100FA800506E3F0E516E68C130F069C131F06AC1B0
:100FB80032F06BC133F098C195F099C196F00001F9
:100FC800D89095379637D89095379637E50E95256A
:100FD800F66EFF0E9621F76EF86A000EF8220900E9
:100FE8006F00D4FF2CF009006F00D4FF2DF009002A
:100FF8006F00D4FF2EF00A006F00D4FF2FF0D8EC5A
:1010080020F02CC052F02DC053F02EC054F02FC049
:1010180055F05FEC25F04EC070F14FC071F150C033
:1010280072F151C073F16CC113F06DC114F06EC14F
:1010380015F06FC116F070C117F071C118F072C1C8
:1010480019F073C11AF038EC23F013C054F114C02E
:1010580055F115C056F116C057F154C164F155C188
:1010680065F156C166F157C167F164C1B0F165C158
:10107800B1F166C1B2F167C1B3F1B0C18CF1B1C1D0
:101088008DF1B2C18EF1B3C18FF1000E01018C1543
:10109800B06FF00E8D15B16FFF0E8E15B26FFF0E8B
:1010A8008F15B36FB0C164F1B1C165F1B2C166F11A
:1010B800B3C167F1A0C195F0A1C196F0A2C197F0A4
:1010C800A3C198F000019835983397339633953338
:1010D800000E9515996FF00E96159A6FFF0E9715DD
:1010E8009B6FFF0E98159C6F000E991101018C6F74
:1010F800000E00019A1101018D6F000E00019B1175
:1011080001018E6F200E00019C1101018F6F98C1A3
:1011180095F099C196F09AC197F09BC198F0150E79
:10112800D89000019537963797379837E82E94EF7F
:1011380008F001018C5100019525996F01018D512D
:10114800000196219A6F01018E51000197219B6F32
:1011580001018F51000198219C6F000E9925010112
:10116800B06F000E00019A210101B16F400E00011D
:101178009B210101B26F000E00019C210101B36F98
:10118800B0C160F1B1C161F1B2C162F1B3C163F143
:1011980098C195F099C196F00001D8909537963787
:1011A800D89095379637E50E9525F66EFF0E962161
:1011B800F76EF86A000EF82209006F00D4FF4AF0B3
:1011C80009006F00D4FF4BF009006F00D4FF4CF00A
:1011D8000A006F00D4FF4DF060C146F061C147F0CE
:1011E80062C148F063C149F0B3EC2FF046C090F1FA
:1011F80047C091F148C092F149C093F168C146F0E7
:1012080069C147F06AC148F06BC149F090C14AF022
:1012180091C14BF092C14CF093C14DF0B3EC2FF05B
:1012280046C028F147C029F148C02AF149C02BF12E
:1012380060C117F061C118F062C119F063C11AF0FA
:1012480064C113F065C114F066C115F067C116F0EA
:1012580038EC23F013C04AF014C04BF015C04CF022
:1012680016C04DF06CC146F06DC147F06EC148F034
:101278006FC149F0B3EC2FF046C090F147C091F12F
:1012880048C092F149C093F128C117F029C118F05C
:101298002AC119F02BC11AF064C113F065C114F00A
:1012A80066C115F067C116F038EC23F013C04AF098
:1012B80014C04BF015C04CF016C04DF090C146F06C
:1012C80091C147F092C148F093C149F0B3EC2FF0B7
:1012D80046C04CF147C04DF148C04EF149C04FF1EE
:1012E8004CC113F04DC114F04EC115F04FC116F0AA
:1012F80070C117F071C118F072C119F073C11AF0FA
:1013080038EC23F013C024F114C025F115C026F1E0
:1013180016C027F154C113F055C114F056C115F089
:1013280057C116F054C117F055C118F056C119F03D
:1013380057C11AF038EC23F013C084F114C085F1BA
:1013480015C086F116C087F1550E306E320E316E1B
:101358006C0E326E3E0E336E420E176EF10E186E24
:10136800530E196E3E0E1A6E84C113F085C114F027
:1013780086C115F087C116F038EC23F013C02CF0A5
:1013880014C02DF015C02EF016C02FF0D8EC20F0A8
:101398002CC09CF12DC09DF12EC09EF12FC09FF155
:1013A800050E306EA30E316E8B0E326E3E0E336E0E
:1013B80084C117F085C118F086C119F087C11AF0E9
:1013C8009CC113F09DC114F09EC115F09FC116F089
:1013D80038EC23F013C02CF014C02DF015C02EF0FB
:1013E80016C02FF0D8EC20F02CC04CF12DC04DF1D8
:1013F8002EC04EF12FC04FF1AB0E306EAA0E316EDB
:10140800AA0E326E3E0E336E84C117F085C118F0F5
:1014180086C119F087C11AF04CC113F04DC114F000
:101428004EC115F04FC116F038EC23F013C02CF064
:1014380014C02DF015C02EF016C02FF0D8EC20F0F7
:101448002CC03CF12DC03DF12EC03EF12FC03FF124
:10145800B70E306E6D0E316EDB0E326E3E0E336E91
:1014680084C117F085C118F086C119F087C11AF038
:101478003CC113F03DC114F03EC115F03FC116F058
:1014880038EC23F013C02CF014C02DF015C02EF04A
:1014980016C02FF0D8EC20F02CC02CF12DC02DF167
:1014A8002EC02EF12FC02FF19A0E306E990E316E8C
:1014B800190E326E3F0E336E84C117F085C118F0D5
:1014C80086C119F087C11AF02CC113F02DC114F090
:1014D8002EC115F02FC116F038EC23F013C02CF0F4
:1014E80014C02DF015C02EF016C02FF0D8EC20F047
:1014F8002CC000F12DC001F12EC002F12FC003F164
:1015080084C117F085C118F086C119F087C11AF097
:1015180084C113F085C114F086C115F087C116F097
:1015280038EC23F013C004F114C005F115C006F11E
:1015380016C007F100C113F001C114F002C115F083
:1015480003C116F004C117F005C118F006C119F05F
:1015580007C11AF038EC23F013C044F114C045F168
:1015680015C046F116C047F124C117F025C118F07F
:1015780026C119F027C11AF054C130F055C131F015
:1015880056C132F057C133F064C12CF065C12DF05B
:1015980066C12EF067C12FF0D8EC20F02CC013F0F4
:1015A8002DC014F02EC015F02FC016F038EC23F023
:1015B80013C050F114C051F115C052F116C053F1C7
:1015C80044C12CF045C12DF046C12EF047C12FF083
:1015D80050C130F051C131F052C132F053C133F033
:1015E800D8EC20F02CC044F12DC045F12EC046F1B6
:1015F8002FC047F164C113F065C114F066C115F03E
:1016080067C116F064C117F065C118F066C119F01A
:1016180067C11AF038EC23F013C084F114C085F1C7
:1016280015C086F116C087F1000E306E000E316EBF
:10163800400E326E400E336E84C12CF085C12DF001
:1016480086C12EF087C12FF0D8EC20F02CC050F1C5
:101658002DC051F12EC052F12FC053F150C12CF0C2
:1016680051C12DF052C12EF053C12FF044C130F0BA
:1016780045C131F046C132F047C133F0D8EC20F013
:101688002CC060F12DC061F12EC062F12FC063F152
:1016980060C1B0F161C1B1F162C1B2F163C1B3F12E
:1016A800B0C18CF1B1C18DF1B2C18EF1B3C18FF16E
:1016B800000E01018C15B06FF00E8D15B16FFF0E85
:1016C8008E15B26FFF0E8F15B36FB0C160F1B1C147
:1016D80061F1B2C162F1B3C163F1000E306E000E68
:1016E800316E400E326EC00E336E60C12CF061C197
:1016F8002DF062C12EF063C12FF0D8EC20F02CC081
:1017080040F12DC041F12EC042F12FC043F184C1F8
:101718004AF085C14BF086C14CF087C14DF040C1FD
:1017280046F041C147F042C148F043C149F0B3EC2B
:101738002FF046C030F147C031F148C032F149C0FE
:1017480033F144C146F045C147F046C148F047C1AE
:1017580049F030C14AF031C14BF032C14CF033C1CD
:101768004DF0B3EC2FF046C028F147C029F148C02E
:101778002AF149C02BF164C113F065C114F066C1A8
:1017880015F067C116F060C117F061C118F062C1A9
:1017980019F063C11AF038EC23F013C06CF114C0CF
:1017A8006DF115C06EF116C06FF160C117F061C11F
:1017B80018F062C119F063C11AF024C113F025C1F1
:1017C80014F026C115F027C116F038EC23F013C029
:1017D8002CF014C02DF015C02EF016C02FF054C1F7
:1017E80017F055C118F056C119F057C11AF028C1A1
:1017F80013F029C114F02AC115F02BC116F038ECEA
:1018080023F013C030F014C031F015C032F016C008
:1018180033F0D8EC20F02CC070F12DC071F12EC03F
:1018280072F12FC073F16CC12CF06DC12DF06EC137
:101838002EF06FC12FF070C130F071C131F072C15C
:1018480032F073C133F0D8EC20F02CC094F12DC0E5
:1018580095F12EC096F12FC097F194C1B0F195C1C2
:10186800B1F196C1B2F197C1B3F1B0C18CF1B1C178
:101878008DF1B2C18EF1B3C18FF1000E01018C154B
:10188800B06FF00E8D15B16FFF0E8E15B26FFF0E93
:101898008F15B36FB0C194F1B1C195F1B2C196F192
:1018A800B3C197F16CC14AF06DC14BF06EC14CF0F9
:1018B8006FC14DF094C146F095C147F096C148F00C
:1018C80097C149F0B3EC2FF046C090F147C091F1B1
:1018D80048C092F149C093F170C146F071C147F018
:1018E80072C148F073C149F090C14AF091C14BF000
:1018F80092C14CF093C14DF0B3EC2FF046C05CF1AF
:1019080047C05DF148C05EF149C05FF194C113F072
:1019180095C114F096C115F097C116F0000E176E18
:10192800400E186E760E196E3F0E1A6E38EC23F0C4
:1019380013C014F114C015F115C016F116C017F133
:101948004F0E176E380E186E760E196E3F0E1A6E01
:101958005CC113F05DC114F05EC115F05FC116F0F3
:1019680038EC23F013C030F014C031F015C032F059
:1019780016C033F0C60E176E230E186EF60E196ECB
:10198800B80E1A6E94C113F095C114F096C115F0F3
:1019980097C116F038EC23F013C02CF014C02DF0CA
:1019A80015C02EF016C02FF0D8EC20F02CC050F146
:1019B8002DC051F12EC052F12FC053F150C12CF05F
:1019C80051C12DF052C12EF053C12FF098C195F09E
:1019D80099C196F00001D89095379637D8909537E9
:1019E8009637650E9525F66EFF0E9621F76EF86A06
:1019F800000EF82209006F00D4FF30F009006F00D4
:101A0800D4FF31F009006F00D4FF32F00A006F00F4
:101A1800D4FF33F0D8EC20F02CC018F12DC019F108
:101A28002EC01AF12FC01BF178C103F079C104F060
:101A38007AC105F07BC106F0010E61EC29F003C004
:101A4800A8F104C0A9F105C0AAF106C0ABF118C1FC
:101A580030F019C131F01AC132F01BC133F014C192
:101A68002CF015C12DF016C12EF017C12FF0D8ECAF
:101A780020F02CC050F12DC051F12EC052F12FC0D2
:101A880053F198C195F099C196F00001D890953717
:101A98009637D890953796376D0E9525F66EFF0ECA
:101AA8009621F76EF86A000EF82209006F00D4FF3D
:101AB80030F009006F00D4FF31F009006F00D4FF47
:101AC80032F00A006F00D4FF33F050C12CF051C13E
:101AD8002DF052C12EF053C12FF0D8EC20F02CC0BD
:101AE80008F12DC009F12EC00AF12FC00BF108C171
:101AF8002CF009C12DF00AC12EF00BC12FF0A8C19E
:101B080030F0A9C131F0AAC132F0ABC133F0D8EC42
:101B180020F02CC07CF12DC07DF12EC07EF12FC0AD
:101B28007FF17CC1B0F17DC1B1F17EC1B2F17FC15D
:101B3800B3F1B0C18CF1B1C18DF1B2C18EF1B3C1B5
:101B48008FF1000E01018C15B06FF00E8D15B16F7D
:101B5800FF0E8E15B26FFF0E8F15B36FB0C17CF1FB
:101B6800B1C17DF1B2C17EF1B3C17FF1A8C14AF024
:101B7800A9C14BF0AAC14CF0ABC14DF07CC146F0F5
:101B88007DC147F07EC148F07FC149F0B3EC2FF02A
:101B980046C090F147C091F148C092F149C093F115
:101BA80098C195F099C196F00001D890953796376D
:101BB800D890953796376D0E9525F66EFF0E9621BF
:101BC800F76EF86A000EF82209006F00D4FF4AF099
:101BD80009006F00D4FF4BF009006F00D4FF4CF0F0
:101BE8000A006F00D4FF4DF090C146F091C147F054
:101BF80092C148F093C149F0B3EC2FF046C030F1E0
:101C080047C031F148C032F149C033F114C14AF03C
:101C180015C14BF016C14CF017C14DF030C146F05C
:101C280031C147F032C148F033C149F0B3EC2FF06D
:101C380046C00CF147C00DF148C00EF149C00FF184
:101C480018C146F019C147F01AC148F01BC149F044
:101C58000CC14AF00DC14BF00EC14CF00FC14DF054
:101C6800B3EC2FF046C010F147C011F148C012F193
:101C780049C013F191C0B0F192C0B1F193C0B2F173
:101C880094C0B3F1B0C18CF1B1C18DF1B2C18EF184
:101C9800B3C18FF1000E01018C15B06FF00E8D15D8
:101CA800B16FFF0E8E15B26FFF0E8F15B36FB0C1F7
:101CB8001CF1B1C11DF1B2C11EF1B3C11FF17CC14C
:101CC80017F07DC118F07EC119F07FC11AF01CC150
:101CD8004AF01DC14BF01EC14CF01FC14DF091C020
:101CE80046F092C047F093C048F094C049F0B3EC76
:101CF8002FF046C013F047C014F048C015F049C093
:101D080016F038EC23F013C040F114C041F115C0AF
:101D180042F116C043F140C12CF041C12DF042C13F
:101D28002EF043C12FF010C117F011C118F012C1E5
:101D380019F013C11AF091C013F092C014F093C0B7
:101D480015F094C016F038EC23F013C030F014C02E
:101D580031F015C032F016C033F0D8EC20F02CC0AA
:101D68005CF12DC05DF12EC05EF12FC05FF11CC18A
:101D780013F01DC114F01EC115F01FC116F07CC16F
:101D880017F07DC118F07EC119F07FC11AF038EC48
:101D980023F013C094F114C095F115C096F116C044
:101DA80097F15CC12CF05DC12DF05EC12EF05FC1D2
:101DB8002FF094C130F095C131F096C132F097C13F
:101DC80033F0D8EC20F02CC0ACF12DC0ADF12EC012
:101DD800AEF12FC0AFF1ACC1B0F1ADC1B1F1AEC140
:101DE800B2F1AFC1B3F1B0C1A4F1B1C1A5F1B2C1B3
:101DF800A6F1B3C1A7F10101A7BF0FEF0FF0A4052A
:101E0800000EA559000EA659430EA759D8A00FEFEA
:101E18000FF011EF0FF047EF0FF0CA0E176EF20E2A
:101E2800186E490E196E710E1A6E80C113F081C1B9
:101E380014F082C115F083C116F038EC23F013C0FA
:101E48009CF114C09DF115C09EF116C09FF19CC174
:101E580013F09DC114F09EC115F09FC116F0CA0E73
:101E6800176EF20E186E490E196E710E1A6E38EC56
:101E780023F013C08DF014C08EF015C08FF016C07B
:101E880090F048EF15F0430EA719A411A511A6115B
:101E9800D8A451EF0FF053EF0FF0C6EF0FF094C135
:101EA8004AF095C14BF096C14CF097C14DF0ACC1CA
:101EB80046F0ADC147F0AEC148F0AFC149F0B3EC50
:101EC8002FF046C04EF047C04FF048C050F049C010
:101ED80051F03C0E306EAA0E316E380E326E330E53
:101EE800336E5CC12CF05DC12DF05EC12EF05FC178
:101EF8002FF0D8EC20F02CC052F02DC053F02EC09B
:101F080054F02FC055F0EBEC2CF0D8B08EEF0FF05A
:101F180090EF0FF090EF10F0CA0E176EF20E186ED9
:101F2800490E196E710E1A6E80C113F081C114F03A
:101F380082C115F083C116F038EC23F013C09CF170
:101F480014C09DF115C09EF116C09FF19CC113F0FD
:101F58009DC114F09EC115F09FC116F0CA0E176EF0
:101F6800F20E186E490E196E710E1A6E38EC23F0C7
:101F780013C08DF014C08EF015C08FF016C090F00D
:101F880048EF15F0FF0EA4150001956FFF0E010133
:101F9800A5150001966FFF0E0101A6150001976FA8
:101FA8007F0E0101A7150001986F98BFE8EF0FF0A9
:101FB8009505000E9659160E9759430E9859D8A0B4
:101FC800E8EF0FF0EAEF0FF020EF10F0600E176E59
:101FD800420E186EA20E196E0D0E1A6E80C113F005
:101FE80081C114F082C115F083C116F038EC23F0DA
:101FF80013C09CF114C09DF115C09EF116C09FF14D
:102008009CC113F09DC114F09EC115F09FC116F03C
:10201800600E176E420E186EA20E196E0D0E1A6E15
:1020280038EC23F013C08DF014C08EF015C08FF07B
:1020380016C090F048EF15F0160E0101A61909E137
:10204800C30EA719A411A511D8A42DEF10F02FEFD6
:1020580010F090EF10F094C14AF095C14BF096C182
:102068004CF097C14DF0ACC146F0ADC147F0AEC1E0
:1020780048F0AFC149F0B3EC2FF046C04EF047C06E
:102088004FF048C050F049C051F05CC152F05DC1FA
:1020980053F05EC154F05FC155F0EBEC2CF0D8A0C2
:1020A80058EF10F05AEF10F090EF10F0600E176E26
:1020B800420E186EA20E196E0D0E1A6E80C113F024
:1020C80081C114F082C115F083C116F038EC23F0F9
:1020D80013C09CF114C09DF115C09EF116C09FF16C
:1020E8009CC113F09DC114F09EC115F09FC116F05C
:1020F800600E176E420E186EA20E196E0D0E1A6E35
:1021080038EC23F013C08DF014C08EF015C08FF09A
:1021180016C090F048EF15F0FF0E0101A415206FCE
:10212800FF0EA515216FFF0EA615226F7F0EA715AE
:10213800236F170E0001956F20C196F021C197F00B
:1021480022C198F023C199F09567ADEF10F0B5EF73
:1021580010F099359933983397339633952FA8EF24
:1021680010F0810E000196250101986FFF0E000105
:1021780097210101996FFF0E0001982101019A6FC3
:10218800FF0E0001992101019B6F000E786F000E70
:10219800796F000E7A6F000E7B6F23BFE0EF10F0AF
:1021A8002005000E2159000E22593F0E2359D8A0B0
:1021B800E0EF10F0E2EF10F0E6EF11F098C195F0C3
:1021C800010E00019527000E966F000E976F800E86
:1021D800986F000E996F9567F4EF10F0FCEF10F010
:1021E80099359933983397339633952FEFEF10F04D
:1021F8000101A451000196250101786FA551000144
:1022080097210101796FA6510001982101017A6F88
:10221800A7510001992101017B6F810E0001956F83
:10222800FF0E966FFF0E976FFF0E986F170E996F40
:1022380078C19AF079C19BF07AC19CF07BC19DF07E
:10224800996729EF11F031EF11F09D359D339C33DB
:102258009B339A33992F24EF11F000019A51952559
:102268000101986F000E000196210101996F000E7F
:102278000001972101019A6F000E000198210101C8
:102288009B6F98C195F0FF0E0001966FFF0E976F38
:102298007F0E986F000E996F956755EF11F05DEFFF
:1022A80011F099359933983397339633952F50EF2A
:1022B80011F00001961D9A6F971D9B6F981D9C6FDA
:1022C800991D9D6F0101785100019A150101B06FA8
:1022D800795100019B150101B16F7A5100019C15DC
:1022E8000101B26F7B5100019D150101B36FB0C1AF
:1022F800A8F1B1C1A9F1B2C1AAF1B3C1ABF198512A
:1023080017080001956FFF0E010178150001966FFF
:10231800FF0E010179150001976F7F0E01017A15F3
:102328000001986F000E01017B150001996F000EE6
:1023380096119A6F000E97119B6F800E98119C6FE3
:10234800000E99119D6F9567ACEF11F0B4EF11F085
:102358009D359D339C339B339A33952FA7EF11F00E
:102368009AC078F19BC079F19CC07AF19DC07BF14D
:102378000101A7BFC4EF11F0C2EF11F0CCEF11F0CB
:102388007B1F7A1F791F786D000E79237A237B23B0
:1023980094C146F095C147F096C148F097C149F0FD
:1023A800A8C14AF0A9C14BF0AAC14CF0ABC14DF08D
:1023B800B3EC2FF046C094F147C095F148C096F1B0
:1023C80049C097F15CC12CF05DC12DF05EC12EF0C3
:1023D8005FC12FF094C130F095C131F096C132F051
:1023E80097C133F0D8EC20F02CC0A8F12DC0A9F18A
:1023F8002EC0AAF12FC0ABF1A8C1B0F1A9C1B1F1AB
:10240800AAC1B2F1ABC1B3F1B0C18CF1B1C18DF1C8
:10241800B2C18EF1B3C18FF1000E01018C15B06FFE
:10242800800E8D15B16FFF0E8E15B26FFF0E8F15D2
:10243800B36FB0C1A8F1B1C1A9F1B2C1AAF1B3C1DA
:10244800ABF1A8C113F0A9C114F0AAC115F0ABC132
:1024580016F0000E176E720E186E310E196E3F0EC2
:102468001A6E38EC23F013C06CF114C06DF115C06E
:102478006EF116C06FF194C14AF095C14BF096C148
:102488004CF097C14DF0A8C146F0A9C147F0AAC1C8
:1024980048F0ABC149F0B3EC2FF046C090F147C00B
:1024A80091F148C092F149C093F1180E176E720E5F
:1024B800186E310E196E3F0E1A6E90C14AF091C116
:1024C8004BF092C14CF093C14DF05CC146F05DC138
:1024D80047F05EC148F05FC149F0B3EC2FF046C049
:1024E80013F047C014F048C015F049C016F038EC96
:1024F80023F013C034F114C035F115C036F116C0FD
:1025080037F134C12CF035C12DF036C12EF037C16A
:102518002FF08C0E176EBE0E186EBF0E196E350E8C
:102528001A6EA8C113F0A9C114F0AAC115F0ABC165
:1025380016F038EC23F013C030F014C031F015C099
:1025480032F016C033F0D8EC20F02CC070F12DC05A
:1025580071F12EC072F12FC073F16CC12CF06DC1F6
:102568002DF06EC12EF06FC12FF070C130F071C127
:1025780031F072C132F073C133F0D8EC20F02CC0C6
:10258800ACF12DC0ADF12EC0AEF12FC0AFF16CC1D2
:102598004AF06DC14BF06EC14CF06FC14DF0ACC14B
:1025A80046F0ADC147F0AEC148F0AFC149F0B3EC59
:1025B8002FF046C090F147C091F148C092F149C050
:1025C80093F170C146F071C147F072C148F073C110
:1025D80049F090C14AF091C14BF092C14CF093C1BF
:1025E8004DF0B3EC2FF046C038F147C039F148C080
:1025F8003AF149C03BF1ACC113F0ADC114F0AEC122
:1026080015F0AFC116F0ACC117F0ADC118F0AEC1EE
:1026180019F0AFC11AF038EC23F013C0A8F114C0B8
:10262800A9F115C0AAF116C0ABF10E0E306EEA0E74
:10263800316EDD0E326EB50E336E4C0E176EBB0E5C
:10264800186E310E196E330E1A6EA8C113F0A9C197
:1026580014F0AAC115F0ABC116F038EC23F013C082
:102668002CF014C02DF015C02EF016C02FF0D8ECA9
:1026780020F02CC09CF12DC09DF12EC09EF12FC0E2
:102688009FF1550E306EB30E316E8A0E326E380ED3
:10269800336EA8C117F0A9C118F0AAC119F0ABC1CF
:1026A8001AF09CC113F09DC114F09EC115F09FC192
:1026B80016F038EC23F013C02CF014C02DF015C020
:1026C8002EF016C02FF0D8EC20F02CC04CF12DC005
:1026D8004DF12EC04EF12FC04FF1610E306E0B0E32
:1026E800316E360E326EBB0E336EA8C117F0A9C11B
:1026F80018F0AAC119F0ABC11AF04CC113F04DC1C2
:1027080014F04EC115F04FC116F038EC23F013C089
:102718002CF014C02DF015C02EF016C02FF0D8ECF8
:1027280020F02CC03CF12DC03DF12EC03EF12FC051
:102738003FF1AB0E306EAA0E316E2A0E326E3E0E8F
:10274800336EA8C117F0A9C118F0AAC119F0ABC11E
:102758001AF03CC113F03DC114F03EC115F03FC161
:1027680016F038EC23F013C02CF014C02DF015C06F
:102778002EF016C02FF0D8EC20F02CC02CF12DC074
:102788002DF12EC02EF12FC02FF1ACC146F0ADC1F6
:1027980047F0AEC148F0AFC149F0A8C117F0A9C1D0
:1027A80018F0AAC119F0ABC11AF02CC113F02DC151
:1027B80014F02EC115F02FC116F038EC23F013C019
:1027C8004AF014C04BF015C04CF016C04DF0B3ECF5
:1027D8002FF046C07CF147C07DF148C07EF149C06A
:1027E8007FF1000E306E000E316E000E326EC00E9C
:1027F800336E7CC12CF07DC12DF07EC12EF07FC1DF
:102808002FF0D8EC20F02CC052F02DC053F02EC081
:1028180054F02FC055F07CC117F07DC118F07EC16F
:1028280019F07FC11AF0ACC113F0ADC114F0AEC1FC
:1028380015F0AFC116F038EC23F013C04EF014C0F9
:102848004FF015C050F016C051F05FEC25F04EC0A7
:1028580040F14FC041F150C042F151C043F138C17D
:1028680030F039C131F03AC132F03BC133F038C1F0
:1028780017F039C118F03AC119F03BC11AF0ACC1D0
:1028880013F0ADC114F0AEC115F0AFC116F038ECBD
:1028980023F013C02CF014C02DF015C02EF016C074
:1028A8002FF0D8EC20F02CC034F12DC035F12EC01B
:1028B80036F12FC037F140C146F041C147F042C15F
:1028C80048F043C149F034C14AF035C14BF036C134
:1028D8004CF037C14DF0B3EC2FF046C044F147C07F
:1028E80045F148C046F149C047F1ACC14AF0ADC115
:1028F8004BF0AEC14CF0AFC14DF044C146F045C1FC
:1029080047F046C148F047C149F0B3EC2FF046C044
:1029180090F147C091F148C092F149C093F1000E7F
:10292800466E000E476E800E486E3F0E496E90C18F
:102938004AF091C14BF092C14CF093C14DF0B3EC09
:102948002FF046C0ACF147C0ADF148C0AEF149C068
:10295800AFF1ACC1B0F1ADC1B1F1AEC1B2F1AFC12F
:10296800B3F1B0C1A4F1B1C1A5F1B2C1A6F1B3C12F
:10297800A7F178C195F079C196F07AC197F07BC13B
:1029880098F0170ED89000019537963797379837F3
:10299800E82EC6EF14F095510101A42700019651C5
:1029A8000101A523000197510101A62300019851B7
:1029B8000101A723170E0001956FA4C196F0A5C1C8
:1029C80097F0A6C198F0A7C199F09567EEEF14F0BB
:1029D800F6EF14F099359933983397339633952F4A
:1029E800E9EF14F0000199BF06EF15F0995198111D
:1029F800971106E19605D8B004EF15F006EF15F02B
:102A08001EEF15F0ACC12CF0ADC12DF0AEC12EF00B
:102A1800AFC12FF078C130F079C131F02DEC27F03B
:102A28002CC0ACF12DC0ADF12EC0AEF12FC0AFF16E
:102A38002EEF15F0A4C1B0F1A5C1B1F1A6C1B2F154
:102A4800A7C1B3F1B0C1ACF1B1C1ADF1B2C1AEF142
:102A5800B3C1AFF180C113F081C114F082C115F088
:102A680083C116F0ACC117F0ADC118F0AEC119F0B2
:102A7800AFC11AF038EC23F013C08DF014C08EF0FB
:102A880015C08FF016C090F0120000C2B3F001C25A
:102A9800B4F004C2B5F005C2B6F006C2B7F007C27A
:102AA800B8F022C2B9F023C2BAF024C2BBF025C2E2
:102AB800BCF026C2BDF027C2BEF028C2BFF029C2B2
:102AC800C0F02AC2C1F02BC2C2F02CC2C3F02DC282
:102AD800C4F02EC2C5F02FC2C6F030C2C7F031C252
:102AE800C8F020C2C9F021C2CAF047EC28F0010E94
:102AF8000001ED6F010EA76F010E096E20C20AF0EA
:102B080021C20BF0ED516BEC2EF009C0A8F00AC001
:102B1800A9F00BC0AAF00CC0ABF03EC2ACF03FC2AB
:102B2800ADF00001ED5130EC2EF00001ED2B020E5E
:102B3800ED65A1EF15F0A3EF15F07EEF15F018C2C3
:102B4800B3F019C2B4F002C2B5F003C2B6F038C28D
:102B5800B7F039C2B8F03BEC2AF038C2B3F039C24A
:102B6800B4F034C2B5F035C2B6F03AC2B7F03BC2E1
:102B7800B8F03BEC2AF01CC2B3F01DC2B4F032C26C
:102B8800B5F033C2B6F038C2B7F039C2B8F03BEC92
:102B98002AF038C2B3F039C2B4F036C2B5F037C241
:102BA800B6F03CC2B7F03DC2B8F03BEC2AF0010EDB
:102BB8000001ED6F010EEC6F020EEC65E6EF15F00B
:102BC800E8EF15F0EAEF15F025EF16F0ECC0A7F0E6
:102BD8003AC20AF03BC20BF0ECC009F0ED516BECC5
:102BE8002EF009C02CF00AC02DF00BC02EF00CC03E
:102BF8002FF03CC20AF03DC20BF0ECC009F0000116
:102C0800ED516BEC2EF009C030F00AC031F00BC06A
:102C180032F00CC033F0D8EC20F02CC0A8F02DC056
:102C2800A9F02EC0AAF02FC0ABF040C2ACF041C250
:102C3800ADF00001ED5130EC2EF00001EC2BE0EF8F
:102C480015F0ED2B020EED652CEF16F02EEF16F0B9
:102C5800DEEF15F040C2B3F041C2B4F042C2B5F0A5
:102C680043C2B6F038C2B7F039C2B8F03BEC2AF02C
:102C7800000E0001E36F000EE46F000EE56F000E1A
:102C8800E66F000EE76F000EE86F000EE96F000EAA
:102C9800EA6F010EED6FE3C02CF0E4C02DF0E5C043
:102CA8002EF0E6C02FF01AC20AF01BC20BF0010E7C
:102CB800096EED516BEC2EF009C017F00AC018F040
:102CC8000BC019F00CC01AF038C20AF039C20BF068
:102CD800010E096E0001ED516BEC2EF009C013F0E6
:102CE8000AC014F00BC015F00CC016F038EC23F035
:102CF80013C030F014C031F015C032F016C033F0F4
:102D0800D8EC20F02CC0E3F02DC0E4F02EC0E5F0A4
:102D18002FC0E6F00001ED2B020EED6596EF16F0E0
:102D280098EF16F04FEF16F0E3C02CF0E4C02DF04A
:102D3800E5C02EF0E6C02FF014C230F015C231F015
:102D480016C232F017C233F0D8EC20F02CC0E7F0EE
:102D58002DC0E8F02EC0E9F02FC0EAF0E7C08DF0F2
:102D6800E8C08EF0E9C08FF0EAC090F0000E0001D4
:102D7800916F000E926F800E936FBF0E946F0FECE1
:102D880000F08DC0E7F08EC0E8F08FC0E9F090C089
:102D9800EAF0010E0001ED6F010EA76F38C20AF0CC
:102DA80039C20BF0010E096EED516BEC2EF009C023
:102DB80013F00AC014F00BC015F00CC016F0E7C0F1
:102DC80017F0E8C018F0E9C019F0EAC01AF038ECBA
:102DD80023F013C0A8F014C0A9F015C0AAF016C0BB
:102DE800ABF044C2ACF045C2ADF00001ED5130EC9F
:102DF8002EF00001ED2B020EED6505EF17F007EF41
:102E080017F0D0EF16F0000EDF6F000EE06F000E27
:102E1800E16F000EE26F000E176E000E186EC80EFE
:102E2800196E420E1A6E3EC20AF03FC20BF0010E36
:102E3800096E010E6BEC2EF009C013F00AC014F0F5
:102E48000BC015F00CC016F038EC23F013C0D3F00B
:102E580014C0D4F015C0D5F016C0D6F00CC230F0AE
:102E68000DC231F00EC232F00FC233F03EC20AF08A
:102E78003FC20BF0010E096E020E6BEC2EF009C07A
:102E88002CF00AC02DF00BC02EF00CC02FF0D8EC9F
:102E980020F02CC0D7F02DC0D8F02EC0D9F02FC00C
:102EA800DAF046C27DF047C27EF048C27FF049C2E0
:102EB80080F010C279F011C27AF012C27BF013C20E
:102EC8007CF004C275F005C276F006C277F007C23E
:102ED80078F0D3C071F0D4C072F0D5C073F0D6C00A
:102EE80074F0A4EC2EF071C0DBF072C0DCF073C09B
:102EF800DDF074C0DEF0D7C046F0D8C047F0D9C0C6
:102F080048F0DAC049F0DBC04AF0DCC04BF0DDC065
:102F18004CF0DEC04DF0B3EC2FF046C0DFF047C0F8
:102F2800E0F048C0E1F049C0E2F0010E0001ED6FA9
:102F3800010EA76F44C20AF045C20BF0010E096EDC
:102F4800ED516BEC2EF009C013F00AC014F00BC061
:102F580015F00CC016F0DFC017F0E0C018F0E1C0A3
:102F680019F0E2C01AF038EC23F013C0A8F014C02E
:102F7800A9F015C0AAF016C0ABF038C2ACF039C23F
:102F8800ADF00001ED5130EC2EF0010E0001A76FFD
:102F98003EC20AF03FC20BF0010E096EED516BEC18
:102FA8002EF009C02CF00AC02DF00BC02EF00CC07A
:102FB8002FF038C20AF039C20BF0010E096E000179
:102FC800ED516BEC2EF009C030F00AC031F00BC0A7
:102FD80032F00CC033F0D8EC20F02CC0A8F02DC093
:102FE800A9F02EC0AAF02FC0ABF04AC2ACF04BC279
:102FF800ADF00001ED5130EC2EF00001ED2B020E8A
:10300800ED6509EF18F00BEF18F09CEF17F0010EC3
:10301800ED6F010EEB6F020EEB6515EF18F017EF71
:1030280018F019EF18F054EF18F0EBC0A7F044C2ED
:103038000AF045C20BF0010E096EED516BEC2EF053
:1030480009C013F00AC014F00BC015F00CC016F03C
:103058001AC20AF01BC20BF0010E096E0001EB51F7
:103068006BEC2EF009C017F00AC018F00BC019F06D
:103078000CC01AF038EC23F013C0A8F014C0A9F063
:1030880015C0AAF016C0ABF038C2ACF039C2ADF02A
:103098000001ED5130EC2EF00001EB2B0FEF18F092
:1030A800ED2B020EED655BEF18F05DEF18F00DEFFC
:1030B80018F038C2B3F039C2B4F040C2B5F041C21A
:1030C800B6F03AC2B7F03BC2B8F03BEC2AF0010EBA
:1030D8000001ED6F010EEC6F020EEC6576EF18F053
:1030E80078EF18F07AEF18F0B5EF18F0ECC0A7F009
:1030F80040C20AF041C20BF0ECC009F0ED516BEC94
:103108002EF009C046F00AC047F00BC048F00CC0CA
:1031180049F03AC20AF03BC20BF0ECC009F00001DA
:10312800ED516BEC2EF009C04AF00AC04BF00BC011
:103138004CF00CC04DF0B3EC2FF046C0A8F047C0DF
:10314800A9F048C0AAF049C0ABF04CC2ACF04DC2DF
:10315800ADF00001ED5130EC2EF00001EC2B70EFDA
:1031680018F0ED2B020EED65BCEF18F0BEEF18F06D
:103178006EEF18F012006DC075F06EC076F06FC07B
:1031880077F070C078F075C0A3F076C0A4F077C06F
:10319800A5F078C0A6F0A3C071F0A4C072F0A5C0D5
:1031A80073F0A6C074F0200EE0EF18F00001D8907C
:1031B8007433733372337133E82EDAEF18F071C059
:1031C8009DF072C09EF0A69F500EA35DAC0EA45950
:1031D800AE0EA559420EA659D8A0F5EF18F0F7EF94
:1031E80018F069EF19F0000EFC6F220EFB6FA305B3
:1031F800000EA459800EA5597F0EA659D8A007EF36
:1032080019F009EF19F013EF19F06DC06DF06EC0E9
:103218006EF06FC06FF070C070F0D8EF1BF0180E32
:10322800A35D720EA459B10EA559420EA659D8A095
:1032380020EF19F022EF19F047EF19F09D519E1178
:10324800D8A429EF19F02BEF19F047EF19F06DC04A
:1032580013F06EC014F06FC015F070C016F0000EB9
:10326800176E000E186E000E196E7F0E1A6E38EC6F
:1032780023F013C06DF014C06EF015C06FF016C0C7
:1032880070F009EF19F09D519E11D8B44EEF19F066
:1032980050EF19F069EF19F0B50EA35DF10EA459BE
:1032A800CF0EA559420EA659D8A05DEF19F05FEFD1
:1032B80019F069EF19F0000E6D6F000E6E6F000EB9
:1032C8006F6F000E706FD8EF1BF0190EA35D720EB2
:1032D800A459B10EA5593E0EA659D8A076EF19F0FB
:1032E80078EF19F06AEF1AF0930EA35D150EA45942
:1032F800850EA5593F0EA659D8A085EF19F087EF7E
:1033080019F0DAEF19F09DC071F09EC072F0D890F4
:1033180071377237D89071377237750E7125F66E1E
:10332800FF0E7221F76EF86A000EF82209006F008E
:10333800D4FF30F009006F00D4FF31F009006F00AE
:10334800D4FF32F00A006F00D4FF33F03B0E176E43
:10335800AA0E186EB80E196E3F0E1A6E6DC013F0D5
:103368006EC014F06FC015F070C016F038EC23F082
:1033780013C02CF014C02DF015C02EF016C02FF07D
:10338800D8EC20F02CC03CF02DC03DF02EC03EF013
:103398002FC03FF068EC2CF03CC09FF03DC0A0F07F
:1033A8003EC0A1F03FC0A2F0F2EF19F09DC071F04D
:1033B8009EC072F0D8907137723771510108736FDF
:1033C8007251D8A0E82A0008746F73C09FF074C0C7
:1033D800A0F0000EA0BFFF0EA16FA26F6DC046F057
:1033E8006EC047F06FC048F070C049F0000E176E0D
:1033F800720E186E310E196E3F0E1A6E9FC003F0D2
:10340800A0C004F0A1C005F0A2C006F0010E61EC56
:1034180029F003C013F004C014F005C015F006C06D
:1034280016F038EC23F013C04AF014C04BF015C066
:103438004CF016C04DF0B3EC2FF046C095F047C0E5
:1034480096F048C097F049C098F09FC003F0A0C01C
:1034580004F0A1C005F0A2C006F0010E61EC29F04D
:1034680003C013F004C014F005C015F006C016F030
:103478008E0E176EBE0E186EBF0E196E350E1A6EB2
:1034880038EC23F013C099F014C09AF015C09BF0E3
:1034980016C09CF095C046F096C047F097C048F01B
:1034A80098C049F099C04AF09AC04BF09BC04CF0C4
:1034B8009CC04DF0B3EC2FF046C06DF047C06EF0E5
:1034C80048C06FF049C070F0AEEF1AF0A305000EC7
:1034D800A459000EA559390EA659D8A076EF1AF0AE
:1034E80078EF1AF092EF1AF0000E9F6F000EA06F9F
:1034F800000EA16F000EA26F6DC095F06EC096F021
:103508006FC097F070C098F0000E996F000E9A6F18
:10351800000E9B6F000E9C6FAEEF1AF06DC02CF082
:103528006EC02DF06FC02EF070C02FF0000E306E00
:10353800000E316E800E326E3F0E336ED8EC20F0E6
:103548002CC06DF02DC06EF02EC06FF02FC070F043
:10355800D8EF1BF06DC013F06EC014F06FC015F0FB
:1035680070C016F06DC017F06EC018F06FC019F07B
:1035780070C01AF038EC23F013C08DF014C08EF030
:1035880015C08FF016C090F08F0E306EAA0E316EF7
:103598002A0E326E3E0E336E150E176E520E186ED0
:1035A800350E196EBB0E1A6E8DC013F08EC014F056
:1035B8008FC015F090C016F038EC23F013C02CF033
:1035C80014C02DF015C02EF016C02FF0D8EC20F046
:1035D8002CC079F02DC07AF02EC07BF02FC07CF083
:1035E8006DC046F06EC047F06FC048F070C049F03B
:1035F8008DC017F08EC018F08FC019F090C01AF067
:1036080079C013F07AC014F07BC015F07CC016F0B6
:1036180038EC23F013C04AF014C04BF015C04CF03E
:1036280016C04DF0B3EC2FF046C089F047C08AF0C1
:1036380048C08BF049C08CF089C04AF08AC04BF072
:103648008BC04CF08CC04DF0000E466E000E476EDD
:10365800000E486E400E496EB3EC2FF046C052F093
:1036680047C053F048C054F049C055F089C017F01E
:103678008AC018F08BC019F08CC01AF06DC013F016
:103688006EC014F06FC015F070C016F038EC23F05F
:1036980013C04EF014C04FF015C050F016C051F0D2
:1036A8005FEC25F04EC07DF04FC07EF050C07FF03B
:1036B80051C080F099C04AF09AC04BF09BC04CF0C2
:1036C8009CC04DF07DC046F07EC047F07FC048F0FA
:1036D80080C049F0B3EC2FF046C081F047C082F0BB
:1036E80048C083F049C084F095C030F096C031F0EE
:1036F80097C032F098C033F081C02CF082C02DF012
:1037080083C02EF084C02FF0D8EC20F02CC085F0B8
:103718002DC086F02EC087F02FC088F085C02CF011
:1037280086C02DF087C02EF088C02FF0000E306EB6
:10373800000E316E800E326E3F0E336ED8EC20F0E4
:103748002CC091F02DC092F02EC093F02FC094F0B1
:1037580000019F51A011A111A211D8A4B6EF1BF02E
:10376800B8EF1BF0C2EF1BF091C06DF092C06EF085
:1037780093C06FF094C070F0D8EF1BF091C02CF09C
:1037880092C02DF093C02EF094C02FF09FC030F05F
:10379800A0C031F02DEC27F02CC06DF02DC06EF0DC
:1037A8002EC06FF02FC070F01200CAEC30F0020E7D
:1037B8000B6E7E0E0C6E030E0D6E020E2AEC30F0B0
:1037C800010E0001A76F000EA86F000EA96F800EF2
:1037D800AA6F3F0EAB6F7E0EAC6F030EAD6F010E7E
:1037E80030EC2EF0020E0001A76FB40E6D6FA20E22
:1037F8006E6F910E6F6FB90E706FBFEC18F06DC0E1
:10380800A8F06EC0A9F06FC0AAF070C0ABF07E0E31
:103818000001AC6F030EAD6F020E30EC2EF07E0E81
:103828000001B36F030EB46F840EB56F020EB66F4E
:10383800D2EC2BF0020E0B6E900E0C6E030E0D6E7A
:10384800020E2AEC30F0010E0001A76F000EA86FDF
:10385800000EA96F800EAA6F3F0EAB6F900EAC6F73
:10386800030EAD6F010E30EC2EF0020E0001A76FB3
:10387800000EA86F000EA96F800EAA6F3F0EAB6FE7
:10388800900EAC6F030EAD6F020E30EC2EF0900E62
:103898000001B36F030EB46F960EB56F020EB66FCC
:1038A800D2EC2BF0020E0B6E120E0C6E030E0D6E88
:1038B800020E2AEC30F0010E0001A76F000EA86F6F
:1038C800000EA96F800EAA6F3F0EAB6F120EAC6F81
:1038D800030EAD6F010E30EC2EF0020E0001A76F43
:1038E800000EA86F000EA96F800EAA6F3F0EAB6F77
:1038F800120EAC6F030EAD6F020E30EC2EF0010EFF
:103908000B6EA20E0C6E030E0D6E020E2AEC30F03A
:10391800010E0001A76F420EA86F600EA96FE50E99
:10392800AA6F3B0EAB6FA20EAC6F030EAD6F010E0C
:1039380030EC2EF0010E0001A76F000EA86F000EEC
:10394800A96F800EAA6FBF0EAB6FA20EAC6F030EED
:10395800AD6F020E30EC2EF0010E0B6E360E0C6EB3
:10396800030E0D6E020E2AEC30F0010E0001A76F57
:10397800010E096EA20E0A6E030E0B6E010E6BECA1
:103988002EF009C0A8F00AC0A9F00BC0AAF00CC01C
:10399800ABF0360E0001AC6F030EAD6F010E30ECCC
:1039A8002EF0010E0001A76F020E096EA20E0A6E1C
:1039B800030E0B6E010E6BEC2EF009C0A8F00AC0C6
:1039C800A9F00BC0AAF00CC0ABF0360E0001AC6F2A
:1039D800030EAD6F020E30EC2EF0000E00018D6F5D
:1039E800000E8E6F200E8F6F410E906F000E916F3C
:1039F800000E926F800E936FC00E946F0FEC00F064
:103A08008DC0CCF28EC0CDF28FC0CEF290C0CFF276
:103A1800010E0B6E4E0E0C6E020E0D6E020E2AEC8F
:103A280030F0020E0B6E000E0C6E030E0D6E020EC1
:103A38002AEC30F0000E0001916F000E926FE00E3C
:103A4800936FC00E946F000E8D6F000E8E6F200E58
:103A58008F6F410E906F0FEC00F08DC0D7F18EC0C4
:103A6800D8F18FC0D9F190C0DAF1010E0001A76F2B
:103A7800D7C113F0D8C114F0D9C115F0DAC116F0C6
:103A8800000E176E000E186E200E196E400E1A6E7C
:103A980038EC23F013C0A8F014C0A9F015C0AAF0A0
:103AA80016C0ABF0000E0001AC6F030EAD6F010E37
:103AB80030EC2EF0010E0B6E5A0E0C6E030E0D6ECE
:103AC800020E2AEC30F0010E0B6E600E0C6E020E28
:103AD8000D6E020E2AEC30F0010E0B6E240E0C6EE9
:103AE800030E0D6E020E2AEC30F0020E0B6ED00E95
:103AF8000C6E020E0D6E020E2AEC30F0010E0B6EEB
:103B0800720E0C6E020E0D6E020E2AEC30F0020ED2
:103B18000B6E480E0C6E030E0D6E020E2AEC30F082
:103B2800010E0001A76FCCC2A8F0CDC2A9F0CEC289
:103B3800AAF0CFC2ABF0480EAC6F030EAD6F010E0A
:103B480030EC2EF0020E0001A76FCCC2A8F0CDC257
:103B5800A9F0CEC2AAF0CFC2ABF0480EAC6F030EEC
:103B6800AD6F020E30EC2EF0020E0B6E6C0E0C6E6A
:103B7800030E0D6E020E2AEC30F0010E0001A76F45
:103B8800CCC2A8F0CDC2A9F0CEC2AAF0CFC2ABF089
:103B98006C0EAC6F030EAD6F010E30EC2EF0020E02
:103BA8000001A76FCCC2A8F0CDC2A9F0CEC2AAF07E
:103BB800CFC2ABF06C0EAC6F030EAD6F020E30ECE3
:103BC8002EF0020E0B6EE20E0C6E020E0D6E020E41
:103BD8002AEC30F0020E0B6EA80E0C6E020E0D6E63
:103BE800020E2AEC30F0020E0B6EBA0E0C6E020EAC
:103BF8000D6E020E2AEC30F0000E0101CB6F000EA4
:103C0800CC6F800ECD6F3F0ECE6F000ECF6F000EC3
:103C1800D06F000ED16F000ED26F000EDB6F000E5A
:103C2800DC6F000EDD6F000EDE6F000ED36F000E2E
:103C3800D46F000ED56F000ED66F000EDF6F000E2A
:103C4800E06F000EE16F000EE26F010E0001A76F3A
:103C5800CBC1A8F0CCC1A9F0CDC1AAF0CEC1ABF0C0
:103C68005A0EAC6F030EAD6F010E30EC2EF0010E44
:103C78000001A76FCFC1A8F0D0C1A9F0D1C1AAF0A7
:103C8800D2C1ABF05A0EAC6F030EAD6F020E30EC22
:103C98002EF0000E0001EE6FB40E036E030E046EDC
:103CA800000E056E040E066E800E076E6CEC2FF08B
:103CB800E3EC30F00009D8B464EF1EF066EF1EF0B4
:103CC8005CEF1EF05DEC30F00009D8B46EEF1EF02A
:103CD80070EF1EF05CEF1EF0E2EC2DF0BDEC30F062
:103CE8005CEF1EF00DEF00F060C071F061C072F083
:103CF80062C073F063C074F071C089F072C08AF05A
:103D080073C08BF074C08CF0000E00018915646FCD
:103D1800000E8A15656F800E8B15666F7F0E8C15E9
:103D2800676F800E661909E17F0E671964116511C6
:103D3800D8A4A1EF1EF0A3EF1EF0D1EF1EF060C0D3
:103D480017F061C018F062C019F063C01AF060C0C3
:103D580013F061C014F062C015F063C016F038ECBF
:103D680023F013C02CF014C02DF015C02EF016C08F
:103D78002FF060C030F061C031F062C032F063C033
:103D880033F0D8EC20F02CC060F02DC061F02EC0CC
:103D980062F02FC063F0D7EF20F08CBFE0EF1EF089
:103DA8008C518B118A1106E18905D8B0DEEF1EF01F
:103DB800E0EF1EF01CEF1FF0FF0E8915646FFF0E79
:103DC8008A15656FFF0E8B15666F7F0E8C15676FF2
:103DD8006451651166116711D8A4F5EF1EF0F7EF6D
:103DE8001EF001EF1FF060C060F061C061F062C0BA
:103DF80062F063C063F0D7EF20F08CBF08EF1FF0CC
:103E080006EF1FF01CEF1FF0000EFC6F210EFB6F7A
:103E1800FD0E036EFF0E046EACEC30F003C060F0D4
:103E280004C061F005C062F006C063F0D7EF20F06F
:103E3800170E646F89C065F08AC066F08BC067F0A2
:103E48008CC068F064672BEF1FF033EF1FF0683504
:103E58006833673366336533642F26EF1FF065C018
:103E680081F066C082F067C083F068C084F000010A
:103E78008151821183118411D8A445EF1FF047EFB7
:103E88001FF077EF1FF0000E6D6F000E6E6F000EC3
:103E98006F6F000E706F5CEF1FF0D89089378A370C
:103EA8008B378C37010E6D27000E6E236F2370231E
:103EB8008BAF61EF1FF063EF1FF051EF1FF0FF0EA4
:103EC8006D25646FFF0E6E21656FFF0E6F21666FA3
:103ED800FF0E7021676F6451815F6551825B665187
:103EE800835B6751845B810E8127FF0E8223FF0E5F
:103EF8008323FF0E8423FF0E8915646FFF0E8A1536
:103F0800656F7F0E8B15666F000E8C15676F000E40
:103F18006411896F000E65118A6F800E66118B6FB0
:103F2800000E67118C6F81A19CEF1FF09EEF1FF0B0
:103F3800A6EF1FF0895189278A518A238B518B2339
:103F48008C518C2384358433833382338133895174
:103F580089278A518A238B518B238C518C23000EFD
:103F6800696F000E6A6F000E6B6F000E6C6F69C090
:103F780075F06AC076F06BC077F06CC078F0000E10
:103F8800856F000E866F000E876F010E886F15EF24
:103F980020F069518525796F6A5186217A6F6B51B6
:103FA80087217B6F6C5188217C6F7951895D7A51AB
:103FB8008A597B518B598C51800A646F7C51800AD5
:103FC8006459D8A0EAEF1FF0ECEF1FF008EF20F0DB
:103FD80079518525696F7A5186216A6F7B518721CE
:103FE8006B6F7C5188216C6F7951895F7A518A5B3C
:103FF8007B518B5B7C518C5B855175278651762371
:104008008751772388517823895189278A518A23B0
:104018008B518B238C518C23D890883387338633EC
:1040280085338551861187118811D8A41EEF20F099
:1040380020EF20F0CDEF1FF089518A118B118C11E0
:10404800D8B429EF20F02BEF20F08CEF20F0000EF1
:104058007D6F000E7E6F800E7F6F3F0E806F7DC07C
:104068004EF07EC04FF07FC050F080C051F0000E7F
:10407800526E000E536E800E546E3F0E556EEBEC72
:104088002CF0D8A04AEF20F04CEF20F08CEF20F075
:10409800000E00017D6F000E7E6F800E7F6F3F0E59
:1040A800806F000E4E6E000E4F6E800E506E3F0EEB
:1040B800516E7DC052F07EC053F07FC054F080C076
:1040C80055F0EBEC2CF0D8B06CEF20F06EEF20F050
:1040D80077EF20F0020E00017527000E7623772374
:1040E80078238CEF20F0010E00017515646F000E27
:1040F8007615656F000E7715666F000E7815676F79
:104108006451752765517623665177236751782363
:1041180075C064F076C065F077C066F078C067F067
:10412800000167356733663365336433000E6425F1
:10413800896F000E65218A6F000E66218B6F3F0E16
:1041480067218C6F81C064F082C065F083C066F01F
:1041580084C067F0170ED8906437653766376737BD
:10416800E82EAFEF20F06451892765518A23665104
:104178008B2367518C2389C071F08AC072F08BC081
:1041880073F08CC074F071C07DF072C07EF073C0A3
:104198007FF074C080F07DC060F07EC061F07FC0A9
:1041A80062F080C063F012002F50800B386E2F50E1
:1041B8002F243A6E2EAEE3EF20F0E5EF20F0E6EF85
:1041C80020F03A803A50D8B4ECEF20F0EEEF20F02F
:1041D80003EF21F03A28D8A4F4EF20F0F6EF20F00E
:1041E800FEEF20F0000E2C6E000E2D6E000E2E6ECF
:1041F800000E2F6E2E8E000E2F6E0BEF21F0000E8C
:104208002C6E000E2D6E000E2E6E000E2F6E33508B
:10421800800B396E38503918D8B415EF21F017EFE4
:1042280021F018EF21F0388C33503324396E32AE38
:1042380020EF21F022EF21F023EF21F039803950CF
:10424800D8B429EF21F02BEF21F040EF21F03928E5
:10425800D8A431EF21F033EF21F03BEF21F0000E2D
:10426800306E000E316E000E326E000E336E328EDE
:10427800000E336E48EF21F0000E306E000E316EE6
:10428800000E326E000E336E3A50395CD8B04FEFE4
:1042980021F051EF21F078EF21F038AC56EF21F002
:1042A80058EF21F05AEF21F0800E381A3AC03BF04F
:1042B80039C03AF03BC039F02CC03BF030C02CF08C
:1042C8003BC030F02DC03BF031C02DF03BC031F089
:1042D8002EC03BF032C02EF03BC032F02FC03BF076
:1042E80033C02FF03BC033F0000E3B6E3A5039C05C
:1042F80034F0356A345E000E355A35BE8DEF21F044
:10430800355009E11A0E345CD8A08DEF21F08FEFFB
:1043180021F0C6EF21F02C502D102E102F10D8A40C
:1043280098EF21F09BEF21F0010E9CEF21F0000E99
:104338003B6E000E2C6E000E2D6E000E2E6E000EC3
:104348002F6E39C03AF0CFEF21F03BA0AEEF21F04D
:10435800B0EF21F0B6EF21F0D8903B3001093B6E69
:10436800B8EF21F0D8903B322CA0BDEF21F0BFEF81
:1043780021F0C0EF21F03B8E2F342F322E322D3218
:104388002C323A2A39503A5CD8A0CDEF21F0CFEF41
:1043980021F0A9EF21F038BCD4EF21F0D6EF21F0BD
:1043A80016EF22F03A50D8A4DCEF21F0DEEF21F02E
:1043B800E8EF21F0000E2C6E000E2D6E000E2E6E12
:1043C800000E2F6E37EF23F030502C2631502D225F
:1043D80032502E2233502F222FA0F5EF21F0F7EF85
:1043E80021F0A3EF22F03BA0FCEF21F0FEEF21F03B
:1043F80004EF22F0D8903B3001093B6E06EF22F023
:10440800D8903B322CA00BEF22F00DEF22F00EEFEC
:1044180022F03B8E2F342F322E322D322C323A2A74
:10442800A3EF22F030502C5C31502D5832502E58CA
:104438002F50800A346E3350800A3458D8B027EF92
:1044480022F029EF22F054EF22F02C50305C346E29
:104458002D503158356E2E503258366E2F503358F5
:10446800376EFF0E34242C6EFF0E35202D6EFF0E96
:1044780036202E6EFF0E37202F6E800E381A3B6CBA
:104488003B50D8A44AEF22F04CEF22F05CEF22F028
:10449800010E2C26000E2D222E222F225CEF22F058
:1044A80030502C5E31502D5A32502E5A33502F5ADC
:1044B8002C502D102E102F10D8A465EF22F067EF86
:1044C80022F09CEF22F03B50D8A46DEF22F06FEF62
:1044D80022F09CEF22F0000E2C6E000E2D6E000EC6
:1044E8002E6E000E2F6E37EF23F0D8902C362D3617
:1044F8002E362F363BAE83EF22F085EF22F086EF83
:1045080022F02C803BA08BEF22F08DEF22F091EF70
:1045180022F0D8803B3693EF22F0D8903B363A50C1
:10452800D8B499EF22F09BEF22F09CEF22F03A06E4
:104538002EAEA1EF22F0A3EF22F079EF22F0000EC9
:10454800396E3BAEAAEF22F0ACEF22F0C4EF22F0B6
:104558003BC034F07F0E3416D8B4B5EF22F0B7EF75
:1045680022F0BBEF22F0010E396EC4EF22F02CA02E
:10457800C0EF22F0C2EF22F0C4EF22F0B7EF22F032
:104588003950D8B4CAEF22F0CCEF22F0F7EF22F07E
:10459800010E2C26000E2D222E222F222FA0D7EF1F
:1045A80022F0D9EF22F0F7EF22F02CC034F02DC022
:1045B80035F02EC036F02FC037F037343732363268
:1045C8003532343234C02CF035C02DF036C02EF0E0
:1045D80037C02FF03A28D8B4F4EF22F0F6EF22F0E3
:1045E800F7EF22F03A2A3A28D8B4FDEF22F0FFEF8D
:1045F80022F007EF23F03A50D8A405EF23F007EF95
:1046080023F019EF23F0000E2C6E000E2D6E000E15
:104618002E6E000E2F6E3A50D8A415EF23F017EF28
:1046280023F019EF23F0000E386E3AA01EEF23F0A6
:1046380020EF23F023EF23F02E8E24EF23F02E9E7D
:10464800D8903A302F6E38AE2CEF23F02EEF23F0AF
:104658002FEF23F02F8E2CC02CF02DC02DF02EC064
:104668002EF02FC02FF012001650800B1F6E165020
:104678001624256E15AE43EF23F045EF23F046EFE1
:1046880023F025802550D8B44CEF23F04EEF23F0CB
:1046980061EF23F02528D8A454EF23F056EF23F038
:1046A8005EEF23F0000E136E000E146E000E156EF2
:1046B800000E166E158E69EF23F0000E136E000EB5
:1046C800146E000E156E000E166E1A50800B1F1A0F
:1046D8001A501A24246E19AE74EF23F076EF23F0E3
:1046E80077EF23F024802450D8B47DEF23F07FEFB8
:1046F80023F092EF23F02428D8A485EF23F087EF46
:1047080023F08FEF23F0000E176E000E186E000EC8
:10471800196E000E1A6E198E9AEF23F0000E176E9E
:10472800000E186E000E196E000E1A6E2450D8B4C2
:10473800A0EF23F0A2EF23F0AAEF23F02550D8A48E
:10474800A8EF23F0AAEF23F0B4EF23F0000E136EC6
:10475800000E146E000E156E000E166E5EEF25F03C
:10476800195013026F00CCFF2AF06F00D0FF2BF016
:104778002A50206E216A226A236A2B50266E276AE5
:10478800286A296A185014026F00CCFF2AF06F00BB
:10479800D0FF2BF02A502026000E2122222223228D
:1047A8002B502626000E27222822292217501502D0
:1047B8006F00CCFF2AF06F00D0FF2BF02A50202684
:1047C800000E2122222223222B502626000E2722E9
:1047D8002822292222C023F021C022F020C021F063
:1047E800206A175014026F00CCFF2AF06F00D0FF28
:1047F8002BF02A5020262B502122000E2222000EB8
:104808002322185013026F00CCFF2AF06F00D0FF4C
:104818002BF02A5020262B502122000E2222000E97
:10482800232222C023F021C022F020C021F0206AD8
:10483800175013026F00CCFF2AF06F00D0FF2BF047
:104848002A5020262B502122000E2222000E23223D
:10485800195014026F00CCFF2AF06F00D0FF2BF024
:104868002A5026262B502722000E2822000E292205
:10487800185015026F00CCFF2AF06F00D0FF2BF004
:104888002A5026262B502722000E2822000E2922E5
:10489800195015026F00CCFF2AF06F00D0FF2BF0E3
:1048A8002A501B6E2B501C6E1D6A1E6A1DC01EF0FE
:1048B8001CC01DF01BC01CF01B6A1B5026261C5078
:1048C80027221D5028221E50292220C01BF021C05B
:1048D8001CF022C01DF023C01EF0190E79EF24F041
:1048E800D8901E321D321C321B32E82E74EF24F091
:1048F8001B5026261C5027221D5028221E502922D4
:1049080022C023F021C022F020C021F0206A2450C8
:1049180025C01BF01C6A1B26000E1C22820E1B24BD
:104928002A6EFF0E1C202B6EAFEF24F0D89026368F
:1049380027362836293623AEA4EF24F0A6EF24F034
:10494800A7EF24F02680D890203621362236233649
:104958002A06D8A02B0628AEB4EF24F0B6EF24F030
:104968009AEF24F0000E246E23AEBDEF24F0BFEFC3
:1049780024F0E3EF24F0FF0E20141B6EFF0E211429
:104988001C6EFF0E22141D6E7F0E23141E6E1B500C
:104998001C101D101E10D8B4D4EF24F0D6EF24F04C
:1049A800DAEF24F0010E246EE3EF24F026A0DFEF07
:1049B80024F0E1EF24F0E3EF24F0D6EF24F02450C4
:1049C800D8B4E9EF24F0EBEF24F00FEF25F0010E57
:1049D8002626000E27222822292229A0F6EF24F0D5
:1049E800F8EF24F00FEF25F026C01BF027C01CF0CD
:1049F80028C01DF029C01EF01E341E321D321C3284
:104A08001B321BC026F01CC027F01DC028F01EC09A
:104A180029F02A4A2B2A2BBE1AEF25F02B5008E141
:104A28002A28D8A01AEF25F01CEF25F026EF25F04C
:104A3800000E266E000E276E800E286E7F0E296EE1
:104A480054EF25F02BBE33EF25F02B5006E12A0456
:104A5800D8B031EF25F033EF25F03FEF25F0000E09
:104A6800266E000E276E000E286E000E296E000EB0
:104A78001F6E54EF25F02AC025F0FF0E2616FF0EF4
:104A880027167F0E2816000E291625A04EEF25F0B2
:104A980050EF25F051EF25F0288ED8902530296E5B
:104AA8001F50291226C013F027C014F028C015F093
:104AB80029C016F012005150800B0001646F51504C
:104AC80051246B6F50AE6BEF25F06DEF25F06EEF54
:104AD80025F06B816B51D8B474EF25F076EF25F093
:104AE8008BEF25F06B29D8A47CEF25F07EEF25F01D
:104AF80086EF25F0000E4E6E000E4F6E000E506EC3
:104B0800000E516E508E000E516E93EF25F0000E80
:104B18004E6E000E4F6E000E506E000E516E5550C8
:104B2800800B641B555055246C6F54AE9EEF25F0D6
:104B3800A0EF25F0A1EF25F06C816C51D8B4A7EF58
:104B480025F0A9EF25F0BEEF25F06C29D8A4AFEF2A
:104B580025F0B1EF25F0B9EF25F0000E526E000EEA
:104B6800536E000E546E000E556E548E000E556E28
:104B7800C6EF25F0000E526E000E536E000E546EF6
:104B8800000E556E5250531054105510D8A4CFEF44
:104B980025F0D1EF25F0E9EF25F0000E4E6E000E5E
:104BA8004F6E000E506E000E516E800E50127F0E2A
:104BB8005112645151124EC04EF04FC04FF050C0C8
:104BC80050F051C051F02CEF27F06B51D8A4EFEF03
:104BD80025F0F1EF25F0FBEF25F0000E4E6E000EEC
:104BE8004F6E000E506E000E516E2CEF27F06C5178
:104BF8006BC056F0576A565E000E575A7F0E562401
:104C0800656F000E5720666F4EC060F04FC061F0B0
:104C180050C062F051C063F0000E4E6E000E4F6E31
:104C2800000E506E000E516E000E676F000E686F1A
:104C3800000E696F000E6A6F000E6C6F5CEF26F055
:104C48006C51D8B42AEF26F02CEF26F043EF26F06B
:104C5800D8906037613762376337D8904E364F3611
:104C6800503651366AAF3BEF26F03DEF26F03EEF67
:104C780026F04E80D8906737683769376A375250C0
:104C8800605D535061595450625955506359D8A0CA
:104C980050EF26F052EF26F05BEF26F06A8D525067
:104CA800605F5350615B5450625B5550635B6C2B83
:104CB800190E6C6562EF26F064EF26F024EF26F0FB
:104CC8006051611162116311D8B46DEF26F06FEF76
:104CD80026F087EF26F0678187EF26F0D8904E36CA
:104CE8004F36503651366AAF7CEF26F07EEF26F00D
:104CF8007FEF26F04E80D8906737683769376A3774
:104D08006507D8A0660750AE8CEF26F08EEF26F028
:104D180072EF26F0000E6C6F6AAF95EF26F097EFF2
:104D280026F0BBEF26F0FF0E6715566EFF0E6815CE
:104D3800576EFF0E6915586E7F0E6A15596E5650DC
:104D4800571058105910D8B4ACEF26F0AEEF26F033
:104D5800B2EF26F0010E6C6FBBEF26F04EA0B7EF56
:104D680026F0B9EF26F0BBEF26F0AEEF26F06C5137
:104D7800D8B4C1EF26F0C3EF26F0E7EF26F0010E16
:104D88004E26000E4F225022512251A0CEEF26F07F
:104D9800D0EF26F0E7EF26F04EC056F04FC057F0A0
:104DA80050C058F051C059F059345932583257321E
:104DB800563256C04EF057C04FF058C050F059C048
:104DC80051F0654B662B66BFF2EF26F0665108E19D
:104DD8006529D8A0F2EF26F0F4EF26F0FFEF26F0D1
:104DE800000E666F6569000E4E6E000E4F6E000E67
:104DF800506E000E516E66BF0CEF27F0665106E14B
:104E08006505D8B00AEF27F00CEF27F01AEF27F066
:104E1800000E666F000E656F000E4E6E000E4F6E30
:104E2800000E506E000E516E000E646F65C06BF080
:104E38006BA121EF27F023EF27F026EF27F0508E04
:104E480027EF27F0509ED8906B31516EDDEF25F09B
:104E580012002CC03AF02DC03BF02EC03CF02FC001
:104E68003DF031BE41EF27F0315009E1800E305C52
:104E7800D8A041EF27F043EF27F0A1EF27F03AC081
:104E880013F03BC014F03CC015F03DC016F0000E06
:104E9800176E000E186E000E196E7F0E1A6E38EC23
:104EA80023F013C03AF014C03BF015C03CF016C014
:104EB8003DF0810E3026FF0E312231BE6DEF27F016
:104EC800315009E1800E305CD8A06DEF27F06FEF0C
:104ED80027F00BEF28F03AC013F03BC014F03CC0A9
:104EE80015F03DC016F0000E176E000E186E000E7D
:104EF800196E7F0E1A6E38EC23F013C03AF014C006
:104F08003BF015C03CF016C03DF0810E3026FF0E78
:104F1800312231BE99EF27F0315009E1800E305C23
:104F2800D8A099EF27F09BEF27F00BEF28F0000EA1
:104F3800316E7F0E306E0BEF28F031AEADEF27F0FB
:104F4800820E305CFF0E3158D8B0ADEF27F0AFEFCE
:104F580027F00BEF28F03AC013F03BC014F03CC028
:104F680015F03DC016F0000E176E000E186E800E7C
:104F7800196E0C0E1A6E38EC23F013C03AF014C0F8
:104F88003BF015C03CF016C03DF0660E3026000E12
:104F9800312231AED9EF27F0820E305CFF0E315846
:104FA800D8B0D9EF27F0DBEF27F00BEF28F03AC0A5
:104FB80013F03BC014F03CC015F03DC016F0000ED5
:104FC800176E000E186E800E196E0C0E1A6E38ECE5
:104FD80023F013C03AF014C03BF015C03CF016C0E3
:104FE8003DF0660E3026000E312231AE05EF28F076
:104FF800820E305CFF0E3158D8B005EF28F007EF6D
:1050080028F00BEF28F0FF0E316E820E306E7F0E07
:105018003024326E000E3120336E346A356A170E32
:10502800D8903236333634363536E82E14EF28F039
:1050380032C036F033C037F034C038F035C039F0FC
:1050480036C013F037C014F038C015F039C016F068
:105058003AC017F03BC018F03CC019F03DC01AF038
:1050680038EC23F013C02CF014C02DF015C02EF02E
:1050780016C02FF02CC02CF02DC02DF02EC02EF015
:105088002FC02FF0120020EECBF0070EDE6AE806E4
:10509800FDE2000E176E000E186E800E196EBF0E20
:1050A8001A6EB5C013F0B6C014F0B7C015F0B8C08A
:1050B80016F038EC23F013C04EF014C04FF015C0B2
:1050C80050F016C051F0BDC052F0BEC053F0BFC082
:1050D80054F0C0C055F05FEC25F04EC0CBF04FC087
:1050E800CCF050C0CDF051C0CEF0C1C052F0C2C01B
:1050F80053F0C3C054F0C4C055F0B5C04EF0B6C0AC
:105108004FF0B7C050F0B8C051F05FEC25F04EC07A
:1051180046F04FC047F050C048F051C049F0C5C0F4
:1051280017F0C6C018F0C7C019F0C8C01AF0C1C03F
:1051380013F0C2C014F0C3C015F0C4C016F038ECA8
:1051480023F013C052F014C053F015C054F016C029
:1051580055F0B3C00AF0B4C00BF0010E096E020E90
:105168006BEC2EF009C04EF00AC04FF00BC050F0A7
:105178000CC051F05FEC25F04EC04AF04FC04BF028
:1051880050C04CF051C04DF0B3EC2FF046C0CFF0FA
:1051980047C0D0F048C0D1F049C0D2F0CBC013F01E
:1051A800CCC014F0CDC015F0CEC016F0B9C017F0C1
:1051B800BAC018F0BBC019F0BCC01AF038EC23F024
:1051C80013C0CBF014C0CCF015C0CDF016C0CEF093
:1051D800010E0001A76FB3C00AF0B4C00BF0010EB6
:1051E800096E010E6BEC2EF009C02CF00AC02DF0F0
:1051F8000BC02EF00CC02FF0CBC030F0CCC031F07B
:10520800CDC032F0CEC033F0D8EC20F02CC0A8F0DE
:105218002DC0A9F02EC0AAF02FC0ABF0C9C0ACF0C9
:10522800CAC0ADF0010E30EC2EF0CFC013F0D0C0E4
:1052380014F0D1C015F0D2C016F0B9C017F0BAC03A
:1052480018F0BBC019F0BCC01AF038EC23F013C03A
:10525800CFF014C0D0F015C0D1F016C0D2F0010EB6
:105268000001A76FB3C00AF0B4C00BF0010E096EBD
:10527800020E6BEC2EF009C02CF00AC02DF00BC00A
:105288002EF00CC02FF0CFC030F0D0C031F0D1C01C
:1052980032F0D2C033F0D8EC20F02CC0A8F02DC0EA
:1052A800A9F02EC0AAF02FC0ABF0C9C0ACF0CAC09C
:1052B800ADF0020E30EC2EF012000B6E0B50D8B48D
:1052C80068EF29F06AEF29F08CEF29F006BE71EF3C
:1052D80029F06FEF29F08CEF29F003C007F004C024
:1052E80008F005C009F006C00AF0071E081E091ECE
:1052F8000A1E072A000E082209220A2207C00DF0FA
:1053080008C00EF009C00FF00AC010F094EF29F0A1
:1053180003C00DF004C00EF005C00FF006C010F079
:105328000350041005100610D8A49DEF29F09FEF34
:1053380029F0A9EF29F0000E036E000E046E000E8E
:10534800056E000E066E3AEF2AF0960E0C6EB3EF5D
:1053580029F00C2AD89010320F320E320D32000E7E
:105368000D14076E000E0E14086E000E0F14096E51
:10537800FE0E10140A6E0750081009100A10D8A45F
:10538800C8EF29F0CAEF29F0ADEF29F0D8EF29F0DE
:105398000C2A010E0D26000E0E220F221022D89084
:1053A80010320F320E320D32000E0D14076E000E41
:1053B8000E14086E000E0F14096EFF0E10140A6EFC
:1053C8000750081009100A10D8A4EDEF29F0EFEFE4
:1053D80029F0CCEF29F0F7EF29F00C06D8900D361C
:1053E8000E360F3610360FBEFCEF29F0FEEF29F00F
:1053F80006EF2AF0020E0C6004EF2AF006EF2AF0FE
:10540800F1EF29F00CB00BEF2AF00DEF2AF00EEFB8
:105418002AF00F9ED8900C320CC007F0086A096A6F
:105428000A6A07C00AF0096A086A076A07500D1273
:1054380008500E1209500F120A5010120B50D8B40F
:1054480028EF2AF02AEF2AF032EF2AF006BE31EFD1
:105458002AF02FEF2AF032EF2AF0108E0DC003F059
:105468000EC004F00FC005F010C006F012000001D5
:1054780020EE01F0B551D926B651DA22DF500B6E75
:10548800B7C00CF0B8C00DF06000CFF2D9FF6000D3
:10549800D3F2DAFFDF502AEC30F0B7C003F0B8C01F
:1054A80004F00FEC2FF0000E0001BF6F010EBE6F6D
:1054B800F4EF2AF0000EC16F010EC06FDAEF2AF088
:1054C800000EBD6F010EBC6FC0EF2AF0C0C0A7F080
:1054D800B7C00AF0B8C00BF0C0C009F0BE516BEC01
:1054E8002EF009C02CF00AC02DF00BC02EF00CC015
:1054F8002FF0B5C00AF0B6C00BF0C0C009F000012B
:10550800BC516BEC2EF009C017F00AC018F00BC0A4
:1055180019F00CC01AF0B3C00AF0B4C00BF0BCC04C
:1055280009F00001BE516BEC2EF009C013F00AC05F
:1055380014F00BC015F00CC016F038EC23F013C0B3
:1055480030F014C031F015C032F016C033F0D8EC8A
:1055580020F02CC0A8F02DC0A9F02EC0AAF02FC0B2
:10556800ABF0B7C0ACF0B8C0ADF00001BE5130EC44
:105578002EF00001BC4BBD2B20EE01F0B351D92613
:10558800B451DA22DF50B96FBA6BBC51B95DBA5168
:10559800800ABB6FBD51800ABB59D8B0D6EF2AF03C
:1055A800D8EF2AF06AEF2AF0C04BC12B20EE01F0A9
:1055B800B751D926B851DA22DF50B96FBA6BC0514A
:1055C800B95DBA51800ABB6FC151800ABB59D8B0C6
:1055D800F0EF2AF0F2EF2AF064EF2AF0BE4BBF2B6F
:1055E8006000DFF2D9FF6000E3F2DAFFDF50B96F45
:1055F800BA6BBE51B95DBA51800ABB6FBF51800A00
:10560800BB59D8B00AEF2BF00CEF2BF05EEF2AF065
:10561800120020EE04F00350D9260450DA22DF509D
:10562800D8B419EF2BF01BEF2BF082EF2BF00A0EFA
:105638000518D8A422EF2BF024EF2BF02DEF2BF038
:1056480020EE03F00350D9260450DA22DF6AD0EFA7
:105658002BF0050E0518D8A434EF2BF036EF2BF0FD
:1056680073EF2BF020EE02F00350D9260450DA2213
:1056780010EE03F00350E1260450E222DE50E65C0F
:10568800D8A049EF2BF04BEF2BF04EEF2BF0020E8A
:10569800D1EF2BF020EE03F00350D9260450DA2284
:1056A800DF50066E60000FF0D9FF600013F0DAFFDC
:1056B8006F0078FF07F06F0074FF08F006500724AA
:1056C800D96E000E0820DA6E050EDF6E20EE03F0AC
:1056D8000350D9260450DA22DF2AD0EF2BF00B0E24
:1056E8000518D8A47AEF2BF07CEF2BF07FEF2BF086
:1056F800000ED1EF2BF0030ED1EF2BF0050E05189D
:10570800D8A489EF2BF08BEF2BF095EF2BF020EE40
:1057180004F00350D9260450DA22010EDF6ED0EFD0
:105728002BF020EE02F00350D9260450DA2210EEB6
:1057380003F00350E1260450E222DE50E65CD8A0D4
:10574800A8EF2BF0AAEF2BF0ACEF2BF04BEF2BF0E0
:1057580020EE03F00350D9260450DA22DF50066EFB
:1057680060000FF0D9FF600013F0DAFF6F0078FFD8
:1057780007F06F0074FF08F006500724D96E000E7A
:105788000820DA6E600017F0DFFF20EE03F0035008
:10579800D9260450DA22DF2A010E1200020E0B6EFF
:1057A800B5C00CF0B6C00DF0020E2AEC30F0020EB7
:1057B800096EB3C00AF0B4C00BF0010E6BEC2EF00A
:1057C80009C0B7F00AC0B8F00BC0B9F00CC0BAF005
:1057D800010E0001A76FB7C0A8F0B8C0A9F0B9C002
:1057E800AAF0BAC0ABF0B5C0ACF0B6C0ADF0020ECE
:1057F80030EC2EF0010E096EB3C00AF0B4C00BF005
:10580800010E6BEC2EF009C0BBF00AC0BCF00BC057
:10581800BDF00CC0BEF0010E0001A76FBBC0A8F020
:10582800BCC0A9F0BDC0AAF0BEC0ABF0B5C0ACF01A
:10583800B6C0ADF0010E30EC2EF0010E096EB3C00B
:105848000AF0B4C00BF0020E6BEC2EF009C0BFF0EA
:105858000AC0C0F00BC0C1F00CC0C2F0020E0001BB
:10586800A76FBFC0A8F0C0C0A9F0C1C0AAF0C2C04D
:10587800ABF0B5C0ACF0B6C0ADF0010E30EC2EF018
:10588800020E096EB3C00AF0B4C00BF0020E6BEC46
:105898002EF009C0C3F00AC0C4F00BC0C5F00CC09C
:1058A800C6F0020E0001A76FC3C0A8F0C4C0A9F0DB
:1058B800C5C0AAF0C6C0ABF0B5C0ACF0B6C0ADF07C
:1058C800020E30EC2EF012003E343F34456E455047
:1058D800D8A471EF2CF073EF2CF07DEF2CF0000EB4
:1058E8003C6E000E3D6E000E3E6E000E3F6EEAEFFF
:1058F8002CF03CC040F03DC041F03EC042F03FC0FB
:1059080043F0200E8DEF2CF0D890433242324132D2
:105918004032E82E88EF2CF04050446E3E8EFF0E49
:105928003C16FF0E3D16FF0E3E16000E3F16960E55
:10593800455E45BEA4EF2CF0A2EF2CF0BAEF2CF098
:105948004550800A970FD8B0ACEF2CF0AEEF2CF092
:10595800B0EF2CF073EF2CF0D8903F323E323D324E
:105968003C32453EB0EF2CF0D2EF2CF01F0E4564D0
:10597800C0EF2CF0C2EF2CF0CAEF2CF073EF2CF034
:10598800D8903C363D363E363F3645064550D8A47D
:10599800D0EF2CF0D2EF2CF0C4EF2CF04450D8B458
:1059A800D8EF2CF0DAEF2CF0E2EF2CF03F1E3E1E81
:1059B8003D1E3C6C000E3D223E223F223CC03CF086
:1059C8003DC03DF03EC03EF03FC03FF01200000E2B
:1059D8004E14566E000E4F14576E800E5014586EAB
:1059E8007F0E5114596E5650571058105910D8A49C
:1059F80000EF2DF002EF2DF00AEF2DF0000E4E6EA5
:105A0800000E4F6E000E506E000E516E000E5214B6
:105A1800566E000E5314576E800E5414586E7F0E37
:105A28005514596E5650571058105910D8A41FEFD6
:105A38002DF021EF2DF029EF2DF0000E526E000E03
:105A4800536E000E546E000E556E51AE2EEF2DF0B3
:105A580030EF2DF039EF2DF04E6C4F1ED8B04F2A95
:105A6800501ED8B0502A800E515655AE3EEF2DF03C
:105A780040EF2DF049EF2DF0526C531ED8B0532A49
:105A8800541ED8B0542A800E5556000E4E1A000ED9
:105A98004F1A000E501A800E511A000E521A000E9C
:105AA800531A000E541A800E551A52504E5C535019
:105AB8004F585450505855505158D8B066EF2DF0A3
:105AC80068EF2DF06BEF2DF0D8906CEF2DF0D880AB
:105AD80012006DC03CF06EC03DF06FC03EF070C06B
