:04000000FEEF7FF0A0
:101000000000000000DCCFD1350000000000C0155A
:101010003F0000003F000000BF6042A20D70A5EC41
:10102000363BAAB83F4F38763F3CAA38338CBEBF18
:10103000350072313F1872313F4CBB31330EEADD5F
:10104000B555B38A38610B36BBABAA2A3E42F15381
:101050003E55326C3E05A38B3EABAAAA3EB76DDB74
:101060003E9A99193F6042A20DCAF2497100008070
:101070004B155235BB8FAA2A3E8EBEBF350072314A
:101080003F0000803F0000C03F00AAB83FC623F6E3
:0B109000B80040763F3BAAB83F0000CC
:10109C0084C0B8F185C0B9F186C0BAF187C0BBF184
:1010AC00B8C160F1B9C161F1BAC162F1BBC163F100
:1010BC0088C0B8F189C0B9F18AC0BAF18BC0BBF154
:1010CC00B8C184F1B9C185F1BAC186F1BBC187F150
:1010DC00FF0E01016015A86FFF0E6115A96FFF0EC1
:1010EC006215AA6F7F0E6315AB6FFF0E8415986F98
:1010FC00FF0E8515996FFF0E86159A6F7F0E87155B
:10110C009B6F985199119A119B11D8A490EF08F0EC
:10111C0092EF08F09DEF08F0000E0001846F000EB6
:10112C00856F800E866F3F0E876F7EEF1DF0800EF1
:10113C00621909E13F0E631960116111D8A4A9EF7E
:10114C0008F0ABEF08F0B6EF08F0000E0001846F6A
:10115C00000E856F800E866F3F0E876F7EEF1DF041
:10116C00ABBFC7EF08F0A805000EA959800EAA590D
:10117C007F0EAB59D8B0C5EF08F0C7EF08F0D8EF29
:10118C0008F09BBFD6EF08F09805000E9959800E19
:10119C009A597F0E9B59D8A0D6EF08F0D8EF08F0DB
:1011AC00F4EF08F084C02AF085C02BF086C02CF038
:1011BC0087C02DF088C02EF089C02FF08AC030F087
:1011CC008BC031F04BEC2AF02AC084F02BC085F098
:1011DC002CC086F02DC087F07EEF1DF0000E506FF6
:1011EC00000E516F000E526F000E536F63BF03EF72
:1011FC0009F001EF09F0CFEF09F09BBF0FEF09F0F9
:10120C00800E9A5D4B0E9B59D8A00FEF09F011EF91
:10121C0009F01BEF09F0020E506F000E516F000E1B
:10122C00526F000E536FCFEF09F09BBF27EF09F001
:10123C00800E9A5D3F0E9B59D8A027EF09F029EF3D
:10124C0009F0CFEF09F0170E00018C6F98C18DF0EB
:10125C0099C18EF09AC18FF09BC190F08C6739EFD9
:10126C0009F041EF09F0903590338F338E338D3385
:10127C008C2F34EF09F0810E00018D250101A06F38
:10128C00FF0E00018E210101A16FFF0E00018F21C5
:10129C000101A26FFF0E000190210101A36FA0516B
:1012AC00170800018C6F98C18DF099C18EF09AC10E
:1012BC008FF09BC190F08C6766EF09F06EEF09F030
:1012CC00903590338F338E338D338C2F61EF09F043
:1012DC008DC0ACF18EC0ADF18FC0AEF190C0AFF14E
:1012EC000101A051170800018C6FACC18DF0ADC18C
:1012FC008EF0AEC18FF0AFC190F08C2B8BEF09F05C
:10130C00D8908D378E378F3790378C2F86EF09F02A
:10131C000101985100018D1913E10101995100014E
:10132C008E190EE101019A5100018F1909E1010199
:10133C009B5100019019D8A4A6EF09F0A8EF09F071
:10134C00CFEF09F0010E0101AC1500018C6F000EFE
:10135C000101AD1500018D6F000E0101AE150001EC
:10136C008E6F000E0101AF1500018F6F8C510208BA
:10137C000101506F000E00018D550101516F000EDF
:10138C0000018E550101526F000E00018F550101B5
:10139C00536F800E01019A1909E17F0E9B19981168
:1013AC009911D8A4DCEF09F0DEEF09F04AEF0AF04E
:1013BC00800EAA1909E13F0EAB19A811A911D8A4E6
:1013CC00EAEF09F0ECEF09F0F7EF09F0000E00017D
:1013DC00846F000E856F800E866F3F0E876F7EEFD9
:1013EC001DF0ABBF06EF0AF0A805000EA959800E40
:1013FC00AA593F0EAB59D8A006EF0AF008EF0AF035
:10140C0024EF0AF087BF0FEF0AF00DEF0AF01AEF86
:10141C000AF0000E0001846F000E856F000E866FBF
:10142C00000E876F7EEF1DF088C084F089C085F0B8
:10143C008AC086F08BC087F07EEF1DF087BF2BEF44
:10144C000AF029EF0AF03FEF0AF088C001F089C0DA
:10145C0002F08AC003F08BC004F038EC38F001C005
:10146C0084F002C085F003C086F004C087F07EEFE4
:10147C001DF0000E0001846F000E856F000E866F4C
:10148C00000E876F7EEF1DF0800E9A1909E13F0E5A
:10149C009B1998119911D8A456EF0AF058EF0AF03D
:1014AC0085EF0AF087BF5FEF0AF05DEF0AF07BEF84
:1014BC000AF0000E4A6E000E4B6E800E4C6E3F0E04
:1014CC004D6E84C04EF085C04FF086C050F087C082
:1014DC0051F0D2EC2EF04AC084F04BC085F04CC0D9
:1014EC0086F04DC087F07EEF1DF084C084F085C07F
:1014FC0085F086C086F087C087F07EEF1DF0400E29
:10150C008719841185118611D8A48FEF0AF091EFF9
:10151C000AF0ADEF0AF084C011F085C012F086C05D
:10152C0013F087C014F084C015F085C016F086C087
:10153C0017F087C018F0ABEC2CF011C084F012C07F
:10154C0085F013C086F014C087F07EEF1DF03F0EBF
:10155C008719841185118611D8A4B7EF0AF0B9EF59
:10156C000AF0D4EF0AF063BFBEEF0AF0C0EF0AF046
:10157C00D4EF0AF084C056F085C057F086C058F0FE
:10158C0087C059F0EAEC27F056C084F057C085F0BC
:10159C0058C086F059C087F07EEF1DF084C001F072
:1015AC0085C002F086C003F087C004F054EC38F01C
:1015BC0001C070F102C071F103C072F104C073F18B
:1015CC00800E0101AA190BE17F0EAB19A811A9110C
:1015DC00D8B4F3EF0AF0F5EF0AF00EEF0BF0A851C8
:1015EC00A911AA11AB11D8B4FEEF0AF000EF0BF061
:1015FC000EEF0BF0800EAA1909E13F0EAB19A811E2
:10160C00A911D8A40CEF0BF00EEF0BF0D9EF0BF0E7
:10161C0070C1B4F171C1B5F172C1B6F173C1B7F15A
:10162C0087BF1DEF0BF01BEF0BF037EF0BF0000E2D
:10163C004A6E000E4B6E800E4C6E3F0E4D6EB4C15A
:10164C004EF0B5C14FF0B6C150F0B7C151F0D2EC6D
:10165C002EF04AC0B4F14BC0B5F14CC0B6F14DC040
:10166C00B7F1010163BF3FEF0BF03DEF0BF0CFEF94
:10167C000BF0000EA82500018C6F000E0101A921B2
:10168C0000018D6F800E0101AA2100018E6FC00E2A
:10169C000101AB2100018F6F0101505100018C1130
:1016AC00906F0101515100018D11916F0101525147
:1016BC0000018E11926F0101535100018F11936F34
:1016CC009051911192119311D8A46FEF0BF071EF0F
:1016DC000BF0B1EF0BF0B4C146F0B5C147F0B6C199
:1016EC0048F0B7C149F0B4C142F0B5C143F0B6C13E
:1016FC0044F0B7C145F015EC38F042C04AF043C095
:10170C004BF044C04CF045C04DF0B4C146F0B5C1EF
:10171C0047F0B6C148F0B7C149F0B4C142F0B5C109
:10172C0043F0B6C144F0B7C145F015EC38F042C0F7
:10173C004EF043C04FF044C050F045C051F0D2ECD5
:10174C002EF04AC0B4F14BC0B5F14CC0B6F14DC04F
:10175C00B7F1CFEF0BF0010150055111521153119C
:10176C00D8A4BBEF0BF0BDEF0BF0CFEF0BF0B4C177
:10177C0001F0B5C102F0B6C103F0B7C104F038EC0A
:10178C0038F001C0B4F102C0B5F103C0B6F104C029
:10179C00B7F1B4C184F0B5C185F0B6C186F0B7C15C
:1017AC0087F07EEF1DF0000E886F000E896F800EA3
:1017BC008A6F3F0E8B6F63BFE8EF0BF0E6EF0BF019
:1017CC0046EF0CF05051511152115311D8A4F1EFB6
:1017DC000BF0F3EF0BF033EF0CF084C046F085C048
:1017EC0047F086C048F087C049F084C042F085C0FD
:1017FC0043F086C044F087C045F015EC38F042C089
:10180C004AF043C04BF044C04CF045C04DF084C08E
:10181C0046F085C047F086C048F087C049F084C0C8
:10182C0042F085C043F086C044F087C045F015EC0B
:10183C0038F042C04EF043C04FF044C050F045C0A9
:10184C0051F0D2EC2EF04AC084F04BC085F04CC065
:10185C0086F04DC087F07EEF1DF0500551115211EE
:10186C005311D8A43CEF0CF03EEF0CF046EF0CF00B
:10187C00000E886F000E896F800E8A6FBF0E8B6F03
:10188C009BBF55EF0CF09805000E9959000E9A5914
:10189C004D0E9B59D8A055EF0CF057EF0CF0DCEF28
:1018AC000EF0ABBF69EF0CF0F80EA85DFF0EA95956
:1018BC007F0EAA593F0EAB59D8B067EF0CF069EF09
:1018CC000CF0DCEF0CF087BF6EEF0CF070EF0CF04F
:1018DC00A6EF0CF0600E156E420E166EA20E176E71
:1018EC000D0E186E88C111F089C112F08AC113F067
:1018FC008BC114F0ABEC2CF011C0A4F112C0A5F10B
:10190C0013C0A6F114C0A7F1A4C111F0A5C112F027
:10191C00A6C113F0A7C114F0600E156E420E166E20
:10192C00A20E176E0D0E186EABEC2CF011C084F0DD
:10193C0012C085F013C086F014C087F07EEF1DF046
:10194C00CA0E156EF20E166E490E176E710E186ECB
:10195C0088C111F089C112F08AC113F08BC114F047
:10196C00ABEC2CF011C0A4F112C0A5F113C0A6F180
:10197C0014C0A7F1A4C111F0A5C112F0A6C113F0B7
:10198C00A7C114F0CA0E156EF20E166E490E176E24
:10199C00710E186EABEC2CF011C084F012C085F0F7
:1019AC0013C086F014C087F07EEF1DF0ABBFECEFD8
:1019BC000CF0080EA85D000EA959800EAA593F0E16
:1019CC00AB59D8A0ECEF0CF0EEEF0CF069EF0DF08A
:1019DC0087BFFDEF0CF087518611851106E1840558
:1019EC00D8B0FBEF0CF0FDEF0CF033EF0DF0600E08
:1019FC00156E420E166EA20E176E0D0E186E88C165
:101A0C0011F089C112F08AC113F08BC114F0ABEC48
:101A1C002CF011C0A4F112C0A5F113C0A6F114C092
:101A2C00A7F1A4C111F0A5C112F0A6C113F0A7C172
:101A3C0014F0600E156E420E166EA20E176E0D0E81
:101A4C00186EABEC2CF011C084F012C085F013C0F2
:101A5C0086F014C087F07EEF1DF0CA0E156EF20EE4
:101A6C00166E490E176E710E186E88C111F089C171
:101A7C0012F08AC113F08BC114F0ABEC2CF011C036
:101A8C00A4F112C0A5F113C0A6F114C0A7F1A4C112
:101A9C0011F0A5C112F0A6C113F0A7C114F0CA0E23
:101AAC00156EF20E166E490E176E710E186EABECAB
:101ABC002CF011C084F012C085F013C086F014C055
:101ACC0087F07EEF1DF070C12AF071C12BF072C14E
:101ADC002CF073C12DF0000E2E6E000E2F6E800EAA
:101AEC00306EBF0E316E4BEC2AF02AC0B0F12BC019
:101AFC00B1F12CC0B2F12DC0B3F1000E156E000E79
:101B0C00166E800E176E3E0E186EB0C111F0B1C17C
:101B1C0012F0B2C113F0B3C114F0ABEC2CF011C045
:101B2C0046F012C047F013C048F014C049F0AB0E99
:101B3C00426EAA0E436EAA0E446E3E0E456E15EC16
:101B4C0038F042C0A4F143C0A5F144C0A6F145C091
:101B5C00A7F1B0C115F0B1C116F0B2C117F0B3C105
:101B6C0018F0B0C111F0B1C112F0B2C113F0B3C191
:101B7C0014F0ABEC2CF011C054F112C055F113C0A1
:101B8C0056F114C057F1B0C115F0B1C116F0B2C185
:101B9C0017F0B3C118F0A4C111F0A5C112F0A6C181
:101BAC0013F0A7C114F0ABEC2CF011C046F012C02E
:101BBC0047F013C048F014C049F0000E426E000EFE
:101BCC00436E000E446E3F0E456E15EC38F042C06D
:101BDC0048F143C049F144C04AF145C04BF154C1EE
:101BEC0011F055C112F056C113F057C114F048C191
:101BFC0015F049C116F04AC117F04BC118F0ABEC07
:101C0C002CF011C044F112C045F113C046F114C0C0
:101C1C0047F1B0C111F0B1C112F0B2C113F0B3C1B0
:101C2C0014F0000E156EAA0E166EB80E176E3F0E3F
:101C3C00186EABEC2CF011C074F112C075F113C01E
:101C4C0076F114C077F1700E156EA50E166EEC0EB3
:101C5C00176E360E186EB0C111F0B1C112F0B2C1D0
:101C6C0013F0B3C114F0ABEC2CF011C042F012C065
:101C7C0043F013C044F014C045F03B0E156EAA0E91
:101C8C00166EB80E176E3F0E186E44C111F045C19A
:101C9C0012F046C113F047C114F0ABEC2CF011C09C
:101CAC0046F012C047F013C048F014C049F015ECD0
:101CBC0038F042C078F143C079F144C07AF145C0A4
:101CCC007BF174C12AF075C12BF076C12CF077C171
:101CDC002DF078C12EF079C12FF07AC130F07BC194
:101CEC0031F04BEC2AF02AC080F12BC081F12CC0D2
:101CFC0082F12DC083F180C1B8F181C1B9F182C1EB
:101D0C00BAF183C1BBF1B8C190F1B9C191F1BAC1BB
:101D1C0092F1BBC193F1000E01019015B86FF00E5A
:101D2C009115B96FFF0E9215BA6FFF0E9315BB6F1D
:101D3C00B8C180F1B9C181F1BAC182F1BBC183F1E3
:101D4C0074C146F075C147F076C148F077C149F0CF
:101D5C0080C142F081C143F082C144F083C145F09F
:101D6C0015EC38F042C094F143C095F144C096F1A3
:101D7C0045C097F178C142F079C143F07AC144F083
:101D8C007BC145F094C146F095C147F096C148F02F
:101D9C0097C149F015EC38F042C01CF143C01DF15D
:101DAC0044C01EF145C01FF174EF16F0000E7C6F9D
:101DBC00000E7D6F000E7E6F000E7F6FABBFF2EFDB
:101DCC000EF0AB5107E1800EAA5DD8B0F0EF0EF02B
:101DDC00F2EF0EF025EF0FF070C111F071C112F09F
:101DEC0072C113F073C114F0000E156E000E166E56
:101DFC00800E176E4B0E186EABEC2CF011C070F100
:101E0C0012C071F113C072F114C073F1E80E01012C
:101E1C007C27FF0E7D23FF0E7E23FF0E7F2370C1D8
:101E2C00B8F171C1B9F172C1BAF173C1BBF1B8C1EA
:101E3C00A8F1B9C1A9F1BAC1AAF1BBC1ABF1170E96
:101E4C0000018C6FA8C18DF0A9C18EF0AAC18FF0D2
:101E5C00ABC190F08C6735EF0FF03DEF0FF0903584
:101E6C0090338F338E338D338C2F30EF0FF0810EF8
:101E7C0000018D25916FFF0E8E21926FFF0E8F2129
:101E8C00936FFF0E9021946F915101017C270001FB
:101E9C00925101017D230001935101017E23000128
:101EAC00945101017F23FF0EA815AC6FFF0EA915ED
:101EBC00AD6F7F0EAA15AE6F000EAB15AF6F000E97
:101ECC00AC11A86F000EAD11A96F800EAE11AA6FE8
:101EDC003F0EAF11AB6FAFBF83EF0FF0AF510BE104
:101EEC00720EAC5DC40EAD591C0EAE59D8B081EF5C
:101EFC000FF083EF0FF08DEF0FF0000EA06F000EC0
:101F0C00A16F000EA26F000EA36FBFEF0FF0AFBF5B
:101F1C009FEF0FF0AF510BE1D70EAC5DB30EAD5987
:101F2C005D0EAE59D8B09DEF0FF09FEF0FF0A9EFFB
:101F3C000FF0010EA06F000EA16F000EA26F000E2D
:101F4C00A36FBFEF0FF0000EA06F000EA16F000E7D
:101F5C00A26F000EA36F010E7C27000E7D237E2343
:101F6C007F23000EA827000EA923800EAA23FF0EA4
:101F7C00AB23A8C1B8F1A9C1B9F1AAC1BAF1ABC1DF
:101F8C00BBF1B8C170F1B9C171F1BAC172F1BBC189
:101F9C0073F170C142F071C143F072C144F073C16E
:101FAC0045F0A0C18CF0A1C18DF00001D8908C3708
:101FBC008D37D8908C378D37810E8C25F66E100EA0
:101FCC008D21F76EF86A000EF82209006F00D4FF1D
:101FDC0046F009006F00D4FF47F009006F00D4FFF2
:101FEC0048F00A006F00D4FF49F015EC38F042C0FD
:101FFC0074F143C075F144C076F145C077F1000E21
:10200C004A6E000E4B6E800E4C6E3F0E4D6E70C1C4
:10201C002EF071C12FF072C130F073C131F0A0C13C
:10202C008CF0A1C18DF00001D8908C378D37D890F1
:10203C008C378D37810E8C25F66E100E8D21F76E38
:10204C00F86A000EF82209006F00D4FF2AF009008C
:10205C006F00D4FF2BF009006F00D4FF2CF00A00A6
:10206C006F00D4FF2DF04BEC2AF02AC04EF02BC0A1
:10207C004FF02CC050F02DC051F0D2EC2EF04AC0D5
:10208C0078F14BC079F14CC07AF14DC07BF174C141
:10209C0011F075C112F076C113F077C114F078C14C
:1020AC0015F079C116F07AC117F07BC118F0ABECC2
:1020BC002CF011C05CF112C05DF113C05EF114C0C4
:1020CC005FF15CC16CF15DC16DF15EC16EF15FC120
:1020DC006FF16CC1B8F16DC1B9F16EC1BAF16FC1DC
:1020EC00BBF1B8C190F1B9C191F1BAC192F1BBC1C8
:1020FC0093F1000E01019015B86FF00E9115B96FA8
:10210C00FF0E9215BA6FFF0E9315BB6FB8C16CF131
:10211C00B9C16DF1BAC16EF1BBC16FF1A8C18CF040
:10212C00A9C18DF0AAC18EF0ABC18FF000018F3523
:10213C008F338E338D338C33000E8C15906FF00EE5
:10214C008D15916FFF0E8E15926FFF0E8F15936F7D
:10215C00000E90110101906F000E00019111010110
:10216C00916F000E000192110101926F200E00017F
:10217C0093110101936FA0C18CF0A1C18DF0A2C18C
:10218C008EF0A3C18FF0150ED89000018C378D37CF
:10219C008E378F37E82ECAEF10F0010190510001F5
:1021AC008C25906F0101915100018D21916F0101DE
:1021BC00925100018E21926F0101935100018F21E8
:1021CC00936F000E90250101B86F000E0001912154
:1021DC000101B96F400E000192210101BA6F000E8E
:1021EC00000193210101BB6FB8C168F1B9C169F15C
:1021FC00BAC16AF1BBC16BF1A0C18CF0A1C18DF069
:10220C000001D8908C378D37D8908C378D37810E54
:10221C008C25F66E100E8D21F76EF86A000EF822E2
:10222C0009006F00D4FF46F009006F00D4FF47F09F
:10223C0009006F00D4FF48F00A006F00D4FF49F08A
:10224C0068C142F069C143F06AC144F06BC145F00A
:10225C0015EC38F042C094F143C095F144C096F1AE
:10226C0045C097F170C142F071C143F072C144F0A6
:10227C0073C145F094C146F095C147F096C148F042
:10228C0097C149F015EC38F042C034F143C035F138
:10229C0044C036F145C037F168C115F069C116F07C
:1022AC006AC117F06BC118F06CC111F06DC112F05E
:1022BC006EC113F06FC114F0ABEC2CF011C046F0F2
:1022CC0012C047F013C048F014C049F074C142F07A
:1022DC0075C143F076C144F077C145F015EC38F088
:1022EC0042C094F143C095F144C096F145C097F1BA
:1022FC0034C115F035C116F036C117F037C118F0DE
:10230C006CC111F06DC112F06EC113F06FC114F0FD
:10231C00ABEC2CF011C046F012C047F013C048F0E3
:10232C0014C049F094C142F095C143F096C144F0F9
:10233C0097C145F015EC38F042C054F143C055F14B
:10234C0044C056F145C057F154C111F055C112F0BB
:10235C0056C113F057C114F078C115F079C116F0BD
:10236C007AC117F07BC118F0ABEC2CF011C030F136
:10237C0012C031F113C032F114C033F15CC111F051
:10238C005DC112F05EC113F05FC114F05CC115F0B9
:10239C005DC116F05EC117F05FC118F0ABEC2CF00C
:1023AC0011C08CF112C08DF113C08EF114C08FF1DD
:1023BC00550E2E6E320E2F6E6C0E306E3E0E316E32
:1023CC00420E156EF10E166E530E176E3E0E186EF3
:1023DC008CC111F08DC112F08EC113F08FC114F0AD
:1023EC00ABEC2CF011C02AF012C02BF013C02CF067
:1023FC0014C02DF04BEC2AF02AC0A4F12BC0A5F18F
:10240C002CC0A6F12DC0A7F1050E2E6EA30E2F6EBB
:10241C008B0E306E3E0E316E8CC115F08DC116F0E8
:10242C008EC117F08FC118F0A4C111F0A5C112F024
:10243C00A6C113F0A7C114F0ABEC2CF011C02AF01C
:10244C0012C02BF013C02CF014C02DF04BEC2AF062
:10245C002AC054F12BC055F12CC056F12DC057F1A8
:10246C00AB0E2E6EAA0E2F6EAA0E306E3E0E316E75
:10247C008CC115F08DC116F08EC117F08FC118F0FC
:10248C0054C111F055C112F056C113F057C114F0DC
:10249C00ABEC2CF011C02AF012C02BF013C02CF0B6
:1024AC0014C02DF04BEC2AF02AC048F12BC049F196
:1024BC002CC04AF12DC04BF1B70E2E6E6D0E2F6E47
:1024CC00DB0E306E3E0E316E8CC115F08DC116F0E8
:1024DC008EC117F08FC118F048C111F049C112F02C
:1024EC004AC113F04BC114F0ABEC2CF011C02AF024
:1024FC0012C02BF013C02CF014C02DF04BEC2AF0B2
:10250C002AC038F12BC039F12CC03AF12DC03BF167
:10251C009A0E2E6E990E2F6E190E306E3F0E316E76
:10252C008CC115F08DC116F08EC117F08FC118F04B
:10253C0038C111F039C112F03AC113F03BC114F09B
:10254C00ABEC2CF011C02AF012C02BF013C02CF005
:10255C0014C02DF04BEC2AF02AC000F12BC001F175
:10256C002CC002F12DC003F18CC115F08DC116F0F9
:10257C008EC117F08FC118F08CC111F08DC112F003
:10258C008EC113F08FC114F0ABEC2CF011C004F120
:10259C0012C005F113C006F114C007F100C111F00F
:1025AC0001C112F002C113F003C114F004C115F003
:1025BC0005C116F006C117F007C118F0ABEC2CF0F2
:1025CC0011C04CF112C04DF113C04EF114C04FF1BB
:1025DC0030C115F031C116F032C117F033C118F00B
:1025EC005CC12EF05DC12FF05EC130F05FC131F0E7
:1025FC006CC12AF06DC12BF06EC12CF06FC12DF0A7
:10260C004BEC2AF02AC011F02BC012F02CC013F0A6
:10261C002DC014F0ABEC2CF011C058F112C059F1D4
:10262C0013C05AF114C05BF14CC12AF04DC12BF010
:10263C004EC12CF04FC12DF058C12EF059C12FF0C6
:10264C005AC130F05BC131F04BEC2AF02AC04CF18E
:10265C002BC04DF12CC04EF12DC04FF16CC111F0BF
:10266C006DC112F06EC113F06FC114F06CC115F096
:10267C006DC116F06EC117F06FC118F0ABEC2CF0F9
:10268C0011C08CF112C08DF113C08EF114C08FF1FA
:10269C00000E2E6E000E2F6E400E306E400E316E00
:1026AC008CC12AF08DC12BF08EC12CF08FC12DF076
:1026BC004BEC2AF02AC058F12BC059F12CC05AF11E
:1026CC002DC05BF158C12AF059C12BF05AC12CF026
:1026DC005BC12DF04CC12EF04DC12FF04EC130F02E
:1026EC004FC131F04BEC2AF02AC068F12BC069F1D4
:1026FC002CC06AF12DC06BF168C1B8F169C1B9F198
:10270C006AC1BAF16BC1BBF1B8C190F1B9C191F119
:10271C00BAC192F1BBC193F1000E01019015B86FD3
:10272C00F00E9115B96FFF0E9215BA6FFF0E93153F
:10273C00BB6FB8C168F1B9C169F1BAC16AF1BBC16B
:10274C006BF1000E2E6E000E2F6E400E306EC00E12
:10275C00316E68C12AF069C12BF06AC12CF06BC1D3
:10276C002DF04BEC2AF02AC03CF12BC03DF12CC0D3
:10277C003EF12DC03FF18CC146F08DC147F08EC1AA
:10278C0048F08FC149F03CC142F03DC143F03EC11D
:10279C0044F03FC145F015EC38F042C040F143C065
:1027AC0041F144C042F145C043F14CC142F04DC12E
:1027BC0043F04EC144F04FC145F040C146F041C119
:1027CC0047F042C148F043C149F015EC38F042C023
:1027DC0034F143C035F144C036F145C037F16CC11A
:1027EC0011F06DC112F06EC113F06FC114F068C11D
:1027FC0015F069C116F06AC117F06BC118F0ABEC9B
:10280C002CF011C074F112C075F113C076F114C024
:10281C0077F168C115F069C116F06AC117F06BC188
:10282C0018F030C111F031C112F032C113F033C1C4
:10283C0014F0ABEC2CF011C02AF012C02BF013C02A
:10284C002CF014C02DF05CC115F05DC116F05EC10A
:10285C0017F05FC118F034C111F035C112F036C158
:10286C0013F037C114F0ABEC2CF011C02EF012C0E9
:10287C002FF013C030F014C031F04BEC2AF02AC00A
:10288C0078F12BC079F12CC07AF12DC07BF174C199
:10289C002AF075C12BF076C12CF077C12DF078C1E0
:1028AC002EF079C12FF07AC130F07BC131F04BECB6
:1028BC002AF02AC09CF12BC09DF12CC09EF12DC09A
:1028CC009FF19CC1B8F19DC1B9F19EC1BAF19FC1F4
:1028DC00BBF1B8C190F1B9C191F1BAC192F1BBC1D0
:1028EC0093F1000E01019015B86FF00E9115B96FB0
:1028FC00FF0E9215BA6FFF0E9315BB6FB8C19CF10A
:10290C00B9C19DF1BAC19EF1BBC19FF174C146F032
:10291C0075C147F076C148F077C149F09CC142F0CF
:10292C009DC143F09EC144F09FC145F015EC38F0B9
:10293C0042C094F143C095F144C096F145C097F163
:10294C0078C142F079C143F07AC144F07BC145F0C3
:10295C0094C146F095C147F096C148F097C149F033
:10296C0015EC38F042C064F143C065F144C066F127
:10297C0045C067F19CC111F09DC112F09EC113F0CE
:10298C009FC114F0000E156E400E166E760E176E6B
:10299C003F0E186EABEC2CF011C020F112C021F1DF
:1029AC0013C022F114C023F14F0E156E380E166EA3
:1029BC00760E176E3F0E186E64C111F065C112F0E1
:1029CC0066C113F067C114F0ABEC2CF011C02EF003
:1029DC0012C02FF013C030F014C031F0C60E156EBB
:1029EC00230E166EF60E176EB80E186E9CC111F0F3
:1029FC009DC112F09EC113F09FC114F0ABEC2CF0F2
:102A0C0011C02AF012C02BF013C02CF014C02DF002
:102A1C004BEC2AF02AC058F12BC059F12CC05AF1BA
:102A2C002DC05BF158C12AF059C12BF05AC12CF0C2
:102A3C005BC12DF0A0C18CF0A1C18DF00001D8902C
:102A4C008C378D37D8908C378D37010E8C25F66EE0
:102A5C00100E8D21F76EF86A000EF82209006F0037
:102A6C00D4FF2EF009006F00D4FF2FF009006F0087
:102A7C00D4FF30F00A006F00D4FF31F04BEC2AF099
:102A8C002AC024F12BC025F12CC026F12DC027F132
:102A9C007CC101F07DC102F07EC103F07FC104F066
:102AAC00010ED4EC32F001C0B0F102C0B1F103C0A0
:102ABC00B2F104C0B3F124C12EF025C12FF026C110
:102ACC0030F027C131F020C12AF021C12BF022C1F6
:102ADC002CF023C12DF04BEC2AF02AC058F12BC05E
:102AEC0059F12CC05AF12DC05BF1A0C18CF0A1C1E1
:102AFC008DF00001D8908C378D37D8908C378D376E
:102B0C00090E8C25F66E100E8D21F76EF86A000EEC
:102B1C00F82209006F00D4FF2EF009006F00D4FFDB
:102B2C002FF009006F00D4FF30F00A006F00D4FFC3
:102B3C0031F058C12AF059C12BF05AC12CF05BC1AD
:102B4C002DF04BEC2AF02AC008F12BC009F12CC057
:102B5C000AF12DC00BF108C12AF009C12BF00AC1F2
:102B6C002CF00BC12DF0B0C12EF0B1C12FF0B2C1C1
:102B7C0030F0B3C131F04BEC2AF02AC080F12BC0FD
:102B8C0081F12CC082F12DC083F180C1B8F181C1DB
:102B9C00B9F182C1BAF183C1BBF1B8C190F1B9C12D
:102BAC0091F1BAC192F1BBC193F1000E01019015E4
:102BBC00B86FF00E9115B96FFF0E9215BA6FFF0E2C
:102BCC009315BB6FB8C180F1B9C181F1BAC182F163
:102BDC00BBC183F1B0C146F0B1C147F0B2C148F0FE
:102BEC00B3C149F080C142F081C143F082C144F0CD
:102BFC0083C145F015EC38F042C094F143C095F117
:102C0C0044C096F145C097F1A0C18CF0A1C18DF0E4
:102C1C000001D8908C378D37D8908C378D37090EB2
:102C2C008C25F66E100E8D21F76EF86A000EF822C8
:102C3C0009006F00D4FF46F009006F00D4FF47F085
:102C4C0009006F00D4FF48F00A006F00D4FF49F070
:102C5C0094C142F095C143F096C144F097C145F040
:102C6C0015EC38F042C040F143C041F144C042F190
:102C7C0045C043F120C146F021C147F022C148F0C4
:102C8C0023C149F040C142F041C143F042C144F07C
:102C9C0043C145F015EC38F042C00CF143C00DF1C6
:102CAC0044C00EF145C00FF124C142F025C143F0E0
:102CBC0026C144F027C145F00CC146F00DC147F0C8
:102CCC000EC148F00FC149F015EC38F042C01CF1B0
:102CDC0043C01DF144C01EF145C01FF188C0B8F1BE
:102CEC0089C0B9F18AC0BAF18BC0BBF1B8C190F1FF
:102CFC00B9C191F1BAC192F1BBC193F1000E0101BE
:102D0C009015B86FF00E9115B96FFF0E9215BA6F42
:102D1C00FF0E9315BB6FB8C128F1B9C129F1BAC127
:102D2C002AF1BBC12BF180C115F081C116F082C113
:102D3C0017F083C118F028C146F029C147F02AC109
:102D4C0048F02BC149F088C042F089C043F08AC0DA
:102D5C0044F08BC045F015EC38F042C011F043C084
:102D6C0012F044C013F045C014F0ABEC2CF011C0C1
:102D7C0010F112C011F113C012F114C013F110C1F3
:102D8C002AF011C12BF012C12CF013C12DF01CC173
:102D9C0015F01DC116F01EC117F01FC118F088C028
:102DAC0011F089C012F08AC013F08BC014F0ABEC98
:102DBC002CF011C02EF012C02FF013C030F014C044
:102DCC0031F04BEC2AF02AC064F12BC065F12CC019
:102DDC0066F12DC067F128C111F029C112F02AC18A
:102DEC0013F02BC114F080C115F081C116F082C113
:102DFC0017F083C118F0ABEC2CF011C09CF112C091
:102E0C009DF113C09EF114C09FF164C12AF065C1FD
:102E1C002BF066C12CF067C12DF09CC12EF09DC12A
:102E2C002FF09EC130F09FC131F04BEC2AF02AC03C
:102E3C00B4F12BC0B5F12CC0B6F12DC0B7F1B4C1B3
:102E4C00B8F1B5C1B9F1B6C1BAF1B7C1BBF1B8C1EE
:102E5C00ACF1B9C1ADF1BAC1AEF1BBC1AFF1010179
:102E6C00AFBF45EF17F0AC05000EAD59000EAE59D3
:102E7C00430EAF59D8A045EF17F047EF17F07DEF91
:102E8C0017F0CA0E156EF20E166E490E176E710EF5
:102E9C00186E88C111F089C112F08AC113F08BC170
:102EAC0014F0ABEC2CF011C0A4F112C0A5F113C0BE
:102EBC00A6F114C0A7F1A4C111F0A5C112F0A6C1CE
:102ECC0013F0A7C114F0CA0E156EF20E166E490E51
:102EDC00176E710E186EABEC2CF011C084F012C092
:102EEC0085F013C086F014C087F07EEF1DF0430E02
:102EFC00AF19AC11AD11AE11D8A487EF17F089EF53
:102F0C0017F0FCEF17F09CC146F09DC147F09EC135
:102F1C0048F09FC149F0B4C142F0B5C143F0B6C10D
:102F2C0044F0B7C145F015EC38F042C04AF043C04C
:102F3C004BF044C04CF045C04DF03C0E2E6EAA0E2A
:102F4C002F6E380E306E330E316E64C12AF065C1AF
:102F5C002BF066C12CF067C12DF04BEC2AF02AC087
:102F6C004EF02BC04FF02CC050F02DC051F099EC0E
:102F7C0035F0D8B0C4EF17F0C6EF17F0C6EF18F065
:102F8C00CA0E156EF20E166E490E176E710E186E75
:102F9C0088C111F089C112F08AC113F08BC114F0F1
:102FAC00ABEC2CF011C0A4F112C0A5F113C0A6F12A
:102FBC0014C0A7F1A4C111F0A5C112F0A6C113F061
:102FCC00A7C114F0CA0E156EF20E166E490E176ECE
:102FDC00710E186EABEC2CF011C084F012C085F0A1
:102FEC0013C086F014C087F07EEF1DF0FF0EAC15F9
:102FFC0000018C6FFF0E0101AD1500018D6FFF0EEE
:10300C000101AE1500018E6F7F0E0101AF1500019D
:10301C008F6F8FBF1EEF18F08C05000E8D59160E9A
:10302C008E59430E8F59D8A01EEF18F020EF18F0D0
:10303C0056EF18F0600E156E420E166EA20E176E3D
:10304C000D0E186E88C111F089C112F08AC113F0EF
:10305C008BC114F0ABEC2CF011C0A4F112C0A5F193
:10306C0013C0A6F114C0A7F1A4C111F0A5C112F0B0
:10307C00A6C113F0A7C114F0600E156E420E166EA9
:10308C00A20E176E0D0E186EABEC2CF011C084F066
:10309C0012C085F013C086F014C087F07EEF1DF0CF
:1030AC00160E0101AE1909E1C30EAF19AC11AD1129
:1030BC00D8A463EF18F065EF18F0C6EF18F09CC1B8
:1030CC0046F09DC147F09EC148F09FC149F0B4C184
:1030DC0042F0B5C143F0B6C144F0B7C145F015ECB0
:1030EC0038F042C04AF043C04BF044C04CF045C0ED
:1030FC004DF064C14EF065C14FF066C150F067C130
:10310C0051F099EC35F0D8A08EEF18F090EF18F044
:10311C00C6EF18F0600E156E420E166EA20E176EEC
:10312C000D0E186E88C111F089C112F08AC113F00E
:10313C008BC114F0ABEC2CF011C0A4F112C0A5F1B2
:10314C0013C0A6F114C0A7F1A4C111F0A5C112F0CF
:10315C00A6C113F0A7C114F0600E156E420E166EC8
:10316C00A20E176E0D0E186EABEC2CF011C084F085
:10317C0012C085F013C086F014C087F07EEF1DF0EE
:10318C00FF0E0101AC152C6FFF0EAD152D6FFF0E50
:10319C00AE152E6F7F0EAF152F6F170E00018C6FB3
:1031AC002CC18DF02DC18EF02EC18FF02FC190F05F
:1031BC008C67E3EF18F0EBEF18F0903590338F330A
:1031CC008E338D338C2FDEEF18F0810E00018D25A0
:1031DC000101A06FFF0E00018E210101A16FFF0EF6
:1031EC0000018F210101A26FFF0E0001902101014E
:1031FC00A36F000E7C6F000E7D6F000E7E6F000EB5
:10320C007F6F2FBF16EF19F02C05000E2D59000EF5
:10321C002E593F0E2F59D8A016EF19F018EF19F0B0
:10322C001CEF1AF0A0C18CF0010E00018C27000ECF
:10323C008D6F000E8E6F800E8F6F000E906F8C67EF
:10324C002AEF19F032EF19F0903590338F338E331B
:10325C008D338C2F25EF19F00101AC5100018D2518
:10326C0001017C6FAD5100018E2101017D6FAE51CA
:10327C0000018F2101017E6FAF51000190210101EE
:10328C007F6F810E00018C6FFF0E8D6FFF0E8E6FA6
:10329C00FF0E8F6F170E906F7CC191F07DC192F075
:1032AC007EC193F07FC194F090675FEF19F067EFE8
:1032BC0019F094359433933392339133902F5AEF12
:1032CC0019F0000191518C250101A06F000E000135
:1032DC008D210101A16F000E00018E210101A26F51
:1032EC00000E00018F210101A36FA0C18CF0FF0E15
:1032FC0000018D6FFF0E8E6F7F0E8F6F000E906F23
:10330C008C678BEF19F093EF19F0903590338F3366
:10331C008E338D338C2F86EF19F000018D1D916F3C
:10332C008E1D926F8F1D936F901D946F01017C51B8
:10333C00000191150101B86F7D5100019215010139
:10334C00B96F7E51000193150101BA6F7F510001D5
:10335C0094150101BB6FB8C1B0F1B9C1B1F1BAC1DB
:10336C00B2F1BBC1B3F1A051170800018C6FFF0E75
:10337C0001017C1500018D6FFF0E01017D1500010F
:10338C008E6F7F0E01017E1500018F6F000E010103
:10339C007F150001906F000E8D11916F000E8E1134
:1033AC00926F800E8F11936F000E9011946F8C673B
:1033BC00E2EF19F0EAEF19F094359433933392332A
:1033CC0091338C2FDDEF19F091C07CF192C07DF11F
:1033DC0093C07EF194C07FF10101AFBFFAEF19F0F9
:1033EC00F8EF19F002EF1AF07F1F7E1F7D1F7C6D26
:1033FC00000E7D237E237F239CC142F09DC143F0B0
:10340C009EC144F09FC145F0B0C146F0B1C147F038
:10341C00B2C148F0B3C149F015EC38F042C09CF190
:10342C0043C09DF144C09EF145C09FF164C12AF098
:10343C0065C12BF066C12CF067C12DF09CC12EF03C
:10344C009DC12FF09EC130F09FC131F04BEC2AF0A2
:10345C002AC0B0F12BC0B1F12CC0B2F12DC0B3F128
:10346C00B0C1B8F1B1C1B9F1B2C1BAF1B3C1BBF1DC
:10347C00B8C190F1B9C191F1BAC192F1BBC193F14C
:10348C00000E01019015B86F800E9115B96FFF0EEB
:10349C009215BA6FFF0E9315BB6FB8C1B0F1B9C1DD
:1034AC00B1F1BAC1B2F1BBC1B3F1B0C111F0B1C14C
:1034BC0012F0B2C113F0B3C114F0000E156E720EFF
:1034CC00166E310E176E3F0E186EABEC2CF011C051
:1034DC0074F112C075F113C076F114C077F19CC170
:1034EC0046F09DC147F09EC148F09FC149F0B0C164
:1034FC0042F0B1C143F0B2C144F0B3C145F015EC98
:10350C0038F042C094F143C095F144C096F145C0E7
:10351C0097F1180E156E720E166E310E176E3F0E59
:10352C00186E94C146F095C147F096C148F097C10A
:10353C0049F064C142F065C143F066C144F067C113
:10354C0045F015EC38F042C011F043C012F044C005
:10355C0013F045C014F0ABEC2CF011C014F112C0F8
:10356C0015F113C016F114C017F114C12AF015C1CE
:10357C002BF016C12CF017C12DF08C0E156EBE0E53
:10358C00166EBF0E176E350E186EB0C111F0B1C1AC
:10359C0012F0B2C113F0B3C114F0ABEC2CF011C0AB
:1035AC002EF012C02FF013C030F014C031F04BECE1
:1035BC002AF02AC078F12BC079F12CC07AF12DC0F9
:1035CC007BF174C12AF075C12BF076C12CF077C158
:1035DC002DF078C12EF079C12FF07AC130F07BC17B
:1035EC0031F04BEC2AF02AC0B4F12BC0B5F12CC051
:1035FC00B6F12DC0B7F174C146F075C147F076C174
:10360C0048F077C149F0B4C142F0B5C143F0B6C13E
:10361C0044F0B7C145F015EC38F042C094F143C00A
:10362C0095F144C096F145C097F178C142F079C14B
:10363C0043F07AC144F07BC145F094C146F095C18A
:10364C0047F096C148F097C149F015EC38F042C0EC
:10365C0044F143C045F144C046F145C047F1B4C103
:10366C0011F0B5C112F0B6C113F0B7C114F0B4C16A
:10367C0015F0B5C116F0B6C117F0B7C118F0ABEC28
:10368C002CF011C0B0F112C0B1F113C0B2F114C0E2
:10369C00B3F10E0E2E6EEA0E2F6EDD0E306EB50EE1
:1036AC00316E4C0E156EBB0E166E310E176E330E40
:1036BC00186EB0C111F0B1C112F0B2C113F0B3C1A8
:1036CC0014F0ABEC2CF011C02AF012C02BF013C08C
:1036DC002CF014C02DF04BEC2AF02AC0A4F12BC016
:1036EC00A5F12CC0A6F12DC0A7F1550E2E6EB30E70
:1036FC002F6E8A0E306E380E316EB0C115F0B1C11E
:10370C0016F0B2C117F0B3C118F0A4C111F0A5C1E5
:10371C0012F0A6C113F0A7C114F0ABEC2CF011C041
:10372C002AF012C02BF013C02CF014C02DF04BEC6F
:10373C002AF02AC054F12BC055F12CC056F12DC0E3
:10374C0057F1610E2E6E0B0E2F6E360E306EBB0EB9
:10375C00316EB0C115F0B1C116F0B2C117F0B3C1E2
:10376C0018F054C111F055C112F056C113F057C1E5
:10377C0014F0ABEC2CF011C02AF012C02BF013C0DB
:10378C002CF014C02DF04BEC2AF02AC048F12BC0C1
:10379C0049F12CC04AF12DC04BF1AB0E2E6EAA0E86
:1037AC002F6E2A0E306E3E0E316EB0C115F0B1C1C7
:1037BC0016F0B2C117F0B3C118F048C111F049C1ED
:1037CC0012F04AC113F04BC114F0ABEC2CF011C049
:1037DC002AF012C02BF013C02CF014C02DF04BECBF
:1037EC002AF02AC038F12BC039F12CC03AF12DC087
:1037FC003BF1B4C142F0B5C143F0B6C144F0B7C11E
:10380C0045F0B0C115F0B1C116F0B2C117F0B3C19B
:10381C0018F038C111F039C112F03AC113F03BC1A4
:10382C0014F0ABEC2CF011C046F012C047F013C0F2
:10383C0048F014C049F015EC38F042C080F143C098
:10384C0081F144C082F145C083F1000E2E6E000E52
:10385C002F6E000E306EC00E316E80C12AF081C109
:10386C002BF082C12CF083C12DF04BEC2AF02AC036
:10387C004EF02BC04FF02CC050F02DC051F080C139
:10388C0015F081C116F082C117F083C118F0B4C1D4
:10389C0011F0B5C112F0B6C113F0B7C114F0ABEC16
:1038AC002CF011C04AF012C04BF013C04CF014C0F5
:1038BC004DF0D2EC2EF04AC03CF14BC03DF14CC067
:1038CC003EF14DC03FF144C12EF045C12FF046C131
:1038DC0030F047C131F044C115F045C116F046C176
:1038EC0017F047C118F0B4C111F0B5C112F0B6C150
:1038FC0013F0B7C114F0ABEC2CF011C02AF012C0CD
:10390C002BF013C02CF014C02DF04BEC2AF02AC075
:10391C0018F12BC019F12CC01AF12DC01BF13CC1B0
:10392C0042F03DC143F03EC144F03FC145F018C1E7
:10393C0046F019C147F01AC148F01BC149F015EC0B
:10394C0038F042C04CF143C04DF144C04EF145C07B
:10395C004FF1B4C146F0B5C147F0B6C148F0B7C19C
:10396C0049F04CC142F04DC143F04EC144F04FC13F
:10397C0045F015EC38F042C094F143C095F144C0C9
:10398C0096F145C097F1000E426E000E436E800E0C
:10399C00446E3F0E456E94C146F095C147F096C1FA
:1039AC0048F097C149F015EC38F042C0B4F143C06F
:1039BC00B5F144C0B6F145C0B7F1B4C1B8F1B5C169
:1039CC00B9F1B6C1BAF1B7C1BBF1B8C1ACF1B9C16B
:1039DC00ADF1BAC1AEF1BBC1AFF17CC18CF07DC110
:1039EC008DF07EC18EF07FC18FF0170ED890000144
:1039FC008C378D378E378F37E82EFCEF1CF08C51BF
:103A0C000101AC2700018D510101AD2300018E5144
:103A1C000101AE2300018F510101AF23170E0001EC
:103A2C008C6FACC18DF0ADC18EF0AEC18FF0AFC15B
:103A3C0090F08C6724EF1DF02CEF1DF09035903337
:103A4C008F338E338D338C2F1FEF1DF0000190BF01
:103A5C003CEF1DF090518F118E1106E18D05D8B001
:103A6C003AEF1DF03CEF1DF054EF1DF0B4C12AF0FD
:103A7C00B5C12BF0B6C12CF0B7C12DF07CC12EF026
:103A8C007DC12FF0A0EC30F02AC0B4F12BC0B5F101
:103A9C002CC0B6F12DC0B7F164EF1DF0ACC1B8F17C
:103AAC00ADC1B9F1AEC1BAF1AFC1BBF1B8C1B4F19E
:103ABC00B9C1B5F1BAC1B6F1BBC1B7F188C111F04A
:103ACC0089C112F08AC113F08BC114F0B4C115F086
:103ADC00B5C116F0B6C117F0B7C118F0ABEC2CF0AD
:103AEC0011C084F012C085F013C086F014C087F0AA
:103AFC001200CFEC38F00DEC39F0020E096E480EC6
:103B0C000A6E030E0B6E020E6EEC38F0010E000105
:103B1C009F6F000EA06F000EA16F800EA26F3F0E64
:103B2C00A36F480EA46F030EA56F010EACEC36F01C
:103B3C00020E00019F6FB40E566EA20E576E910EC0
:103B4C00586EB90E596ED4EC24F056C0A0F057C084
:103B5C00A1F058C0A2F059C0A3F0480E0001A46F08
:103B6C00030EA56F020EACEC36F0480E0001AB6FE5
:103B7C00030EAC6FE00EAD6F010EAE6F80EC34F047
:103B8C00020E096E5A0E0A6E030E0B6E020E6EECCE
:103B9C0038F0010E00019F6F000EA06F000EA16F98
:103BAC00800EA26F3F0EA36F5A0EA46F030EA56F6B
:103BBC00010EACEC36F0020E00019F6F000EA06FF0
:103BCC00000EA16F800EA26F3F0EA36F5A0EA46F52
:103BDC00030EA56F020EACEC36F05A0E0001AB6F63
:103BEC00030EAC6F600EAD6F020EAE6F80EC34F056
:103BFC00020E096EDE0E0A6E020E0B6E020E6EECDB
:103C0C0038F0010E00019F6F000EA06F000EA16F27
:103C1C00800EA26F3F0EA36FDE0EA46F020EA56F77
:103C2C00010EACEC36F0020E00019F6F000EA06F7F
:103C3C00000EA16F800EA26F3F0EA36FDE0EA46F5D
:103C4C00020EA56F020EACEC36F0010E096E6C0E76
:103C5C000A6E030E0B6E020E6EEC38F0010E0001B4
:103C6C009F6F420EA06F600EA16FE50EA26F3B0E10
:103C7C00A36F6C0EA46F030EA56F010EACEC36F0A7
:103C8C00010E00019F6F000EA06F000EA16F800E41
:103C9C00A26FBF0EA36F6C0EA46F030EA56F020E66
:103CAC00ACEC36F0010E096E000E0A6E030E0B6EB4
:103CBC00020E6EEC38F0010E00019F6F010E076EC4
:103CCC006C0E086E030E096E010EEAEC36F007C09E
:103CDC00A0F008C0A1F009C0A2F00AC0A3F0000E29
:103CEC000001A46F030EA56F010EACEC36F0010EB3
:103CFC0000019F6F020E076E6C0E086E030E096EAC
:103D0C00010EEAEC36F007C0A0F008C0A1F009C023
:103D1C00A2F00AC0A3F0000E0001A46F030EA56F61
:103D2C00020EACEC36F0000E0001846F000E856FB5
:103D3C00200E866F410E876F000E886F000E896F04
:103D4C00800E8A6FC00E8B6F4EEC08F084C0F3F1BE
:103D5C0085C0F4F186C0F5F187C0F6F1010E096E4D
:103D6C00BC0E0A6E010E0B6E020E6EEC38F0020EDB
:103D7C00096ECC0E0A6E020E0B6E020E6EEC38F053
:103D8C00000E0001886F000E896FE00E8A6FC00E66
:103D9C008B6F000E846F000E856F200E866F410EA8
:103DAC00876F4EEC08F084C0ECF085C0EDF086C057
:103DBC00EEF087C0EFF0010E00019F6FECC011F028
:103DCC00EDC012F0EEC013F0EFC014F0000E156E43
:103DDC00000E166E200E176E400E186EABEC2CF00B
:103DEC0011C0A0F012C0A1F013C0A2F014C0A3F037
:103DFC00CC0E0001A46F020EA56F010EACEC36F0D8
:103E0C00010E096E240E0A6E030E0B6E020E6EEC82
:103E1C0038F0010E096ECE0E0A6E010E0B6E020EFC
:103E2C006EEC38F0010E096E960E0A6E020E0B6ED9
:103E3C00020E6EEC38F0020E096EA80E0A6E020E1F
:103E4C000B6E020E6EEC38F0010E096E4E0E0A6E01
:103E5C00020E0B6E020E6EEC38F0020E096E120E94
:103E6C000A6E030E0B6E020E6EEC38F0010E0001A2
:103E7C009F6FF3C1A0F0F4C1A1F0F5C1A2F0F6C19F
:103E8C00A3F0120EA46F030EA56F010EACEC36F06E
:103E9C00020E00019F6FF3C1A0F0F4C1A1F0F5C1B7
:103EAC00A2F0F6C1A3F0120EA46F030EA56F020EC2
:103EBC00ACEC36F0020E096E360E0A6E030E0B6E6B
:103ECC00020E6EEC38F0010E00019F6FF3C1A0F0F2
:103EDC00F4C1A1F0F5C1A2F0F6C1A3F0360EA46FA7
:103EEC00030EA56F010EACEC36F0020E00019F6FB5
:103EFC00F3C1A0F0F4C1A1F0F5C1A2F0F6C1A3F09A
:103F0C00360EA46F030EA56F020EACEC36F0020E4B
:103F1C00096EBA0E0A6E020E0B6E020E6EEC38F0C3
:103F2C00020E096E720E0A6E020E0B6E020E6EEC13
:103F3C0038F0020E096E840E0A6E020E0B6E020E23
:103F4C006EEC38F0000E0001F06F000EF16F800E79
:103F5C00F26F3F0EF36F000EF46F000EF56F000E54
:103F6C00F66F000EF76F000EF86F000EF96F000E73
:103F7C00FA6F000EFB6F000EE86F000EE96F000E7B
:103F8C00EA6F000EEB6F000EFC6F000EFD6F000E63
:103F9C00FE6F000EFF6F010E9F6FF0C0A0F0F1C01E
:103FAC00A1F0F2C0A2F0F3C0A3F0240EA46F030E94
:103FBC00A56F010EACEC36F0010E00019F6FF4C042
:103FCC00A0F0F5C0A1F0F6C0A2F0F7C0A3F0240E4B
:103FDC00A46F030EA56F020EACEC36F0000E0001C0
:103FEC00E76F1BEC36F0E806D8A4FFEF1FF001EFEB
:103FFC0020F051EF20F01BEC36F00001E66FE6519B
:10400C00016E026A036A046A000ED4EC32F001C03D
:10401C00F0F002C0F1F003C0F2F004C0F3F01BECBE
:10402C0036F00001E66FE651016E026A036A046A1B
:10403C00000ED4EC32F001C0F4F002C0F5F003C075
:10404C00F6F004C0F7F01BEC36F00001E66FE65119
:10405C00016E026A036A046A000ED4EC32F001C0ED
:10406C00FCF002C0FDF003C0FEF004C0FFF01BEC3E
:10407C0036F00001E66FE651016E026A036A046ACB
:10408C00000ED4EC32F001C0F8F002C0F9F003C01D
:10409C00FAF004C0FBF0240E0201006F030E016F56
:1040AC00360E026F030E036FF8C004F2F9C005F26E
:1040BC00FAC006F2FBC007F2E8C008F2E9C009F248
:1040CC00EAC00AF2EBC00BF2FCC00CF2FDC00DF220
:1040DC00FEC00EF2FFC00FF20A0E106FD70E116F5A
:1040EC005B0E126F400E136FF3C114F2F4C115F294
:1040FC00F5C116F2F6C117F2480E186F030E196FC0
:10410C006C0E1A6F030E1B6F5A0E1C6F030E1D6F75
:10411C00DE0E1E6F020E1F6FCE0E206F010E216F72
:10412C000A0E226FD70E236F230E246F3C0E256FC1
:10413C00000E266FA00E276F8C0E286F460E296F6F
:10414C00000E2A6F000E2B6F160E2C6F450E2D6F66
:10415C008F0E2E6FC20E2F6F750E306F3C0E316F9F
:10416C00CC0E326F020E336FE00E346F010E356FD2
:10417C00600E366F020E376FBA0E386F020E396F43
:10418C00720E3A6F020E3B6F840E3C6F020E3D6F47
:10419C00BC0E3E6F010E3F6F120E406F030E416F4F
:1041AC00000E426F030E436F4E0E446F020E456FAE
:1041BC000A0E466FD70E476F230E486F3C0E496FA1
:1041CC00960E4A6F020E4B6FA80E4C6F020E4D6F7F
:1041DC005EEC21F0010E0101F76F020EF765F9EFAD
:1041EC0020F0FBEF20F0FDEF20F04BEF21F0010E63
:1041FC0000019F6F010E076E960E086E020E096E7F
:10420C000101F751EAEC36F007C0A0F008C0A1F0AC
:10421C0009C0A2F00AC0A3F0240E0001A46F030E83
:10422C00A56F0101F751ACEC36F0010E0101F26FF4
:10423C00020EF26524EF21F026EF21F028EF21F099
:10424C0048EF21F0F2C19FF0F2C107F0A80E086E02
:10425C00020E096EF751EAEC36F007C0A0F008C068
:10426C00A1F009C0A2F00AC0A3F0360E0001A46FA1
:10427C00030EA56F0101F751ACEC36F00101F22BE6
:10428C001EEF21F0F72BF3EF20F0E8EC38F00009EB
:10429C00D8B453EF21F055EF21F0F7EF1FF00A0ED1
:1042AC000001E727F3EC38F0F7EF1FF0FEEF7FF09B
:1042BC0000C2ABF001C2ACF004C2ADF005C2AEF06E
:1042CC0006C2AFF007C2B0F022C2B1F023C2B2F006
:1042DC0024C2B3F025C2B4F026C2B5F027C2B6F0A2
:1042EC0028C2B7F029C2B8F02AC2B9F02BC2BAF072
:1042FC002CC2BBF02DC2BCF02EC2BDF02FC2BEF042
:10430C0030C2BFF031C2C0F020C2C1F021C2C2F035
:10431C00BAEC31F0010E0001E56F010E9F6F010E3A
:10432C00076E20C208F021C209F0E551EAEC36F024
:10433C0007C0A0F008C0A1F009C0A2F00AC0A3F009
:10434C003EC2A4F03FC2A5F00001E551ACEC36F042
:10435C000001E52B020EE565B6EF21F0B8EF21F078
:10436C0093EF21F018C2ABF019C2ACF002C2ADF061
:10437C0003C2AEF038C2AFF039C2B0F0AEEC33F0DD
:10438C0038C2ABF039C2ACF034C2ADF035C2AEF0CD
:10439C003AC2AFF03BC2B0F0AEEC33F01CC2ABF0A3
:1043AC001DC2ACF032C2ADF033C2AEF038C2AFF0C9
:1043BC0039C2B0F0AEEC33F038C2ABF039C2ACF06D
:1043CC0036C2ADF037C2AEF03CC2AFF03DC2B0F079
:1043DC00AEEC33F0010E0001E56F010EE46F020E3E
:1043EC00E465FBEF21F0FDEF21F0FFEF21F03AEF58
:1043FC0022F0E4C09FF03AC208F03BC209F0E4C0DE
:10440C0007F0E551EAEC36F007C02AF008C02BF0B3
:10441C0009C02CF00AC02DF03CC208F03DC209F0D6
:10442C00E4C007F00001E551EAEC36F007C02EF0CD
:10443C0008C02FF009C030F00AC031F04BEC2AF064
:10444C002AC0A0F02BC0A1F02CC0A2F02DC0A3F06C
:10445C0040C2A4F041C2A5F00001E551ACEC36F02D
:10446C000001E42BF5EF21F0E52B020EE56541EFA1
:10447C0022F043EF22F0F3EF21F040C2ABF041C247
:10448C00ACF042C2ADF043C2AEF038C2AFF039C2AC
:10449C00B0F0AEEC33F0000E0001DB6F000EDC6F01
:1044AC00000EDD6F000EDE6F000EDF6F000EE06F92
:1044BC00000EE16F000EE26F010EE56FDBC02AF01B
:1044CC00DCC02BF0DDC02CF0DEC02DF01AC208F0E1
:1044DC001BC209F0010E076EE551EAEC36F007C07D
:1044EC0015F008C016F009C017F00AC018F038C251
:1044FC0008F039C209F0010E076E0001E551EAEC33
:10450C0036F007C011F008C012F009C013F00AC051
:10451C0014F0ABEC2CF011C02EF012C02FF013C025
:10452C0030F014C031F04BEC2AF02AC0DBF02BC079
:10453C00DCF02CC0DDF02DC0DEF00001E52B020E0E
:10454C00E565ABEF22F0ADEF22F064EF22F0DBC0BB
:10455C002AF0DCC02BF0DDC02CF0DEC02DF014C234
:10456C002EF015C22FF016C230F017C231F04BEC02
:10457C002AF02AC0DFF02BC0E0F02CC0E1F02DC0F7
:10458C00E2F0DFC084F0E0C085F0E1C086F0E2C06C
:10459C0087F0000E0001886F000E896F800E8A6F05
:1045AC00BF0E8B6F4EEC08F084C0DFF085C0E0F0DE
:1045BC0086C0E1F087C0E2F0010E0001E56F010E4C
:1045CC009F6F38C208F039C209F0010E076EE55131
:1045DC00EAEC36F007C011F008C012F009C013F075
:1045EC000AC014F0DFC015F0E0C016F0E1C017F0FF
:1045FC00E2C018F0ABEC2CF011C0A0F012C0A1F08E
:10460C0013C0A2F014C0A3F044C2A4F045C2A5F09C
:10461C000001E551ACEC36F00001E52B020EE5652E
:10462C001AEF23F01CEF23F0E5EF22F0000ED76F0A
:10463C00000ED86F000ED96F000EDA6F000E156EDB
:10464C00000E166EC80E176E420E186E3EC208F0A3
:10465C003FC209F0010E076E010EEAEC36F007C0FE
:10466C0011F008C012F009C013F00AC014F0ABEC42
:10467C002CF011C0CBF012C0CCF013C0CDF014C094
:10468C00CEF00CC22EF00DC22FF00EC230F00FC2C5
:10469C0031F03EC208F03FC209F0010E076E020E67
:1046AC00EAEC36F007C02AF008C02BF009C02CF059
:1046BC000AC02DF04BEC2AF02AC0CFF02BC0D0F062
:1046CC002CC0D1F02DC0D2F046C256F047C257F0E4
:1046DC0048C258F049C259F010C252F011C253F0FE
:1046EC0012C254F013C255F004C24EF005C24FF082
:1046FC0006C250F007C251F0CBC04AF0CCC04BF010
:10470C00CDC04CF0CEC04DF06DEC36F04AC0D3F0BD
:10471C004BC0D4F04CC0D5F04DC0D6F0CFC042F059
:10472C00D0C043F0D1C044F0D2C045F0D3C046F065
:10473C00D4C047F0D5C048F0D6C049F015EC38F0DD
:10474C0042C0D7F043C0D8F044C0D9F045C0DAF02D
:10475C00010E0001E56F010E9F6F44C208F045C2C7
:10476C0009F0010E076EE551EAEC36F007C011F0C6
:10477C0008C012F009C013F00AC014F0D7C015F02D
:10478C00D8C016F0D9C017F0DAC018F0ABEC2CF08A
:10479C0011C0A0F012C0A1F013C0A2F014C0A3F07D
:1047AC0038C2A4F039C2A5F00001E551ACEC36F0EA
:1047BC00010E00019F6F3EC208F03FC209F0010ECE
:1047CC00076EE551EAEC36F007C02AF008C02BF072
:1047DC0009C02CF00AC02DF038C208F039C209F01B
:1047EC00010E076E0001E551EAEC36F007C02EF021
:1047FC0008C02FF009C030F00AC031F04BEC2AF0A1
:10480C002AC0A0F02BC0A1F02CC0A2F02DC0A3F0A8
:10481C004AC2A4F04BC2A5F00001E551ACEC36F055
:10482C000001E52B020EE5651EEF24F020EF24F0CD
:10483C00B1EF23F0010EE56F010EE36F020EE3659D
:10484C002AEF24F02CEF24F02EEF24F069EF24F063
:10485C00E3C09FF044C208F045C209F0010E076E98
:10486C00E551EAEC36F007C011F008C012F009C0AF
:10487C0013F00AC014F01AC208F01BC209F0010EA2
:10488C00076E0001E351EAEC36F007C015F008C0E2
:10489C0016F009C017F00AC018F0ABEC2CF011C0E0
:1048AC00A0F012C0A1F013C0A2F014C0A3F038C243
:1048BC00A4F039C2A5F00001E551ACEC36F00001D2
:1048CC00E32B24EF24F0E52B020EE56570EF24F0CA
:1048DC0072EF24F022EF24F038C2ABF039C2ACF006
:1048EC0040C2ADF041C2AEF03AC2AFF03BC2B0F044
:1048FC00AEEC33F0010E0001E56F010EE46F020E19
:10490C00E4658BEF24F08DEF24F08FEF24F0CAEFE9
:10491C0024F0E4C09FF040C208F041C209F0E4C0AA
:10492C0007F0E551EAEC36F007C042F008C043F05E
:10493C0009C044F00AC045F03AC208F03BC209F085
:10494C00E4C007F00001E551EAEC36F007C046F090
:10495C0008C047F009C048F00AC049F015EC38F01F
:10496C0042C0A0F043C0A1F044C0A2F045C0A3F0E7
:10497C004CC2A4F04DC2A5F00001E551ACEC36F0F0
:10498C000001E42B85EF24F0E52B020EE565D1EF59
:10499C0024F0D3EF24F083EF24F0120056C06DF016
:1049AC0057C06EF058C06FF059C070F06DC09BF0DE
:1049BC006EC09CF06FC09DF070C09EF09BC05AF012
:1049CC009CC05BF09DC05CF09EC05DF0200EF4EFCF
:1049DC0024F0D8905D325C325B325A32E82EEFEF25
:1049EC0024F05AC095F05BC096F000019E9F500ECB
:1049FC009B5DAC0E9C59AE0E9D59420E9E59D8A093
:104A0C000AEF25F00CEF25F07AEF25F09B05000E50
:104A1C009C59800E9D597F0E9E59D8A018EF25F0F9
:104A2C001AEF25F024EF25F056C056F057C057F07A
:104A3C0058C058F059C059F0E9EF27F0180E9B5D9B
:104A4C00720E9C59B10E9D59420E9E59D8A031EF51
:104A5C0025F033EF25F058EF25F095519611D8A499
:104A6C003AEF25F03CEF25F058EF25F056C011F049
:104A7C0057C012F058C013F059C014F0000E156E48
:104A8C00000E166E000E176E7F0E186EABEC2CF02F
:104A9C0011C056F012C057F013C058F014C059F0A2
:104AAC001AEF25F095519611D8B45FEF25F061EF10
:104ABC0025F07AEF25F0B50E9B5DF10E9C59CF0ECB
:104ACC009D59420E9E59D8A06EEF25F070EF25F03F
:104ADC007AEF25F0000E566E000E576E000E586ED3
:104AEC00000E596EE9EF27F0190E9B5D720E9C5962
:104AFC00B10E9D593E0E9E59D8A087EF25F089EF37
:104B0C0025F07BEF26F0930E9B5D150E9C59850EC0
:104B1C009D593F0E9E59D8A096EF25F098EF25F0A1
:104B2C00EBEF25F095C05AF096C05BF0D8905A3652
:104B3C005B36D8905A365B36110E5A24F66E100E30
:104B4C005B20F76EF86A000EF82209006F00D4FFA4
:104B5C002EF009006F00D4FF2FF009006F00D4FF76
:104B6C0030F00A006F00D4FF31F03B0E156EAA0E28
:104B7C00166EB80E176E3F0E186E56C011F057C059
:104B8C0012F058C013F059C014F0ABEC2CF011C05B
:104B9C002AF012C02BF013C02CF014C02DF04BECEB
:104BAC002AF02AC03AF02BC03BF02CC03CF02DC0B0
:104BBC003DF016EC35F03AC097F03BC098F03CC095
:104BCC0099F03DC09AF003EF26F095C05AF096C0CC
:104BDC005BF0D8905A365B36010E5C6E000E5D6E43
:104BEC005A505C5E5B505D5A5CC097F05DC098F0AB
:104BFC00000E98BFFF0E996F9A6F56C042F057C0C7
:104C0C0043F058C044F059C045F0000E156E720EBA
:104C1C00166E310E176E3F0E186E97C001F098C0CD
:104C2C0002F099C003F09AC004F0010ED4EC32F0FB
:104C3C0001C011F002C012F003C013F004C014F054
:104C4C00ABEC2CF011C046F012C047F013C048F08A
:104C5C0014C049F015EC38F042C08DF043C08EF012
:104C6C0044C08FF045C090F097C001F098C002F09E
:104C7C0099C003F09AC004F0010ED4EC32F001C0DC
:104C8C0011F002C012F003C013F004C014F08E0E29
:104C9C00156EBE0E166EBF0E176E350E186EABEC83
:104CAC002CF011C091F012C092F013C093F014C00C
:104CBC0094F08DC042F08EC043F08FC044F090C091
:104CCC0045F091C046F092C047F093C048F094C0B4
:104CDC0049F015EC38F042C056F043C057F044C0D0
:104CEC0058F045C059F0BFEF26F09B05000E9C59BB
:104CFC00000E9D59390E9E59D8A087EF26F089EFEA
:104D0C0026F0A3EF26F0000E976F000E986F000EA2
:104D1C00996F000E9A6F56C08DF057C08EF058C028
:104D2C008FF059C090F0000E916F000E926F000E34
:104D3C00936F000E946FBFEF26F056C02AF057C049
:104D4C002BF058C02CF059C02DF0000E2E6E000E1A
:104D5C002F6E800E306E3F0E316E4BEC2AF02AC057
:104D6C0056F02BC057F02CC058F02DC059F0E9EF7D
:104D7C0027F056C011F057C012F058C013F059C0AC
:104D8C0014F056C015F057C016F058C017F059C0A3
:104D9C0018F0ABEC2CF011C085F012C086F013C0EB
:104DAC0087F014C088F08F0E2E6EAA0E2F6E2A0E6E
:104DBC00306E3E0E316E150E156E520E166E350E91
:104DCC00176EBB0E186E85C011F086C012F087C02E
:104DDC0013F088C014F0ABEC2CF011C02AF012C008
:104DEC002BF013C02CF014C02DF04BEC2AF02AC081
:104DFC0071F02BC072F02CC073F02DC074F056C043
:104E0C0042F057C043F058C044F059C045F085C03B
:104E1C0015F086C016F087C017F088C018F071C066
:104E2C0011F072C012F073C013F074C014F0ABEC3C
:104E3C002CF011C046F012C047F013C048F014C05B
:104E4C0049F015EC38F042C081F043C082F044C008
:104E5C0083F045C084F081C046F082C047F083C027
:104E6C0048F084C049F0000E426E000E436E000EF6
:104E7C00446E400E456E15EC38F042C04EF043C007
:104E8C004FF044C050F045C051F081C015F082C0C5
:104E9C0016F083C017F084C018F056C011F057C03C
:104EAC0012F058C013F059C014F0ABEC2CF011C038
:104EBC004AF012C04BF013C04CF014C04DF0D2ECC1
:104ECC002EF04AC075F04BC076F04CC077F04DC058
:104EDC0078F091C046F092C047F093C048F094C06F
:104EEC0049F075C042F076C043F077C044F078C00A
:104EFC0045F015EC38F042C079F043C07AF044C06C
:104F0C007BF045C07CF08DC02EF08EC02FF08FC092
:104F1C0030F090C031F079C02AF07AC02BF07BC011
:104F2C002CF07CC02DF04BEC2AF02AC07DF02BC06D
:104F3C007EF02CC07FF02DC080F07DC02AF07EC0AA
:104F4C002BF07FC02CF080C02DF0000E2E6E000ECA
:104F5C002F6E800E306E3F0E316E4BEC2AF02AC055
:104F6C0089F02BC08AF02CC08BF02DC08CF0000186
:104F7C009751981199119A11D8A4C7EF27F0C9EF3E
:104F8C0027F0D3EF27F089C056F08AC057F08BC0BA
:104F9C0058F08CC059F0E9EF27F089C02AF08AC08C
:104FAC002BF08BC02CF08CC02DF097C02EF098C03D
:104FBC002FF0A0EC30F02AC056F02BC057F02CC0CC
:104FCC0058F02DC059F0120056C068F057C069F067
:104FDC0058C06AF059C06BF068C080F069C081F0AD
:104FEC006AC082F06BC083F0000E000180155A6E0F
:104FFC00000E81155B6E800E82155C6E7F0E831524
:10500C005D6E800E5C1809E17F0E5D185A105B1006
:10501C00D8A413EF28F015EF28F043EF28F056C072
:10502C0015F057C016F058C017F059C018F056C0FC
:10503C0011F057C012F058C013F059C014F0ABEC7B
:10504C002CF011C02AF012C02BF013C02CF014C09D
:10505C002DF056C02EF057C02FF058C030F059C06C
:10506C0031F04BEC2AF02AC056F02BC057F02CC074
:10507C0058F02DC059F04AEF2AF083BF52EF28F0B8
:10508C0083518211811106E18005D8B050EF28F0D0
:10509C0052EF28F08FEF28F0FF0E80155A6EFF0E9E
:1050AC0081155B6EFF0E82155C6E7F0E83155D6E37
:1050BC005A505B105C105D10D8A467EF28F069EFB4
:1050CC0028F073EF28F056C056F057C057F058C070
:1050DC0058F059C059F04AEF2AF083BF7AEF28F004
:1050EC0078EF28F08FEF28F0000E0101FD6F210EF4
:1050FC00FC6F990E016E100E026EAFEC38F001C011
:10510C0056F002C057F003C058F004C059F04AEFF3
:10511C002AF0170E5A6E80C05BF081C05CF082C022
:10512C005DF083C05EF05A669EEF28F0A6EF28F083
:10513C005E345E325D325C325B325A2E99EF28F06F
:10514C005BC078F05CC079F05DC07AF05EC07BF03B
:10515C000001785179117A117B11D8A4B8EF28F09D
:10516C00BAEF28F0EAEF28F0000E646F000E656FBE
:10517C00000E666F000E676FCFEF28F0D890803767
:10518C00813782378337010E6427000E652366232F
:10519C00672382AFD4EF28F0D6EF28F0C4EF28F0C5
:1051AC00FF0E64255A6EFF0E65215B6EFF0E6621A5
:1051BC005C6EFF0E67215D6E5A50785F5B50795BB9
:1051CC005C507A5B5D507B5B810E7827FF0E7923F8
:1051DC00FF0E7A23FF0E7B23FF0E80155A6EFF0EF7
:1051EC0081155B6E7F0E82155C6E000E83155D6EF5
:1051FC00000E5A10806F000E5B10816F800E5C10D9
:10520C00826F000E5D10836F78A10FEF29F011EF04
:10521C0029F019EF29F08051802781518123825187
:10522C008223835183237B357B337A3379337833F1
:10523C008051802781518123825182238351832382
:10524C00000E606F000E616F000E626F000E636FD8
:10525C0060C06CF061C06DF062C06EF063C06FF046
:10526C00000E7C6F000E7D6F000E7E6F010E7F6F47
:10527C0088EF29F060517C25706F61517D21716F31
:10528C0062517E21726F63517F21736F7051805D0B
:10529C0071518159725182598351800A5A6E7351DE
:1052AC00800A5A58D8A05DEF29F05FEF29F07BEF08
:1052BC0029F070517C25606F71517D21616F7251A5
:1052CC007E21626F73517F21636F7051805F7151CA
:1052DC00815B7251825B7351835B7C516C277D5176
:1052EC006D237E516E237F516F2380518027815116
:1052FC0081238251822383518323D8907F337E3341
:10530C007D337C337C517D117E117F11D8A491EFBC
:10531C0029F093EF29F040EF29F08051811182118F
:10532C008311D8B49CEF29F09EEF29F0FFEF29F000
:10533C00000E746F000E756F800E766F3F0E776FD8
:10534C0074C04AF075C04BF076C04CF077C04DF08D
:10535C00000E4E6E000E4F6E800E506E3F0E516E54
:10536C0099EC35F0D8A0BDEF29F0BFEF29F0FFEF95
:10537C0029F0000E0001746F000E756F800E766FB1
:10538C003F0E776F000E4A6E000E4B6E800E4C6E09
:10539C003F0E4D6E74C04EF075C04FF076C050F09D
:1053AC0077C051F099EC35F0D8B0DFEF29F0E1EF90
:1053BC0029F0EAEF29F0020E00016C27000E6D2394
:1053CC006E236F23FFEF29F0010E00016C155A6E4E
:1053DC00000E6D155B6E000E6E155C6E000E6F157B
:1053EC005D6E5A506C275B506D235C506E235D5084
:1053FC006F236CC05AF06DC05BF06EC05CF06FC078
:10540C005DF05D345D325C325B325A32000E5A24F0
:10541C000001806F000E5B20816F000E5C20826F9C
:10542C003F0E5D20836F78C05AF079C05BF07AC074
:10543C005CF07BC05DF0170ED8905A365B365C364C
:10544C005D36E82E22EF2AF05A5080275B508123DC
:10545C005C5082235D50832380C068F081C069F06A
:10546C0082C06AF083C06BF068C074F069C075F0DC
:10547C006AC076F06BC077F074C056F075C057F008
:10548C0076C058F077C059F012002D50800B366E54
:10549C002D502D24386E2CAE56EF2AF058EF2AF0F2
:1054AC0059EF2AF038803850D8B45FEF2AF061EF0A
:1054BC002AF076EF2AF03828D8A467EF2AF069EFA3
:1054CC002AF071EF2AF0000E2A6E000E2B6E000EE1
:1054DC002C6E000E2D6E2C8E000E2D6E7EEF2AF093
:1054EC00000E2A6E000E2B6E000E2C6E000E2D6E12
:1054FC003150800B376E36503718D8B488EF2AF0FD
:10550C008AEF2AF08BEF2AF0368C31503124376E2B
:10551C0030AE93EF2AF095EF2AF096EF2AF0378011
:10552C003750D8B49CEF2AF09EEF2AF0B3EF2AF054
:10553C003728D8A4A4EF2AF0A6EF2AF0AEEF2AF071
:10554C00000E2E6E000E2F6E000E306E000E316EA1
:10555C00308E000E316EBBEF2AF0000E2E6E000E58
:10556C002F6E000E306E000E316E3850375CD8B096
:10557C00C2EF2AF0C4EF2AF0EBEF2AF036ACC9EFF9
:10558C002AF0CBEF2AF0CDEF2AF0800E361A38C075
:10559C0039F037C038F039C037F02AC039F02EC096
:1055AC002AF039C02EF02BC039F02FC02BF039C0A7
:1055BC002FF02CC039F030C02CF039C030F02DC099
:1055CC0039F031C02DF039C031F0000E396E385041
:1055DC0037C032F0336A325E000E335A33BE00EFFE
:1055EC002BF0335009E11A0E325CD8A000EF2BF0EF
:1055FC0002EF2BF039EF2BF02A502B102C102D1022
:10560C00D8A40BEF2BF00EEF2BF0010E0FEF2BF0BD
:10561C00000E396E000E2A6E000E2B6E000E2C6ED4
:10562C00000E2D6E37C038F042EF2BF039A021EF71
:10563C002BF023EF2BF029EF2BF0D8903930010908
:10564C00396E2BEF2BF0D89039322AA030EF2BF09B
:10565C0032EF2BF033EF2BF0398E2D342D322C32E0
:10566C002B322A32382A3750385CD8A040EF2BF036
:10567C0042EF2BF01CEF2BF036BC47EF2BF049EF31
:10568C002BF089EF2BF03850D8A44FEF2BF051EFC3
:10569C002BF05BEF2BF0000E2A6E000E2B6E000E23
:1056AC002C6E000E2D6EAAEF2CF02E502A262F50A9
:1056BC002B2230502C2231502D222DA068EF2BF0B4
:1056CC006AEF2BF016EF2CF039A06FEF2BF071EF87
:1056DC002BF077EF2BF0D89039300109396E79EF38
:1056EC002BF0D89039322AA07EEF2BF080EF2BF0E4
:1056FC0081EF2BF0398E2D342D322C322B322A3275
:10570C00382A16EF2CF02E502A5C2F502B58305084
:10571C002C582D50800A326E3150800A3258D8B035
:10572C009AEF2BF09CEF2BF0C7EF2BF02A502E5C4E
:10573C00326E2B502F58336E2C503058346E2D50F7
:10574C003158356EFF0E32242A6EFF0E33202B6E2D
:10575C00FF0E34202C6EFF0E35202D6E800E361A67
:10576C00396C3950D8A4BDEF2BF0BFEF2BF0CFEF35
:10577C002BF0010E2A26000E2B222C222D22CFEFED
:10578C002BF02E502A5E2F502B5A30502C5A315061
:10579C002D5A2A502B102C102D10D8A4D8EF2BF0EA
:1057AC00DAEF2BF00FEF2CF03950D8A4E0EF2BF000
:1057BC00E2EF2BF00FEF2CF0000E2A6E000E2B6E8A
:1057CC00000E2C6E000E2D6EAAEF2CF0D8902A36FF
:1057DC002B362C362D3639AEF6EF2BF0F8EF2BF0AE
:1057EC00F9EF2BF02A8039A0FEEF2BF000EF2CF014
:1057FC0004EF2CF0D880393606EF2CF0D8903936DF
:10580C003850D8B40CEF2CF00EEF2CF00FEF2CF02E
:10581C0038062CAE14EF2CF016EF2CF0ECEF2BF02E
:10582C00000E376E39AE1DEF2CF01FEF2CF037EF5A
:10583C002CF039C032F07F0E3216D8B428EF2CF091
:10584C002AEF2CF02EEF2CF0010E376E37EF2CF0E8
:10585C002AA033EF2CF035EF2CF037EF2CF02AEF99
:10586C002CF03750D8B43DEF2CF03FEF2CF06AEF12
:10587C002CF0010E2A26000E2B222C222D222DA0DC
:10588C004AEF2CF04CEF2CF06AEF2CF02AC032F0DF
:10589C002BC033F02CC034F02DC035F035343532FC
:1058AC0034323332323232C02AF033C02BF034C0AF
:1058BC002CF035C02DF03828D8B467EF2CF069EFF8
:1058CC002CF06AEF2CF0382A3828D8B470EF2CF072
:1058DC0072EF2CF07AEF2CF03850D8A478EF2CF033
:1058EC007AEF2CF08CEF2CF0000E2A6E000E2B6E43
:1058FC00000E2C6E000E2D6E3850D8A488EF2CF0B4
:10590C008AEF2CF08CEF2CF0000E366E38A091EF55
:10591C002CF093EF2CF096EF2CF02C8E97EF2CF0C4
:10592C002C9ED89038302D6E36AE9FEF2CF0A1EF18
:10593C002CF0A2EF2CF02D8E2AC02AF02BC02BF0CD
:10594C002CC02CF02DC02DF012001450800B1D6EAD
:10595C0014501424236E13AEB6EF2CF0B8EF2CF0C9
:10596C00B9EF2CF023802350D8B4BFEF2CF0C1EF4B
:10597C002CF0D4EF2CF02328D8A4C7EF2CF0C9EFCF
:10598C002CF0D1EF2CF0000E116E000E126E000EEA
:10599C00136E000E146E138EDCEF2CF0000E116ED5
:1059AC00000E126E000E136E000E146E1850800B4B
:1059BC001D1A18501824226E17AEE7EF2CF0E9EFE1
:1059CC002CF0EAEF2CF022802250D8B4F0EF2CF01F
:1059DC00F2EF2CF005EF2DF02228D8A4F8EF2CF0E4
:1059EC00FAEF2CF002EF2DF0000E156E000E166E75
:1059FC00000E176E000E186E178E0DEF2DF0000EA8
:105A0C00156E000E166E000E176E000E186E2250DC
:105A1C00D8B413EF2DF015EF2DF01DEF2DF0235012
:105A2C00D8A41BEF2DF01DEF2DF027EF2DF0000E5D
:105A3C00116E000E126E000E136E000E146ED1EF6E
:105A4C002EF0175011026F00CCFF28F06F00D0FF22
:105A5C0029F028501E6E1F6A206A216A2950246E74
:105A6C00256A266A276A165012026F00CCFF28F0AE
:105A7C006F00D0FF29F028501E26000E1F22202276
:105A8C00212229502426000E2522262227221550B9
:105A9C0013026F00CCFF28F06F00D0FF29F02850C4
:105AAC001E26000E1F222022212229502426000E01
:105ABC0025222622272220C021F01FC020F01EC044
:105ACC001FF01E6A155012026F00CCFF28F06F00F9
:105ADC00D0FF29F028501E2629501F22000E20220C
:105AEC00000E2122165011026F00CCFF28F06F001F
:105AFC00D0FF29F028501E2629501F22000E2022EC
:105B0C00000E212220C021F01FC020F01EC01FF06B
:105B1C001E6A155011026F00CCFF28F06F00D0FFE9
:105B2C0029F028501E2629501F22000E2022000E7C
:105B3C002122175012026F00CCFF28F06F00D0FF0B
:105B4C0029F02850242629502522000E2622000E4A
:105B5C002722165013026F00CCFF28F06F00D0FFE5
:105B6C0029F02850242629502522000E2622000E2A
:105B7C002722175013026F00CCFF28F06F00D0FFC4
:105B8C0029F02850196E29501A6E1B6A1C6A1BC00A
:105B9C001CF01AC01BF019C01AF0196A19502426EF
:105BAC001A5025221B5026221C5027221EC019F0E9
:105BBC001FC01AF020C01BF021C01CF0190EECEF16
:105BCC002DF0D8901C321B321A321932E82EE7EF26
:105BDC002DF0195024261A5025221B5026221C5019
:105BEC00272220C021F01FC020F01EC01FF01E6A0B
:105BFC00225023C019F01A6A1926000E1A22820E9E
:105C0C001924286EFF0E1A20296E22EF2EF0D89040
:105C1C00243625362636273621AE17EF2EF019EF0F
:105C2C002EF01AEF2EF02480D8901E361F36203618
:105C3C0021362806D8A0290626AE27EF2EF029EF0C
:105C4C002EF00DEF2EF0000E226E21AE30EF2EF066
:105C5C0032EF2EF056EF2EF0FF0E1E14196EFF0EC3
:105C6C001F141A6EFF0E20141B6E7F0E21141C6E57
:105C7C0019501A101B101C10D8B447EF2EF049EF16
:105C8C002EF04DEF2EF0010E226E56EF2EF024A0CA
:105C9C0052EF2EF054EF2EF056EF2EF049EF2EF07F
:105CAC002250D8B45CEF2EF05EEF2EF082EF2EF087
:105CBC00010E2426000E25222622272227A069EF7A
:105CCC002EF06BEF2EF082EF2EF024C019F025C0D1
:105CDC001AF026C01BF027C01CF01C341C321B32DF
:105CEC001A32193219C024F01AC025F01BC026F044
:105CFC001CC027F0284A292A29BE8DEF2EF02950E6
:105D0C0008E12828D8A08DEF2EF08FEF2EF099EF18
:105D1C002EF0000E246E000E256E800E266E7F0E69
:105D2C00276EC7EF2EF029BEA6EF2EF0295006E104
:105D3C002804D8B0A4EF2EF0A6EF2EF0B2EF2EF080
:105D4C00000E246E000E256E000E266E000E276EC1
:105D5C00000E1D6EC7EF2EF028C023F0FF0E241688
:105D6C00FF0E25167F0E2616000E271623A0C1EF58
:105D7C002EF0C3EF2EF0C4EF2EF0268ED8902330E9
:105D8C00276E1D50271224C011F025C012F026C01A
:105D9C0013F027C014F012004D50800B0001646FFB
:105DAC004D504D246B6F4CAEDEEF2EF0E0EF2EF02D
:105DBC00E1EF2EF06B816B51D8B4E7EF2EF0E9EFE9
:105DCC002EF0FEEF2EF06B29D8A4EFEF2EF0F1EFB2
:105DDC002EF0F9EF2EF0000E4A6E000E4B6E000EF8
:105DEC004C6E000E4D6E4C8E000E4D6E06EF2FF06D
:105DFC00000E4A6E000E4B6E000E4C6E000E4D6E79
:105E0C005150800B641B515051246C6F50AE11EFEC
:105E1C002FF013EF2FF014EF2FF06C816C51D8B4DE
:105E2C001AEF2FF01CEF2FF031EF2FF06C29D8A4C4
:105E3C0022EF2FF024EF2FF02CEF2FF0000E4E6EF0
:105E4C00000E4F6E000E506E000E516E508E000EF6
:105E5C00516E39EF2FF0000E4E6E000E4F6E000E8D
:105E6C00506E000E516E4E504F1050105110D8A461
:105E7C0042EF2FF044EF2FF05CEF2FF0000E4A6E44
:105E8C00000E4B6E000E4C6E000E4D6E800E4C12C2
:105E9C007F0E4D1264514D124AC04AF04BC04BF06C
:105EAC004CC04CF04DC04DF09FEF30F06B51D8A46E
:105EBC0062EF2FF064EF2FF06EEF2FF0000E4A6EB2
:105ECC00000E4B6E000E4C6E000E4D6E9FEF30F0C0
:105EDC006C516BC052F0536A525E000E535A7F0ED7
:105EEC005224656F000E5320666F4AC060F04BC0A1
:105EFC0061F04CC062F04DC063F0000E4A6E000EB3
:105F0C004B6E000E4C6E000E4D6E000E676F000E49
:105F1C00686F000E696F000E6A6F000E6C6FCFEF2A
:105F2C002FF06C51D8B49DEF2FF09FEF2FF0B6EF00
:105F3C002FF0D8906037613762376337D8904A3684
:105F4C004B364C364D366AAFAEEF2FF0B0EF2FF02C
:105F5C00B1EF2FF04A80D8906737683769376A37C6
:105F6C004E50605D4F5061595050625951506359B9
:105F7C00D8A0C3EF2FF0C5EF2FF0CEEF2FF06A8D26
:105F8C004E50605F4F50615B5050625B5150635B91
:105F9C006C2B190E6C65D5EF2FF0D7EF2FF097EF18
:105FAC002FF06051611162116311D8B4E0EF2FF042
:105FBC00E2EF2FF0FAEF2FF06781FAEF2FF0D89085
:105FCC004A364B364C364D366AAFEFEF2FF0F1EFC9
:105FDC002FF0F2EF2FF04A80D89067376837693787
:105FEC006A376507D8A066074CAEFFEF2FF001EFBC
:105FFC0030F0E5EF2FF0000E6C6F6AAF08EF30F069
:10600C000AEF30F02EEF30F0FF0E6715526EFF0ED8
:10601C006815536EFF0E6915546E7F0E6A15556E1A
:10602C005250531054105510D8B41FEF30F021EFCC
:10603C0030F025EF30F0010E6C6F2EEF30F04AA0EF
:10604C002AEF30F02CEF30F02EEF30F021EF30F063
:10605C006C51D8B434EF30F036EF30F05AEF30F0FA
:10606C00010E4A26000E4B224C224D224DA041EF30
:10607C0030F043EF30F05AEF30F04AC052F04BC0E2
:10608C0053F04CC054F04DC055F055345532543289
:10609C005332523252C04AF053C04BF054C04CF001
:1060AC0055C04DF0654B662B66BF65EF30F0665101
:1060BC0008E16529D8A065EF30F067EF30F072EF9A
:1060CC0030F0000E666F6569000E4A6E000E4B6E66
:1060DC00000E4C6E000E4D6E66BF7FEF30F06651B9
:1060EC0006E16505D8B07DEF30F07FEF30F08DEF35
:1060FC0030F0000E666F000E656F000E4A6E000EDB
:10610C004B6E000E4C6E000E4D6E000E646F65C033
:10611C006BF06BA194EF30F096EF30F099EF30F01C
:10612C004C8E9AEF30F04C9ED8906B314D6E50EFF8
:10613C002FF012002AC038F02BC039F02CC03AF0E6
:10614C002DC03BF02FBEB4EF30F02F5009E1800E84
:10615C002E5CD8A0B4EF30F0B6EF30F014EF31F085
:10616C0038C011F039C012F03AC013F03BC014F033
:10617C00000E156E000E166E000E176E7F0E186E4A
:10618C00ABEC2CF011C038F012C039F013C03AF05F
:10619C0014C03BF0810E2E26FF0E2F222FBEE0EFF7
:1061AC0030F02F5009E1800E2E5CD8A0E0EF30F0DB
:1061BC00E2EF30F07EEF31F038C011F039C012F060
:1061CC003AC013F03BC014F0000E156E000E166EA4
:1061DC00000E176E7F0E186EABEC2CF011C038F061
:1061EC0012C039F013C03AF014C03BF0810E2E26C9
:1061FC00FF0E2F222FBE0CEF31F02F5009E1800E35
:10620C002E5CD8A00CEF31F00EEF31F07EEF31F0B8
:10621C00000E2F6E7F0E2E6E7EEF31F02FAE20EF24
:10622C0031F0820E2E5CFF0E2F58D8B020EF31F0DB
:10623C0022EF31F07EEF31F038C011F039C012F09E
:10624C003AC013F03BC014F0000E156E000E166E23
:10625C00800E176E0C0E186EABEC2CF011C038F0D3
:10626C0012C039F013C03AF014C03BF0660E2E2663
:10627C00000E2F222FAE4CEF31F0820E2E5CFF0E53
:10628C002F58D8B04CEF31F04EEF31F07EEF31F0AB
:10629C0038C011F039C012F03AC013F03BC014F002
:1062AC00000E156E000E166E800E176E0C0E186E0C
:1062BC00ABEC2CF011C038F012C039F013C03AF02E
:1062CC0014C03BF0660E2E26000E2F222FAE78EF58
:1062DC0031F0820E2E5CFF0E2F58D8B078EF31F0D3
:1062EC007AEF31F07EEF31F0FF0E2F6E820E2E6EB4
:1062FC007F0E2E24306E000E2F20316E326A336AE0
:10630C00170ED8903036313632363336E82E87EFCA
:10631C0031F030C034F031C035F032C036F033C01B
:10632C0037F034C011F035C012F036C013F037C05E
:10633C0014F038C015F039C016F03AC017F03BC055
:10634C0018F0ABEC2CF011C02AF012C02BF013C0DB
:10635C002CF014C02DF02AC02AF02BC02BF02CC02E
:10636C002CF02DC02DF0120020EEC3F0070EDE6ACB
:10637C00E806FDE2000E156E000E166E800E176E0E
:10638C00BF0E186EADC011F0AEC012F0AFC013F05E
:10639C00B0C014F0ABEC2CF011C04AF012C04BF0B2
:1063AC0013C04CF014C04DF0B5C04EF0B6C04FF059
:1063BC00B7C050F0B8C051F0D2EC2EF04AC0C3F0C8
:1063CC004BC0C4F04CC0C5F04DC0C6F0B9C04EF0C7
:1063DC00BAC04FF0BBC050F0BCC051F0ADC04AF0D9
:1063EC00AEC04BF0AFC04CF0B0C04DF0D2EC2EF0C4
:1063FC004AC042F04BC043F04CC044F04DC045F095
:10640C00BDC015F0BEC016F0BFC017F0C0C018F06C
:10641C00B9C011F0BAC012F0BBC013F0BCC014F07C
:10642C00ABEC2CF011C04EF012C04FF013C050F07A
:10643C0014C051F0ABC008F0ACC009F0010E076EEF
:10644C00020EEAEC36F007C04AF008C04BF009C067
:10645C004CF00AC04DF0D2EC2EF04AC046F04BC0C6
:10646C0047F04CC048F04DC049F015EC38F042C034
:10647C00C7F043C0C8F044C0C9F045C0CAF0C3C09F
:10648C0011F0C4C012F0C5C013F0C6C014F0B1C0F6
:10649C0015F0B2C016F0B3C017F0B4C018F0ABECE6
:1064AC002CF011C0C3F012C0C4F013C0C5F014C05E
:1064BC00C6F0010E00019F6FABC008F0ACC009F034
:1064CC00010E076E010EEAEC36F007C02AF008C088
:1064DC002BF009C02CF00AC02DF0C3C02EF0C4C0A4
:1064EC002FF0C5C030F0C6C031F04BEC2AF02AC0FA
:1064FC00A0F02BC0A1F02CC0A2F02DC0A3F0C1C005
:10650C00A4F0C2C0A5F0010EACEC36F0C7C011F07F
:10651C00C8C012F0C9C013F0CAC014F0B1C015F055
:10652C00B2C016F0B3C017F0B4C018F0ABEC2CF03E
:10653C0011C0C7F012C0C8F013C0C9F014C0CAF023
:10654C00010E00019F6FABC008F0ACC009F0010E4A
:10655C00076E020EEAEC36F007C02AF008C02BF0EA
:10656C0009C02CF00AC02DF0C7C02EF0C8C02FF007
:10657C00C9C030F0CAC031F04BEC2AF02AC0A0F0F0
:10658C002BC0A1F02CC0A2F02DC0A3F0C1C0A4F070
:10659C00C2C0A5F0020EACEC36F01200096E095028
:1065AC00D8B4DBEF32F0DDEF32F0FFEF32F004BEA7
:1065BC00E4EF32F0E2EF32F0FFEF32F001C005F021
:1065CC0002C006F003C007F004C008F0051E061E4A
:1065DC00071E081E052A000E06220722082205C0E7
:1065EC000BF006C00CF007C00DF008C00EF007EF62
:1065FC0033F001C00BF002C00CF003C00DF004C06E
:10660C000EF00150021003100410D8A410EF33F058
:10661C0012EF33F01CEF33F0000E016E000E026E21
:10662C00000E036E000E046EADEF33F0960E0A6E84
:10663C0026EF33F00A2AD8900E320D320C320B3280
:10664C00000E0B14056E000E0C14066E000E0D14CD
:10665C00076EFE0E0E14086E05500610071008107B
:10666C00D8A43BEF33F03DEF33F020EF33F04BEF9A
:10667C0033F00A2A010E0B26000E0C220D220E22DC
:10668C00D8900E320D320C320B32000E0B14056EFC
:10669C00000E0C14066E000E0D14076EFF0E0E1479
:1066AC00086E0550061007100810D8A460EF33F0E0
:1066BC0062EF33F03FEF33F06AEF33F00A06D89015
:1066CC000B360C360D360E360DBE6FEF33F071EF08
:1066DC0033F079EF33F0020E0A6077EF33F079EF95
:1066EC0033F064EF33F00AB07EEF33F080EF33F029
:1066FC0081EF33F00D9ED8900A320AC005F0066A7D
:10670C00076A086A05C008F0076A066A056A055038
:10671C000B1206500C1207500D1208500E12095095
:10672C00D8B49BEF33F09DEF33F0A5EF33F004BEFC
:10673C00A4EF33F0A2EF33F0A5EF33F00E8E0BC0C5
:10674C0001F00CC002F00DC003F00EC004F01200FA
:10675C00000120EE01F0AD51D926AE51DA22DF5006
:10676C00096EAFC00AF0B0C00BF06000AFF2D9FFF9
:10677C006000B3F2DAFFDF506EEC38F0AFC001F01E
:10678C00B0C002F05BEC37F0000E0001B76F010EE9
:10679C00B66F67EF34F0000EB96F010EB86F4DEFA6
:1067AC0034F0000EB56F010EB46F33EF34F0B8C097
:1067BC009FF0AFC008F0B0C009F0B8C007F0B651F8
:1067CC00EAEC36F007C02AF008C02BF009C02CF018
:1067DC000AC02DF0ADC008F0AEC009F0B8C007F08B
:1067EC000001B451EAEC36F007C015F008C016F001
:1067FC0009C017F00AC018F0ABC008F0ACC009F023
:10680C00B4C007F00001B651EAEC36F007C011F045
:10681C0008C012F009C013F00AC014F0ABEC2CF055
:10682C0011C02EF012C02FF013C030F014C031F094
:10683C004BEC2AF02AC0A0F02BC0A1F02CC0A2F087
:10684C002DC0A3F0AFC0A4F0B0C0A5F00001B651AC
:10685C00ACEC36F00001B44BB52B20EE01F0AB5193
:10686C00D926AC51DA22DF50B16FB26BB451B15DA5
:10687C00B251800AB36FB551800AB359D8B049EF01
:10688C0034F04BEF34F0DDEF33F0B84BB92B20EE96
:10689C0001F0AF51D926B051DA22DF50B16FB26B93
:1068AC00B851B15DB251800AB36FB951800AB35976
:1068BC00D8B063EF34F065EF34F0D7EF33F0B64B6C
:1068CC00B72B6000BFF2D9FF6000C3F2DAFFDF50D4
:1068DC00B16FB26BB651B15DB251800AB36FB751A3
:1068EC00800AB359D8B07DEF34F07FEF34F0D1EF9C
:1068FC0033F01200020E096EADC00AF0AEC00BF000
:10690C00020E6EEC38F0020E076EABC008F0ACC095
:10691C0009F0010EEAEC36F007C0AFF008C0B0F099
:10692C0009C0B1F00AC0B2F0010E00019F6FAFC0F8
:10693C00A0F0B0C0A1F0B1C0A2F0B2C0A3F0ADC045
:10694C00A4F0AEC0A5F0020EACEC36F0010E076E52
:10695C00ABC008F0ACC009F0010EEAEC36F007C091
:10696C00B3F008C0B4F009C0B5F00AC0B6F0010E1F
:10697C0000019F6FB3C0A0F0B4C0A1F0B5C0A2F0ED
:10698C00B6C0A3F0ADC0A4F0AEC0A5F0010EACEC47
:10699C0036F0010E076EABC008F0ACC009F0020E69
:1069AC00EAEC36F007C0B7F008C0B8F009C0B9F08F
:1069BC000AC0BAF0020E00019F6FB7C0A0F0B8C0B9
:1069CC00A1F0B9C0A2F0BAC0A3F0ADC0A4F0AEC0A3
:1069DC00A5F0010EACEC36F0020E076EABC008F061
:1069EC00ACC009F0020EEAEC36F007C0BBF008C0F0
:1069FC00BCF009C0BDF00AC0BEF0020E00019F6FD2
:106A0C00BBC0A0F0BCC0A1F0BDC0A2F0BEC0A3F042
:106A1C00ADC0A4F0AEC0A5F0020EACEC36F0120086
:106A2C003C343D34436E4350D8A41FEF35F021EF76
:106A3C0035F02BEF35F0000E3A6E000E3B6E000E6B
:106A4C003C6E000E3D6E98EF35F03AC03EF03BC008
:106A5C003FF03CC040F03DC041F0200E3BEF35F024
:106A6C00D890413240323F323E32E82E36EF35F08C
:106A7C003E50426E3C8EFF0E3A16FF0E3B16FF0E3A
:106A8C003C16000E3D16960E435E43BE52EF35F09B
:106A9C0050EF35F068EF35F04350800A970FD8B0BF
:106AAC005AEF35F05CEF35F05EEF35F021EF35F055
:106ABC00D8903D323C323B323A32433E5EEF35F0B9
:106ACC0080EF35F01F0E43646EEF35F070EF35F04C
