:04000000FEEF7FF0A0
:101000000000000000DCCFD1350000000000C0155A
:101010003F0000003F000000BF6042A20D70A5EC41
:10102000363BAAB83F4F38763F3CAA38338CBEBF18
:10103000350072313F1872313F4CBB31330EEADD5F
:10104000B555B38A38610B36BBABAA2A3E42F15381
:101050003E55326C3E05A38B3EABAAAA3EB76DDB74
:101060003E9A99193F6042A20DCAF2497100008070
:101070004B155235BB8FAA2A3E8EBEBF350072314A
:101080003F0000803F0000C03F00AAB83FC623F6E3
:10109000B80040763F3BAAB83F252E366C66004923
:1010A0004E46004E414E00696E66006E616E000055
:1010B00084C0B8F185C0B9F186C0BAF187C0BBF170
:1010C000B8C160F1B9C161F1BAC162F1BBC163F1EC
:1010D00088C0B8F189C0B9F18AC0BAF18BC0BBF140
:1010E000B8C184F1B9C185F1BAC186F1BBC187F13C
:1010F000FF0E01016015A86FFF0E6115A96FFF0EAD
:101100006215AA6F7F0E6315AB6FFF0E8415986F83
:10111000FF0E8515996FFF0E86159A6F7F0E871546
:101120009B6F985199119A119B11D8A49AEF08F0CE
:101130009CEF08F0A7EF08F0000E0001846F000E8E
:10114000856F800E866F3F0E876F88EF1DF0800ED3
:10115000621909E13F0E631960116111D8A4B3EF60
:1011600008F0B5EF08F0C0EF08F0000E0001846F42
:10117000000E856F800E866F3F0E876F88EF1DF023
:10118000ABBFD1EF08F0A805000EA959800EAA59EF
:101190007F0EAB59D8B0CFEF08F0D1EF08F0E2EFF7
:1011A00008F09BBFE0EF08F09805000E9959800EFB
:1011B0009A597F0E9B59D8A0E0EF08F0E2EF08F0B3
:1011C000FEEF08F084C02AF085C02BF086C02CF01A
:1011D00087C02DF088C02EF089C02FF08AC030F073
:1011E0008BC031F060EC33F02AC084F02BC085F066
:1011F0002CC086F02DC087F088EF1DF0000E506FD8
:10120000000E516F000E526F000E536F63BF0DEF53
:1012100009F00BEF09F0D9EF09F09BBF19EF09F0C6
:10122000800E9A5D4B0E9B59D8A019EF09F01BEF69
:1012300009F025EF09F0020E506F000E516F000EFD
:10124000526F000E536FD9EF09F09BBF31EF09F0D9
:10125000800E9A5D3F0E9B59D8A031EF09F033EF15
:1012600009F0D9EF09F0170E00018C6F98C18DF0CD
:1012700099C18EF09AC18FF09BC190F08C6743EFBB
:1012800009F04BEF09F0903590338F338E338D3367
:101290008C2F3EEF09F0810E00018D250101A06F1A
:1012A000FF0E00018E210101A16FFF0E00018F21B1
:1012B0000101A26FFF0E000190210101A36FA05157
:1012C000170800018C6F98C18DF099C18EF09AC1FA
:1012D0008FF09BC190F08C6770EF09F078EF09F008
:1012E000903590338F338E338D338C2F6BEF09F025
:1012F0008DC0ACF18EC0ADF18FC0AEF190C0AFF13A
:101300000101A051170800018C6FACC18DF0ADC177
:101310008EF0AEC18FF0AFC190F08C2B95EF09F03D
:10132000D8908D378E378F3790378C2F90EF09F00C
:101330000101985100018D1913E10101995100013A
:101340008E190EE101019A5100018F1909E1010185
:101350009B5100019019D8A4B0EF09F0B2EF09F049
:10136000D9EF09F0010E0101AC1500018C6F000EE0
:101370000101AD1500018D6F000E0101AE150001D8
:101380008E6F000E0101AF1500018F6F8C510208A6
:101390000101506F000E00018D550101516F000ECB
:1013A00000018E550101526F000E00018F550101A1
:1013B000536F800E01019A1909E17F0E9B19981154
:1013C0009911D8A4E6EF09F0E8EF09F054EF0AF01C
:1013D000800EAA1909E13F0EAB19A811A911D8A4D2
:1013E000F4EF09F0F6EF09F001EF0AF0000E00014A
:1013F000846F000E856F800E866F3F0E876F88EFBB
:101400001DF0ABBF10EF0AF0A805000EA959800E21
:10141000AA593F0EAB59D8A010EF0AF012EF0AF00C
:101420002EEF0AF087BF19EF0AF017EF0AF024EF4A
:101430000AF0000E0001846F000E856F000E866FAB
:10144000000E876F88EF1DF088C084F089C085F09A
:101450008AC086F08BC087F088EF1DF087BF35EF1C
:101460000AF033EF0AF049EF0AF088C001F089C0B2
:1014700002F08AC003F08BC004F0E7EC46F001C034
:1014800084F002C085F003C086F004C087F088EFC6
:101490001DF0000E0001846F000E856F000E866F38
:1014A000000E876F88EF1DF0800E9A1909E13F0E3C
:1014B0009B1998119911D8A460EF0AF062EF0AF015
:1014C0008FEF0AF087BF69EF0AF067EF0AF085EF48
:1014D0000AF0000E4A6E000E4B6E800E4C6E3F0EF0
:1014E0004D6E84C04EF085C04FF086C050F087C06E
:1014F00051F0E7EC37F04AC084F04BC085F04CC0A7
:1015000086F04DC087F088EF1DF084C084F085C060
:1015100085F086C086F087C087F088EF1DF0400E0A
:101520008719841185118611D8A499EF0AF09BEFD1
:101530000AF0B7EF0AF084C011F085C012F086C03F
:1015400013F087C014F084C015F085C016F086C073
:1015500017F087C018F0C0EC35F011C084F012C04D
:1015600085F013C086F014C087F088EF1DF03F0EA1
:101570008719841185118611D8A4C1EF0AF0C3EF31
:101580000AF0DEEF0AF063BFC8EF0AF0CAEF0AF014
:10159000DEEF0AF084C056F085C057F086C058F0E0
:1015A00087C059F0FFEC30F056C084F057C085F08A
:1015B00058C086F059C087F088EF1DF084C001F054
:1015C00085C002F086C003F087C004F003EC47F04A
:1015D00001C070F102C071F103C072F104C073F177
:1015E000800E0101AA190BE17F0EAB19A811A911F8
:1015F000D8B4FDEF0AF0FFEF0AF018EF0BF0A85196
:10160000A911AA11AB11D8B408EF0BF00AEF0BF037
:1016100018EF0BF0800EAA1909E13F0EAB19A811C3
:10162000A911D8A416EF0BF018EF0BF0E3EF0BF0B5
:1016300070C1B4F171C1B5F172C1B6F173C1B7F146
:1016400087BF27EF0BF025EF0BF041EF0BF0000EFB
:101650004A6E000E4B6E800E4C6E3F0E4D6EB4C146
:101660004EF0B5C14FF0B6C150F0B7C151F0E7EC44
:1016700037F04AC0B4F14BC0B5F14CC0B6F14DC023
:10168000B7F1010163BF49EF0BF047EF0BF0D9EF62
:101690000BF0000EA82500018C6F000E0101A9219E
:1016A00000018D6F800E0101AA2100018E6FC00E16
:1016B0000101AB2100018F6F0101505100018C111C
:1016C000906F0101515100018D11916F0101525133
:1016D00000018E11926F0101535100018F11936F20
:1016E0009051911192119311D8A479EF0BF07BEFE7
:1016F0000BF0BBEF0BF0B4C146F0B5C147F0B6C17B
:1017000048F0B7C149F0B4C142F0B5C143F0B6C129
:1017100044F0B7C145F04DEC46F042C04AF043C03A
:101720004BF044C04CF045C04DF0B4C146F0B5C1DB
:1017300047F0B6C148F0B7C149F0B4C142F0B5C1F5
:1017400043F0B6C144F0B7C145F04DEC46F042C09D
:101750004EF043C04FF044C050F045C051F0E7ECAC
:1017600037F04AC0B4F14BC0B5F14CC0B6F14DC032
:10177000B7F1D9EF0BF0010150055111521153117E
:10178000D8A4C5EF0BF0C7EF0BF0D9EF0BF0B4C145
:1017900001F0B5C102F0B6C103F0B7C104F0E7EC47
:1017A00046F001C0B4F102C0B5F103C0B6F104C007
:1017B000B7F1B4C184F0B5C185F0B6C186F0B7C148
:1017C00087F088EF1DF0000E886F000E896F800E85
:1017D0008A6F3F0E8B6F63BFF2EF0BF0F0EF0BF0F1
:1017E00050EF0CF05051511152115311D8A4FBEF8E
:1017F0000BF0FDEF0BF03DEF0CF084C046F085C020
:1018000047F086C048F087C049F084C042F085C0E8
:1018100043F086C044F087C045F04DEC46F042C02E
:101820004AF043C04BF044C04CF045C04DF084C07A
:1018300046F085C047F086C048F087C049F084C0B4
:1018400042F085C043F086C044F087C045F04DECBF
:1018500046F042C04EF043C04FF044C050F045C087
:1018600051F0E7EC37F04AC084F04BC085F04CC033
:1018700086F04DC087F088EF1DF0500551115211D0
:101880005311D8A446EF0CF048EF0CF050EF0CF0D9
:10189000000E886F000E896F800E8A6FBF0E8B6FEF
:1018A0009BBF5FEF0CF09805000E9959000E9A59F6
:1018B0004D0E9B59D8A05FEF0CF061EF0CF0E6EFF6
:1018C0000EF0ABBF73EF0CF0F80EA85DFF0EA95938
:1018D0007F0EAA593F0EAB59D8B071EF0CF073EFE1
:1018E0000CF0E6EF0CF087BF78EF0CF07AEF0CF01D
:1018F000B0EF0CF0600E156E420E166EA20E176E53
:101900000D0E186E88C111F089C112F08AC113F052
:101910008BC114F0C0EC35F011C0A4F112C0A5F1D8
:1019200013C0A6F114C0A7F1A4C111F0A5C112F013
:10193000A6C113F0A7C114F0600E156E420E166E0C
:10194000A20E176E0D0E186EC0EC35F011C084F0AB
:1019500012C085F013C086F014C087F088EF1DF028
:10196000CA0E156EF20E166E490E176E710E186EB7
:1019700088C111F089C112F08AC113F08BC114F033
:10198000C0EC35F011C0A4F112C0A5F113C0A6F14E
:1019900014C0A7F1A4C111F0A5C112F0A6C113F0A3
:1019A000A7C114F0CA0E156EF20E166E490E176E10
:1019B000710E186EC0EC35F011C084F012C085F0C5
:1019C00013C086F014C087F088EF1DF0ABBFF6EFB0
:1019D0000CF0080EA85D000EA959800EAA593F0E02
:1019E000AB59D8A0F6EF0CF0F8EF0CF073EF0DF058
:1019F00087BF07EF0DF087518611851106E1840539
:101A0000D8B005EF0DF007EF0DF03DEF0DF0600ED3
:101A1000156E420E166EA20E176E0D0E186E88C150
:101A200011F089C112F08AC113F08BC114F0C0EC1F
:101A300035F011C0A4F112C0A5F113C0A6F114C075
:101A4000A7F1A4C111F0A5C112F0A6C113F0A7C15E
:101A500014F0600E156E420E166EA20E176E0D0E6D
:101A6000186EC0EC35F011C084F012C085F013C0C0
:101A700086F014C087F088EF1DF0CA0E156EF20EC6
:101A8000166E490E176E710E186E88C111F089C15D
:101A900012F08AC113F08BC114F0C0EC35F011C004
:101AA000A4F112C0A5F113C0A6F114C0A7F1A4C1FE
:101AB00011F0A5C112F0A6C113F0A7C114F0CA0E0F
:101AC000156EF20E166E490E176E710E186EC0EC82
:101AD00035F011C084F012C085F013C086F014C038
:101AE00087F088EF1DF070C12AF071C12BF072C130
:101AF0002CF073C12DF0000E2E6E000E2F6E800E96
:101B0000306EBF0E316E60EC33F02AC0B0F12BC0E6
:101B1000B1F12CC0B2F12DC0B3F1000E156E000E64
:101B2000166E800E176E3E0E186EB0C111F0B1C168
:101B300012F0B2C113F0B3C114F0C0EC35F011C013
:101B400046F012C047F013C048F014C049F0AB0E85
:101B5000426EAA0E436EAA0E446E3E0E456E4DECCA
:101B600046F042C0A4F143C0A5F144C0A6F145C06F
:101B7000A7F1B0C115F0B1C116F0B2C117F0B3C1F1
:101B800018F0B0C111F0B1C112F0B2C113F0B3C17D
:101B900014F0C0EC35F011C054F112C055F113C06F
:101BA00056F114C057F1B0C115F0B1C116F0B2C171
:101BB00017F0B3C118F0A4C111F0A5C112F0A6C16D
:101BC00013F0A7C114F0C0EC35F011C046F012C0FC
:101BD00047F013C048F014C049F0000E426E000EEA
:101BE000436E000E446E3F0E456E4DEC46F042C013
:101BF00048F143C049F144C04AF145C04BF154C1DA
:101C000011F055C112F056C113F057C114F048C17C
:101C100015F049C116F04AC117F04BC118F0C0ECDD
:101C200035F011C044F112C045F113C046F114C0A3
:101C300047F1B0C111F0B1C112F0B2C113F0B3C19C
:101C400014F0000E156EAA0E166EB80E176E3F0E2B
:101C5000186EC0EC35F011C074F112C075F113C0EC
:101C600076F114C077F1700E156EA50E166EEC0E9F
:101C7000176E360E186EB0C111F0B1C112F0B2C1BC
:101C800013F0B3C114F0C0EC35F011C042F012C033
:101C900043F013C044F014C045F03B0E156EAA0E7D
:101CA000166EB80E176E3F0E186E44C111F045C186
:101CB00012F046C113F047C114F0C0EC35F011C06A
:101CC00046F012C047F013C048F014C049F04DEC84
:101CD00046F042C078F143C079F144C07AF145C082
:101CE0007BF174C12AF075C12BF076C12CF077C15D
:101CF0002DF078C12EF079C12FF07AC130F07BC180
:101D000031F060EC33F02AC080F12BC081F12CC09F
:101D100082F12DC083F180C1B8F181C1B9F182C1D6
:101D2000BAF183C1BBF1B8C190F1B9C191F1BAC1A7
:101D300092F1BBC193F1000E01019015B86FF00E46
:101D40009115B96FFF0E9215BA6FFF0E9315BB6F09
:101D5000B8C180F1B9C181F1BAC182F1BBC183F1CF
:101D600074C146F075C147F076C148F077C149F0BB
:101D700080C142F081C143F082C144F083C145F08B
:101D80004DEC46F042C094F143C095F144C096F149
:101D900045C097F178C142F079C143F07AC144F06F
:101DA0007BC145F094C146F095C147F096C148F01B
:101DB00097C149F04DEC46F042C01CF143C01DF103
:101DC00044C01EF145C01FF17EEF16F0000E7C6F7F
:101DD000000E7D6F000E7E6F000E7F6FABBFFCEFBD
:101DE0000EF0AB5107E1800EAA5DD8B0FAEF0EF00D
:101DF000FCEF0EF02FEF0FF070C111F071C112F077
:101E000072C113F073C114F0000E156E000E166E41
:101E1000800E176E4B0E186EC0EC35F011C070F1CD
:101E200012C071F113C072F114C073F1E80E010118
:101E30007C27FF0E7D23FF0E7E23FF0E7F2370C1C4
:101E4000B8F171C1B9F172C1BAF173C1BBF1B8C1D6
:101E5000A8F1B9C1A9F1BAC1AAF1BBC1ABF1170E82
:101E600000018C6FA8C18DF0A9C18EF0AAC18FF0BE
:101E7000ABC190F08C673FEF0FF047EF0FF090355C
:101E800090338F338E338D338C2F3AEF0FF0810EDA
:101E900000018D25916FFF0E8E21926FFF0E8F2115
:101EA000936FFF0E9021946F915101017C270001E7
:101EB000925101017D230001935101017E23000114
:101EC000945101017F23FF0EA815AC6FFF0EA915D9
:101ED000AD6F7F0EAA15AE6F000EAB15AF6F000E83
:101EE000AC11A86F000EAD11A96F800EAE11AA6FD4
:101EF0003F0EAF11AB6FAFBF8DEF0FF0AF510BE1E6
:101F0000720EAC5DC40EAD591C0EAE59D8B08BEF3D
:101F10000FF08DEF0FF097EF0FF0000EA06F000E97
:101F2000A16F000EA26F000EA36FC9EF0FF0AFBF3D
:101F3000A9EF0FF0AF510BE1D70EAC5DB30EAD5969
:101F40005D0EAE59D8B0A7EF0FF0A9EF0FF0B3EFC9
:101F50000FF0010EA06F000EA16F000EA26F000E19
:101F6000A36FC9EF0FF0000EA06F000EA16F000E5F
:101F7000A26F000EA36F010E7C27000E7D237E232F
:101F80007F23000EA827000EA923800EAA23FF0E90
:101F9000AB23A8C1B8F1A9C1B9F1AAC1BAF1ABC1CB
:101FA000BBF1B8C170F1B9C171F1BAC172F1BBC175
:101FB00073F170C142F071C143F072C144F073C15A
:101FC00045F0A0C18CF0A1C18DF00001D8908C37F4
:101FD0008D37D8908C378D37810E8C25F66E100E8C
:101FE0008D21F76EF86A000EF82209006F00D4FF09
:101FF00046F009006F00D4FF47F009006F00D4FFDE
:1020000048F00A006F00D4FF49F04DEC46F042C0A2
:1020100074F143C075F144C076F145C077F1000E0C
:102020004A6E000E4B6E800E4C6E3F0E4D6E70C1B0
:102030002EF071C12FF072C130F073C131F0A0C128
:102040008CF0A1C18DF00001D8908C378D37D890DD
:102050008C378D37810E8C25F66E100E8D21F76E24
:10206000F86A000EF82209006F00D4FF2AF0090078
:102070006F00D4FF2BF009006F00D4FF2CF00A0092
:102080006F00D4FF2DF060EC33F02AC04EF02BC06F
:102090004FF02CC050F02DC051F0E7EC37F04AC0A3
:1020A00078F14BC079F14CC07AF14DC07BF174C12D
:1020B00011F075C112F076C113F077C114F078C138
:1020C00015F079C116F07AC117F07BC118F0C0EC99
:1020D00035F011C05CF112C05DF113C05EF114C0A7
:1020E0005FF15CC16CF15DC16DF15EC16EF15FC10C
:1020F0006FF16CC1B8F16DC1B9F16EC1BAF16FC1C8
:10210000BBF1B8C190F1B9C191F1BAC192F1BBC1B3
:1021100093F1000E01019015B86FF00E9115B96F93
:10212000FF0E9215BA6FFF0E9315BB6FB8C16CF11D
:10213000B9C16DF1BAC16EF1BBC16FF1A8C18CF02C
:10214000A9C18DF0AAC18EF0ABC18FF000018F350F
:102150008F338E338D338C33000E8C15906FF00ED1
:102160008D15916FFF0E8E15926FFF0E8F15936F69
:10217000000E90110101906F000E000191110101FC
:10218000916F000E000192110101926F200E00016B
:1021900093110101936FA0C18CF0A1C18DF0A2C178
:1021A0008EF0A3C18FF0150ED89000018C378D37BB
:1021B0008E378F37E82ED4EF10F0010190510001D7
:1021C0008C25906F0101915100018D21916F0101CA
:1021D000925100018E21926F0101935100018F21D4
:1021E000936F000E90250101B86F000E0001912140
:1021F0000101B96F400E000192210101BA6F000E7A
:10220000000193210101BB6FB8C168F1B9C169F147
:10221000BAC16AF1BBC16BF1A0C18CF0A1C18DF054
:102220000001D8908C378D37D8908C378D37810E40
:102230008C25F66E100E8D21F76EF86A000EF822CE
:1022400009006F00D4FF46F009006F00D4FF47F08B
:1022500009006F00D4FF48F00A006F00D4FF49F076
:1022600068C142F069C143F06AC144F06BC145F0F6
:102270004DEC46F042C094F143C095F144C096F154
:1022800045C097F170C142F071C143F072C144F092
:1022900073C145F094C146F095C147F096C148F02E
:1022A00097C149F04DEC46F042C034F143C035F1DE
:1022B00044C036F145C037F168C115F069C116F068
:1022C0006AC117F06BC118F06CC111F06DC112F04A
:1022D0006EC113F06FC114F0C0EC35F011C046F0C0
:1022E00012C047F013C048F014C049F074C142F066
:1022F00075C143F076C144F077C145F04DEC46F02E
:1023000042C094F143C095F144C096F145C097F1A5
:1023100034C115F035C116F036C117F037C118F0C9
:102320006CC111F06DC112F06EC113F06FC114F0E9
:10233000C0EC35F011C046F012C047F013C048F0B1
:1023400014C049F094C142F095C143F096C144F0E5
:1023500097C145F04DEC46F042C054F143C055F1F1
:1023600044C056F145C057F154C111F055C112F0A7
:1023700056C113F057C114F078C115F079C116F0A9
:102380007AC117F07BC118F0C0EC35F011C030F104
:1023900012C031F113C032F114C033F15CC111F03D
:1023A0005DC112F05EC113F05FC114F05CC115F0A5
:1023B0005DC116F05EC117F05FC118F0C0EC35F0DA
:1023C00011C08CF112C08DF113C08EF114C08FF1C9
:1023D000550E2E6E320E2F6E6C0E306E3E0E316E1E
:1023E000420E156EF10E166E530E176E3E0E186EDF
:1023F0008CC111F08DC112F08EC113F08FC114F099
:10240000C0EC35F011C02AF012C02BF013C02CF034
:1024100014C02DF060EC33F02AC0A4F12BC0A5F15C
:102420002CC0A6F12DC0A7F1050E2E6EA30E2F6EA7
:102430008B0E306E3E0E316E8CC115F08DC116F0D4
:102440008EC117F08FC118F0A4C111F0A5C112F010
:10245000A6C113F0A7C114F0C0EC35F011C02AF0EA
:1024600012C02BF013C02CF014C02DF060EC33F030
:102470002AC054F12BC055F12CC056F12DC057F194
:10248000AB0E2E6EAA0E2F6EAA0E306E3E0E316E61
:102490008CC115F08DC116F08EC117F08FC118F0E8
:1024A00054C111F055C112F056C113F057C114F0C8
:1024B000C0EC35F011C02AF012C02BF013C02CF084
:1024C00014C02DF060EC33F02AC048F12BC049F164
:1024D0002CC04AF12DC04BF1B70E2E6E6D0E2F6E33
:1024E000DB0E306E3E0E316E8CC115F08DC116F0D4
:1024F0008EC117F08FC118F048C111F049C112F018
:102500004AC113F04BC114F0C0EC35F011C02AF0F1
:1025100012C02BF013C02CF014C02DF060EC33F07F
:102520002AC038F12BC039F12CC03AF12DC03BF153
:102530009A0E2E6E990E2F6E190E306E3F0E316E62
:102540008CC115F08DC116F08EC117F08FC118F037
:1025500038C111F039C112F03AC113F03BC114F087
:10256000C0EC35F011C02AF012C02BF013C02CF0D3
:1025700014C02DF060EC33F02AC000F12BC001F143
:102580002CC002F12DC003F18CC115F08DC116F0E5
:102590008EC117F08FC118F08CC111F08DC112F0EF
:1025A0008EC113F08FC114F0C0EC35F011C004F1EE
:1025B00012C005F113C006F114C007F100C111F0FB
:1025C00001C112F002C113F003C114F004C115F0EF
:1025D00005C116F006C117F007C118F0C0EC35F0C0
:1025E00011C04CF112C04DF113C04EF114C04FF1A7
:1025F00030C115F031C116F032C117F033C118F0F7
:102600005CC12EF05DC12FF05EC130F05FC131F0D2
:102610006CC12AF06DC12BF06EC12CF06FC12DF092
:1026200060EC33F02AC011F02BC012F02CC013F074
:102630002DC014F0C0EC35F011C058F112C059F1A2
:1026400013C05AF114C05BF14CC12AF04DC12BF0FC
:102650004EC12CF04FC12DF058C12EF059C12FF0B2
:102660005AC130F05BC131F060EC33F02AC04CF15C
:102670002BC04DF12CC04EF12DC04FF16CC111F0AB
:102680006DC112F06EC113F06FC114F06CC115F082
:102690006DC116F06EC117F06FC118F0C0EC35F0C7
:1026A00011C08CF112C08DF113C08EF114C08FF1E6
:1026B000000E2E6E000E2F6E400E306E400E316EEC
:1026C0008CC12AF08DC12BF08EC12CF08FC12DF062
:1026D00060EC33F02AC058F12BC059F12CC05AF1EC
:1026E0002DC05BF158C12AF059C12BF05AC12CF012
:1026F0005BC12DF04CC12EF04DC12FF04EC130F01A
:102700004FC131F060EC33F02AC068F12BC069F1A1
:102710002CC06AF12DC06BF168C1B8F169C1B9F183
:102720006AC1BAF16BC1BBF1B8C190F1B9C191F105
:10273000BAC192F1BBC193F1000E01019015B86FBF
:10274000F00E9115B96FFF0E9215BA6FFF0E93152B
:10275000BB6FB8C168F1B9C169F1BAC16AF1BBC157
:102760006BF1000E2E6E000E2F6E400E306EC00EFE
:10277000316E68C12AF069C12BF06AC12CF06BC1BF
:102780002DF060EC33F02AC03CF12BC03DF12CC0A1
:102790003EF12DC03FF18CC146F08DC147F08EC196
:1027A00048F08FC149F03CC142F03DC143F03EC109
:1027B00044F03FC145F04DEC46F042C040F143C00B
:1027C00041F144C042F145C043F14CC142F04DC11A
:1027D00043F04EC144F04FC145F040C146F041C105
:1027E00047F042C148F043C149F04DEC46F042C0C9
:1027F00034F143C035F144C036F145C037F16CC106
:1028000011F06DC112F06EC113F06FC114F068C108
:1028100015F069C116F06AC117F06BC118F0C0EC71
:1028200035F011C074F112C075F113C076F114C007
:1028300077F168C115F069C116F06AC117F06BC174
:1028400018F030C111F031C112F032C113F033C1B0
:1028500014F0C0EC35F011C02AF012C02BF013C0F8
:102860002CF014C02DF05CC115F05DC116F05EC1F6
:1028700017F05FC118F034C111F035C112F036C144
:1028800013F037C114F0C0EC35F011C02EF012C0B7
:102890002FF013C030F014C031F060EC33F02AC0D8
:1028A00078F12BC079F12CC07AF12DC07BF174C185
:1028B0002AF075C12BF076C12CF077C12DF078C1CC
:1028C0002EF079C12FF07AC130F07BC131F060EC8D
:1028D00033F02AC09CF12BC09DF12CC09EF12DC07D
:1028E0009FF19CC1B8F19DC1B9F19EC1BAF19FC1E0
:1028F000BBF1B8C190F1B9C191F1BAC192F1BBC1BC
:1029000093F1000E01019015B86FF00E9115B96F9B
:10291000FF0E9215BA6FFF0E9315BB6FB8C19CF1F5
:10292000B9C19DF1BAC19EF1BBC19FF174C146F01E
:1029300075C147F076C148F077C149F09CC142F0BB
:102940009DC143F09EC144F09FC145F04DEC46F05F
:1029500042C094F143C095F144C096F145C097F14F
:1029600078C142F079C143F07AC144F07BC145F0AF
:1029700094C146F095C147F096C148F097C149F01F
:102980004DEC46F042C064F143C065F144C066F1CD
:1029900045C067F19CC111F09DC112F09EC113F0BA
:1029A0009FC114F0000E156E400E166E760E176E57
:1029B0003F0E186EC0EC35F011C020F112C021F1AD
:1029C00013C022F114C023F14F0E156E380E166E8F
:1029D000760E176E3F0E186E64C111F065C112F0CD
:1029E00066C113F067C114F0C0EC35F011C02EF0D1
:1029F00012C02FF013C030F014C031F0C60E156EA7
:102A0000230E166EF60E176EB80E186E9CC111F0DE
:102A10009DC112F09EC113F09FC114F0C0EC35F0BF
:102A200011C02AF012C02BF013C02CF014C02DF0EE
:102A300060EC33F02AC058F12BC059F12CC05AF188
:102A40002DC05BF158C12AF059C12BF05AC12CF0AE
:102A50005BC12DF0A0C18CF0A1C18DF00001D89018
:102A60008C378D37D8908C378D37010E8C25F66ECC
:102A7000100E8D21F76EF86A000EF82209006F0023
:102A8000D4FF2EF009006F00D4FF2FF009006F0073
:102A9000D4FF30F00A006F00D4FF31F060EC33F067
:102AA0002AC024F12BC025F12CC026F12DC027F11E
:102AB0007CC101F07DC102F07EC103F07FC104F052
:102AC000010EDDEC3DF001C0B0F102C0B1F103C078
:102AD000B2F104C0B3F124C12EF025C12FF026C1FC
:102AE00030F027C131F020C12AF021C12BF022C1E2
:102AF0002CF023C12DF060EC33F02AC058F12BC02C
:102B000059F12CC05AF12DC05BF1A0C18CF0A1C1CC
:102B10008DF00001D8908C378D37D8908C378D3759
:102B2000090E8C25F66E100E8D21F76EF86A000ED8
:102B3000F82209006F00D4FF2EF009006F00D4FFC7
:102B40002FF009006F00D4FF30F00A006F00D4FFAF
:102B500031F058C12AF059C12BF05AC12CF05BC199
:102B60002DF060EC33F02AC008F12BC009F12CC025
:102B70000AF12DC00BF108C12AF009C12BF00AC1DE
:102B80002CF00BC12DF0B0C12EF0B1C12FF0B2C1AD
:102B900030F0B3C131F060EC33F02AC080F12BC0CB
:102BA00081F12CC082F12DC083F180C1B8F181C1C7
:102BB000B9F182C1BAF183C1BBF1B8C190F1B9C119
:102BC00091F1BAC192F1BBC193F1000E01019015D0
:102BD000B86FF00E9115B96FFF0E9215BA6FFF0E18
:102BE0009315BB6FB8C180F1B9C181F1BAC182F14F
:102BF000BBC183F1B0C146F0B1C147F0B2C148F0EA
:102C0000B3C149F080C142F081C143F082C144F0B8
:102C100083C145F04DEC46F042C094F143C095F1BC
:102C200044C096F145C097F1A0C18CF0A1C18DF0D0
:102C30000001D8908C378D37D8908C378D37090E9E
:102C40008C25F66E100E8D21F76EF86A000EF822B4
:102C500009006F00D4FF46F009006F00D4FF47F071
:102C600009006F00D4FF48F00A006F00D4FF49F05C
:102C700094C142F095C143F096C144F097C145F02C
:102C80004DEC46F042C040F143C041F144C042F136
:102C900045C043F120C146F021C147F022C148F0B0
:102CA00023C149F040C142F041C143F042C144F068
:102CB00043C145F04DEC46F042C00CF143C00DF16C
:102CC00044C00EF145C00FF124C142F025C143F0CC
:102CD00026C144F027C145F00CC146F00DC147F0B4
:102CE0000EC148F00FC149F04DEC46F042C01CF156
:102CF00043C01DF144C01EF145C01FF188C0B8F1AA
:102D000089C0B9F18AC0BAF18BC0BBF1B8C190F1EA
:102D1000B9C191F1BAC192F1BBC193F1000E0101A9
:102D20009015B86FF00E9115B96FFF0E9215BA6F2E
:102D3000FF0E9315BB6FB8C128F1B9C129F1BAC113
:102D40002AF1BBC12BF180C115F081C116F082C1FF
:102D500017F083C118F028C146F029C147F02AC1F5
:102D600048F02BC149F088C042F089C043F08AC0C6
:102D700044F08BC045F04DEC46F042C011F043C02A
:102D800012F044C013F045C014F0C0EC35F011C08F
:102D900010F112C011F113C012F114C013F110C1DF
:102DA0002AF011C12BF012C12CF013C12DF01CC15F
:102DB00015F01DC116F01EC117F01FC118F088C014
:102DC00011F089C012F08AC013F08BC014F0C0EC6F
:102DD00035F011C02EF012C02FF013C030F014C027
:102DE00031F060EC33F02AC064F12BC065F12CC0E7
:102DF00066F12DC067F128C111F029C112F02AC176
:102E000013F02BC114F080C115F081C116F082C1FE
:102E100017F083C118F0C0EC35F011C09CF112C05E
:102E20009DF113C09EF114C09FF164C12AF065C1E9
:102E30002BF066C12CF067C12DF09CC12EF09DC116
:102E40002FF09EC130F09FC131F060EC33F02AC00A
:102E5000B4F12BC0B5F12CC0B6F12DC0B7F1B4C19F
:102E6000B8F1B5C1B9F1B6C1BAF1B7C1BBF1B8C1DA
:102E7000ACF1B9C1ADF1BAC1AEF1BBC1AFF1010165
:102E8000AFBF4FEF17F0AC05000EAD59000EAE59B5
:102E9000430EAF59D8A04FEF17F051EF17F087EF5F
:102EA00017F0CA0E156EF20E166E490E176E710EE1
:102EB000186E88C111F089C112F08AC113F08BC15C
:102EC00014F0C0EC35F011C0A4F112C0A5F113C08C
:102ED000A6F114C0A7F1A4C111F0A5C112F0A6C1BA
:102EE00013F0A7C114F0CA0E156EF20E166E490E3D
:102EF000176E710E186EC0EC35F011C084F012C060
:102F000085F013C086F014C087F088EF1DF0430EE3
:102F1000AF19AC11AD11AE11D8A491EF17F093EF2A
:102F200017F006EF18F09CC146F09DC147F09EC116
:102F300048F09FC149F0B4C142F0B5C143F0B6C1F9
:102F400044F0B7C145F04DEC46F042C04AF043C0F2
:102F50004BF044C04CF045C04DF03C0E2E6EAA0E16
:102F60002F6E380E306E330E316E64C12AF065C19B
:102F70002BF066C12CF067C12DF060EC33F02AC055
:102F80004EF02BC04FF02CC050F02DC051F0A7ECEC
:102F900040F0D8B0CEEF17F0D0EF17F0D0EF18F028
:102FA000CA0E156EF20E166E490E176E710E186E61
:102FB00088C111F089C112F08AC113F08BC114F0DD
:102FC000C0EC35F011C0A4F112C0A5F113C0A6F1F8
:102FD00014C0A7F1A4C111F0A5C112F0A6C113F04D
:102FE000A7C114F0CA0E156EF20E166E490E176EBA
:102FF000710E186EC0EC35F011C084F012C085F06F
:1030000013C086F014C087F088EF1DF0FF0EAC15DA
:1030100000018C6FFF0E0101AD1500018D6FFF0ED9
:103020000101AE1500018E6F7F0E0101AF15000189
:103030008F6F8FBF28EF18F08C05000E8D59160E7C
:103040008E59430E8F59D8A028EF18F02AEF18F0A8
:1030500060EF18F0600E156E420E166EA20E176E1F
:103060000D0E186E88C111F089C112F08AC113F0DB
:103070008BC114F0C0EC35F011C0A4F112C0A5F161
:1030800013C0A6F114C0A7F1A4C111F0A5C112F09C
:10309000A6C113F0A7C114F0600E156E420E166E95
:1030A000A20E176E0D0E186EC0EC35F011C084F034
:1030B00012C085F013C086F014C087F088EF1DF0B1
:1030C000160E0101AE1909E1C30EAF19AC11AD1115
:1030D000D8A46DEF18F06FEF18F0D0EF18F09CC186
:1030E00046F09DC147F09EC148F09FC149F0B4C170
:1030F00042F0B5C143F0B6C144F0B7C145F04DEC64
:1031000046F042C04AF043C04BF044C04CF045C0CA
:103110004DF064C14EF065C14FF066C150F067C11B
:1031200051F0A7EC40F0D8A098EF18F09AEF18F003
:10313000D0EF18F0600E156E420E166EA20E176ECE
:103140000D0E186E88C111F089C112F08AC113F0FA
:103150008BC114F0C0EC35F011C0A4F112C0A5F180
:1031600013C0A6F114C0A7F1A4C111F0A5C112F0BB
:10317000A6C113F0A7C114F0600E156E420E166EB4
:10318000A20E176E0D0E186EC0EC35F011C084F053
:1031900012C085F013C086F014C087F088EF1DF0D0
:1031A000FF0E0101AC152C6FFF0EAD152D6FFF0E3C
:1031B000AE152E6F7F0EAF152F6F170E00018C6F9F
:1031C0002CC18DF02DC18EF02EC18FF02FC190F04B
:1031D0008C67EDEF18F0F5EF18F0903590338F33E2
:1031E0008E338D338C2FE8EF18F0810E00018D2582
:1031F0000101A06FFF0E00018E210101A16FFF0EE2
:1032000000018F210101A26FFF0E00019021010139
:10321000A36F000E7C6F000E7D6F000E7E6F000EA0
:103220007F6F2FBF20EF19F02C05000E2D59000ED7
:103230002E593F0E2F59D8A020EF19F022EF19F088
:1032400026EF1AF0A0C18CF0010E00018C27000EB1
:103250008D6F000E8E6F800E8F6F000E906F8C67DB
:1032600034EF19F03CEF19F0903590338F338E33F3
:103270008D338C2F2FEF19F00101AC5100018D25FA
:1032800001017C6FAD5100018E2101017D6FAE51B6
:1032900000018F2101017E6FAF51000190210101DA
:1032A0007F6F810E00018C6FFF0E8D6FFF0E8E6F92
:1032B000FF0E8F6F170E906F7CC191F07DC192F061
:1032C0007EC193F07FC194F0906769EF19F071EFC0
:1032D00019F094359433933392339133902F64EFF4
:1032E00019F0000191518C250101A06F000E000121
:1032F0008D210101A16F000E00018E210101A26F3D
:10330000000E00018F210101A36FA0C18CF0FF0E00
:1033100000018D6FFF0E8E6F7F0E8F6F000E906F0E
:103320008C6795EF19F09DEF19F0903590338F333E
:103330008E338D338C2F90EF19F000018D1D916F1E
:103340008E1D926F8F1D936F901D946F01017C51A4
:10335000000191150101B86F7D5100019215010125
:10336000B96F7E51000193150101BA6F7F510001C1
:1033700094150101BB6FB8C1B0F1B9C1B1F1BAC1C7
:10338000B2F1BBC1B3F1A051170800018C6FFF0E61
:1033900001017C1500018D6FFF0E01017D150001FB
:1033A0008E6F7F0E01017E1500018F6F000E0101EF
:1033B0007F150001906F000E8D11916F000E8E1120
:1033C000926F800E8F11936F000E9011946F8C6727
:1033D000ECEF19F0F4EF19F0943594339333923302
:1033E00091338C2FE7EF19F091C07CF192C07DF101
:1033F00093C07EF194C07FF10101AFBF04EF1AF0DA
:1034000002EF1AF00CEF1AF07F1F7E1F7D1F7C6DFC
:10341000000E7D237E237F239CC142F09DC143F09B
:103420009EC144F09FC145F0B0C146F0B1C147F024
:10343000B2C148F0B3C149F04DEC46F042C09CF136
:1034400043C09DF144C09EF145C09FF164C12AF084
:1034500065C12BF066C12CF067C12DF09CC12EF028
:103460009DC12FF09EC130F09FC131F060EC33F070
:103470002AC0B0F12BC0B1F12CC0B2F12DC0B3F114
:10348000B0C1B8F1B1C1B9F1B2C1BAF1B3C1BBF1C8
:10349000B8C190F1B9C191F1BAC192F1BBC193F138
:1034A000000E01019015B86F800E9115B96FFF0ED7
:1034B0009215BA6FFF0E9315BB6FB8C1B0F1B9C1C9
:1034C000B1F1BAC1B2F1BBC1B3F1B0C111F0B1C138
:1034D00012F0B2C113F0B3C114F0000E156E720EEB
:1034E000166E310E176E3F0E186EC0EC35F011C01F
:1034F00074F112C075F113C076F114C077F19CC15C
:1035000046F09DC147F09EC148F09FC149F0B0C14F
:1035100042F0B1C143F0B2C144F0B3C145F04DEC4B
:1035200046F042C094F143C095F144C096F145C0C5
:1035300097F1180E156E720E166E310E176E3F0E45
:10354000186E94C146F095C147F096C148F097C1F6
:1035500049F064C142F065C143F066C144F067C1FF
:1035600045F04DEC46F042C011F043C012F044C0AB
:1035700013F045C014F0C0EC35F011C014F112C0C6
:1035800015F113C016F114C017F114C12AF015C1BA
:103590002BF016C12CF017C12DF08C0E156EBE0E3F
:1035A000166EBF0E176E350E186EB0C111F0B1C198
:1035B00012F0B2C113F0B3C114F0C0EC35F011C079
:1035C0002EF012C02FF013C030F014C031F060ECB8
:1035D00033F02AC078F12BC079F12CC07AF12DC0DC
:1035E0007BF174C12AF075C12BF076C12CF077C144
:1035F0002DF078C12EF079C12FF07AC130F07BC167
:1036000031F060EC33F02AC0B4F12BC0B5F12CC01E
:10361000B6F12DC0B7F174C146F075C147F076C15F
:1036200048F077C149F0B4C142F0B5C143F0B6C12A
:1036300044F0B7C145F04DEC46F042C094F143C0B0
:1036400095F144C096F145C097F178C142F079C137
:1036500043F07AC144F07BC145F094C146F095C176
:1036600047F096C148F097C149F04DEC46F042C092
:1036700044F143C045F144C046F145C047F1B4C1EF
:1036800011F0B5C112F0B6C113F0B7C114F0B4C156
:1036900015F0B5C116F0B6C117F0B7C118F0C0ECFF
:1036A00035F011C0B0F112C0B1F113C0B2F114C0C5
:1036B000B3F10E0E2E6EEA0E2F6EDD0E306EB50ECD
:1036C000316E4C0E156EBB0E166E310E176E330E2C
:1036D000186EB0C111F0B1C112F0B2C113F0B3C194
:1036E00014F0C0EC35F011C02AF012C02BF013C05A
:1036F0002CF014C02DF060EC33F02AC0A4F12BC0E4
:10370000A5F12CC0A6F12DC0A7F1550E2E6EB30E5B
:103710002F6E8A0E306E380E316EB0C115F0B1C109
:1037200016F0B2C117F0B3C118F0A4C111F0A5C1D1
:1037300012F0A6C113F0A7C114F0C0EC35F011C00F
:103740002AF012C02BF013C02CF014C02DF060EC46
:1037500033F02AC054F12BC055F12CC056F12DC0C6
:1037600057F1610E2E6E0B0E2F6E360E306EBB0EA5
:10377000316EB0C115F0B1C116F0B2C117F0B3C1CE
:1037800018F054C111F055C112F056C113F057C1D1
:1037900014F0C0EC35F011C02AF012C02BF013C0A9
:1037A0002CF014C02DF060EC33F02AC048F12BC08F
:1037B00049F12CC04AF12DC04BF1AB0E2E6EAA0E72
:1037C0002F6E2A0E306E3E0E316EB0C115F0B1C1B3
:1037D00016F0B2C117F0B3C118F048C111F049C1D9
:1037E00012F04AC113F04BC114F0C0EC35F011C017
:1037F0002AF012C02BF013C02CF014C02DF060EC96
:1038000033F02AC038F12BC039F12CC03AF12DC069
:103810003BF1B4C142F0B5C143F0B6C144F0B7C109
:1038200045F0B0C115F0B1C116F0B2C117F0B3C187
:1038300018F038C111F039C112F03AC113F03BC190
:1038400014F0C0EC35F011C046F012C047F013C0C0
:1038500048F014C049F04DEC46F042C080F143C03E
:1038600081F144C082F145C083F1000E2E6E000E3E
:103870002F6E000E306EC00E316E80C12AF081C1F5
:103880002BF082C12CF083C12DF060EC33F02AC004
:103890004EF02BC04FF02CC050F02DC051F080C125
:1038A00015F081C116F082C117F083C118F0B4C1C0
:1038B00011F0B5C112F0B6C113F0B7C114F0C0ECED
:1038C00035F011C04AF012C04BF013C04CF014C0D8
:1038D0004DF0E7EC37F04AC03CF14BC03DF14CC035
:1038E0003EF14DC03FF144C12EF045C12FF046C11D
:1038F00030F047C131F044C115F045C116F046C162
:1039000017F047C118F0B4C111F0B5C112F0B6C13B
:1039100013F0B7C114F0C0EC35F011C02AF012C09A
:103920002BF013C02CF014C02DF060EC33F02AC043
:1039300018F12BC019F12CC01AF12DC01BF13CC19C
:1039400042F03DC143F03EC144F03FC145F018C1D3
:1039500046F019C147F01AC148F01BC149F04DECBF
:1039600046F042C04CF143C04DF144C04EF145C059
:103970004FF1B4C146F0B5C147F0B6C148F0B7C188
:1039800049F04CC142F04DC143F04EC144F04FC12B
:1039900045F04DEC46F042C094F143C095F144C06F
:1039A00096F145C097F1000E426E000E436E800EF8
:1039B000446E3F0E456E94C146F095C147F096C1E6
:1039C00048F097C149F04DEC46F042C0B4F143C015
:1039D000B5F144C0B6F145C0B7F1B4C1B8F1B5C155
:1039E000B9F1B6C1BAF1B7C1BBF1B8C1ACF1B9C157
:1039F000ADF1BAC1AEF1BBC1AFF17CC18CF07DC1FC
:103A00008DF07EC18EF07FC18FF0170ED89000012F
:103A10008C378D378E378F37E82E06EF1DF08C519F
:103A20000101AC2700018D510101AD2300018E5130
:103A30000101AE2300018F510101AF23170E0001D8
:103A40008C6FACC18DF0ADC18EF0AEC18FF0AFC147
:103A500090F08C672EEF1DF036EF1DF0903590330F
:103A60008F338E338D338C2F29EF1DF0000190BFE3
:103A700046EF1DF090518F118E1106E18D05D8B0E3
:103A800044EF1DF046EF1DF05EEF1DF0B4C12AF0CB
:103A9000B5C12BF0B6C12CF0B7C12DF07CC12EF012
:103AA0007DC12FF0B5EC39F02AC0B4F12BC0B5F1CF
:103AB0002CC0B6F12DC0B7F16EEF1DF0ACC1B8F15E
:103AC000ADC1B9F1AEC1BAF1AFC1BBF1B8C1B4F18A
:103AD000B9C1B5F1BAC1B6F1BBC1B7F188C111F036
:103AE00089C112F08AC113F08BC114F0B4C115F072
:103AF000B5C116F0B6C117F0B7C118F0C0EC35F07B
:103B000011C084F012C085F013C086F014C087F095
:103B10001200000E00019E6F000E9D6F79C0AFF085
:103B20007AC0B0F07BC0B1F07CC0B2F0B2BF9DEF04
:103B30001DF09BEF1DF0B3EF1DF0000E9E6F010E08
:103B40009D6FAFC001F0B0C002F0B1C003F0B2C0D1
:103B500004F0E7EC46F001C0AFF002C0B0F003C0E3
:103B6000B1F004C0B2F0000E0001B66F000EB56FE8
:103B7000F9C1A1F0FAC1A2F09D519E11D8A4C3EFE2
:103B80001DF0C5EF1DF0CDEF1DF00101FDA5CBEF40
:103B90001DF0CDEF1DF0E8EF1DF000019D519E11CD
:103BA000D8A4D5EF1DF0D7EF1DF0DDEF1DF0000E0E
:103BB000846F2B0E836FE1EF1DF0000E846F2D0ECE
:103BC000836F83C086F3B54BB62BA107D8A0A2079D
:103BD000AFC001F0B0C002F0B1C003F0B2C004F059
:103BE00029EC41F001040210D8A4F9EF1DF0FBEF1D
:103BF0001DF052EF1EF0BF0E00017E6FFF0E7F6FB3
:103C00007D51806F816B7E5180277F51812381514F
:103C10000AE11A0E805DD8A010EF1EF013EF1EF01F
:103C2000010E14EF1EF0000E856F866B8551861114
:103C3000D8B41DEF1EF01FEF1EF02DEF1EF0860E04
:103C4000B525016E030EB621026E9F0E036E100E97
:103C5000046ED0EC44F039EF1EF0860EB525016EEF
:103C6000030EB621026EA70E036E100E046ED0EC8A
:103C700044F00001FD0EA127FF0EA22377C013F030
:103C800078C014F0860E156E030E166EA1C017F0E4
:103C9000A2C018F022EC42F013C077F014C078F004
:103CA000E8EF23F0AFC001F0B0C002F0B1C003F004
:103CB000B2C004F029EC41F001500210D8A463EF27
:103CC0001EF065EF1EF0BCEF1EF0BF0E00017E6F10
:103CD000FF0E7F6F7D51806F816B7E5180277F51FA
:103CE000812381510AE11A0E805DD8A07AEF1EF07F
:103CF0007DEF1EF0010E7EEF1EF0000E876F886BC9
:103D000087518811D8B487EF1EF089EF1EF097EF26
:103D10001EF0860EB525016E030EB621026EA30EAF
:103D2000036E100E046ED0EC44F0A3EF1EF0860E6E
:103D3000B525016E030EB621026EAB0E036E100E9A
:103D4000046ED0EC44F00001FD0EA127FF0EA2236B
:103D500077C013F078C014F0860E156E030E166E41
:103D6000A1C017F0A2C018F022EC42F013C077F007
:103D700014C078F0E8EF23F0000E0001B76F000EDA
:103D8000B86F800EB96F3F0EBA6F000EB46F000EA1
:103D9000B36FAFC001F0B0C002F0B1C003F0B2C069
:103DA00004F0000E056E000E066E000E076E000E8B
:103DB000086E3FEC43F0D8B0E0EF1EF0E2EF1EF0EB
:103DC00065EF1FF001EF1FF0B7C011F0B8C012F09F
:103DD000B9C013F0BAC014F0000E156E000E166EC6
:103DE000200E176E410E186EC0EC35F011C0B7F002
:103DF00012C0B8F013C0B9F014C0BAF00001B34B50
:103E0000B42BAFC04AF0B0C04BF0B1C04CF0B2C060
:103E10004DF0000E156E000E166E200E176E410E40
:103E2000186EB7C011F0B8C012F0B9C013F0BAC024
:103E300014F0C0EC35F011C04EF012C04FF013C0BA
:103E400050F014C051F0A7EC40F0D8B02AEF1FF0AA
:103E50002CEF1FF0E4EF1EF04CEF1FF0B7C04AF05C
:103E6000B8C04BF0B9C04CF0BAC04DF0000E4E6E69
:103E7000000E4F6E200E506E410E516EE7EC37F083
:103E80004AC0B7F04BC0B8F04CC0B9F04DC0BAF062
:103E90000001B307D8A0B407AFC04AF0B0C04BF0E0
:103EA000B1C04CF0B2C04DF0B7C04EF0B8C04FF04A
:103EB000B9C050F0BAC051F0A7EC40F0D8A063EF01
:103EC0001FF065EF1FF02EEF1FF07DC007F0086AAE
:103ED0006FEC45F007500001A46FA4C0A3F0670E7B
:103EE000A419D8A476EF1FF078EF1FF0A0EF1FF011
:103EF0000101FB51FC11D8A480EF1FF082EF1FF0ED
:103F000086EF1FF0000EFC6F010EFB6FFCBF93EFFE
:103F10001FF0FC5106E1FB05D8B091EF1FF093EFC5
:103F20001FF09AEF1FF0000E0001A06F060E9F6FAA
:103F3000AAEF1FF0FBC19FF0FCC1A0F0AAEF1FF099
:103F40000101FCBFA6EF1FF0A8EF1FF093EF1FF0D9
:103F50009AEF1FF0670E0001A419D8A4B2EF1FF06A
:103F6000B4EF1FF0E3EF1FF0B4AFC2EF1FF0FC0E91
:103F7000B35DFF0EB459D8A0C0EF1FF0C2EF1FF021
:103F8000E1EF1FF0FF0E7E6FFF0E7F6F9FC080F08E
:103F9000A0C081F07E5180277F518123B351805D85
:103FA0008151800A826FB451800A8259D8A0DBEF18
:103FB0001FF0DDEF1FF0E1EF1FF0660EA36FE3EFE0
:103FC0001FF0650EA36F9FC095F0A0C096F0670E1E
:103FD000A419D8A4EEEF1FF0F0EF1FF000EF20F0CF
:103FE000660EA319D8A4F7EF1FF0F9EF1FF002EF48
:103FF00020F0B4BF00EF20F0FEEF1FF002EF20F042
:10400000954B962B660EA319D8A409EF20F00BEF61
:1040100020F02BEF20F0B4BF12EF20F010EF20F0D3
:104020001EEF20F0000EB76F000EB86F800EB96F54
:104030003F0EBA6F000EB46F000EB36F670EA41977
:10404000D8B425EF20F027EF20F02BEF20F0B3516C
:104050009527B4519623000EAE6F000EAD6FAFC022
:10406000A5F0B0C0A6F0B1C0A7F0B2C0A8F0B7C02C
:1040700097F0B8C098F0B9C099F0BAC09AF0BCEF08
:1040800020F0A5C04AF0A6C04BF0A7C04CF0A8C0D5
:104090004DF0B7C04EF0B8C04FF0B9C050F0BAC044
:1040A00051F0E7EC37F04AC056F04BC057F04CC027
:1040B00058F04DC059F0E9EC3BF056C0A9F057C09C
:1040C000AAF058C0ABF059C0ACF0A9C03AF0AAC0F1
:1040D0003BF0ABC03CF0ACC03DF024EC40F03AC04B
:1040E0009BF03BC09CF0A5C042F0A6C043F0A7C027
:1040F00044F0A8C045F0B7C015F0B8C016F0B9C07C
:1041000017F0BAC018F0A9C011F0AAC012F0ABC0E5
:1041100013F0ACC014F0C0EC35F011C046F012C082
:1041200047F013C048F014C049F04DEC46F042C0CF
:10413000A5F043C0A6F044C0A7F045C0A8F0B7C0A2
:104140004AF0B8C04BF0B9C04CF0BAC04DF0000E08
:104150004E6E000E4F6E200E506E410E516EE7EC0B
:1041600037F04AC0B7F04BC0B8F04CC0B9F04DC002
:10417000BAF00001AD4BAE2B9551AD5DAE51800A4A
:104180007E6F9651800A7E59D8A0C9EF20F0CBEF00
:1041900020F041EF20F0B7C011F0B8C012F0B9C064
:1041A00013F0BAC014F0000E156E000E166EA00EBD
:1041B000176E400E186EC0EC35F011C0A9F012C099
:1041C000AAF013C0ABF014C0ACF0A5C04AF0A6C072
:1041D0004BF0A7C04CF0A8C04DF0A9C04EF0AAC04B
:1041E0004FF0ABC050F0ACC051F0A7EC40F0D8B0ED
:1041F000FCEF20F0FEEF20F009EF21F0000E0001AF
:10420000A96F000EAA6F000EAB6F000EAC6F32EFFD
:1042100021F0A5C001F0A6C002F0A7C003F0A8C01D
:1042200004F0A9C005F0AAC006F0ABC007F0ACC00E
:1042300008F03FEC43F0D8A020EF21F022EF21F06E
:1042400032EF21F000019BB128EF21F02AEF21F09D
:1042500032EF21F0000EA96F000EAA6F000EAB6FB7
:10426000000EAC6FAFC02AF0B0C02BF0B1C02CF084
:10427000B2C02DF0A9C02EF0AAC02FF0ABC030F014
:10428000ACC031F060EC33F02AC0A5F02BC0A6F032
:104290002CC0A7F02DC0A8F0A5C04AF0A6C04BF0D6
:1042A000A7C04CF0A8C04DF0000E156E000E166EA3
:1042B000200E176E410E186E97C011F098C012F0C4
:1042C00099C013F09AC014F0C0EC35F011C04EF054
:1042D00012C04FF013C050F014C051F0A7EC40F0E2
:1042E000D8A075EF21F077EF21F0A0EF21F00001C9
:1042F000B34BB42B97C011F098C012F099C013F0D3
:104300009AC014F0000E156E000E166E200E176E79
:10431000410E186EC0EC35F011C097F012C098F045
:1043200013C099F014C09AF0660E0001A319D8A426
:104330009CEF21F09EEF21F0A0EF21F0954B962B02
:1043400097C0B7F098C0B8F099C0B9F09AC0BAF069
:10435000650E0001A319D8B4B0EF21F0B2EF21F03F
:10436000B8EF21F0B3C093F0B4C094F0BCEF21F0EB
:10437000000E946F000E936F000E926F000E916FFF
:10438000000E906F000E8F6F000EAE6F000EAD6FBF
:10439000B9EF22F0A5C04AF0A6C04BF0A7C04CF080
:1043A000A8C04DF0B7C04EF0B8C04FF0B9C050F043
:1043B000BAC051F0E7EC37F04AC056F04BC057F0A6
:1043C0004CC058F04DC059F0E9EC3BF056C0A9F094
:1043D00057C0AAF058C0ABF059C0ACF0A9C03AF031
:1043E000AAC03BF0ABC03CF0ACC03DF024EC40F0C8
:1043F0003AC09BF03BC09CF00101FDB902EF22F0F6
:1044000004EF22F022EF22F000019B519C11D8A46E
:104410000CEF22F00EEF22F022EF22F0670EA4192B
:10442000D8A415EF22F017EF22F022EF22F094BF6C
:104430001EEF22F01CEF22F022EF22F08F4B902B88
:104440006DEF22F0000191519211D8A42AEF22F0D1
:104450002CEF22F056EF22F094BF33EF22F031EF31
:1044600022F056EF22F0860EB525D96E030EB62146
:10447000DA6E2E0EDF6EB54BB62BA107D8A0A207C1
:10448000000E926F010E916F56EF22F0860EB52549
:10449000D96E030EB621DA6E300EDF6EB54BB62B39
:1044A000A107D8A0A2078F07D8A090078F5190111D
:1044B000D8A45DEF22F05FEF22F046EF22F0860EE7
:1044C000B525D96E030EB621DA6E9B51300FDF6E23
:1044D000B54BB62BA107D8A0A207A5C042F0A6C035
:1044E00043F0A7C044F0A8C045F0B7C015F0B8C06D
:1044F00016F0B9C017F0BAC018F0A9C011F0AAC0E0
:1045000012F0ABC013F0ACC014F0C0EC35F011C029
:1045100046F012C047F013C048F014C049F04DEC0B
:1045200046F042C0A5F043C0A6F044C0A7F045C085
:10453000A8F0B7C04AF0B8C04BF0B9C04CF0BAC050
:104540004DF0000E4E6E000E4F6E200E506E410E5E
:10455000516EE7EC37F04AC0B7F04BC0B8F04CC032
:10456000B9F04DC0BAF000019307D8A09407AD4B45
:10457000AE2B9551AD5DAE51800A7E6F9651800A8B
:104580007E59D8B0C6EF22F0C8EF22F0D6EF22F065
:10459000B6BFD4EF22F0B65109E14B0EB55DD8A0FD
:1045A000D4EF22F0D6EF22F0CAEF21F09151921110
:1045B000D8A4DDEF22F0DFEF22F0F2EF22F00101CC
:1045C000FDA9E5EF22F0E7EF22F0F2EF22F0860EF0
:1045D0000001B525D96E030EB621DA6E2E0EDF6E00
:1045E000B54BB62B860E0001B525D96E030EB6214C
:1045F000DA6E000EDF6E650EA319D8A402EF23F069
:1046000004EF23F0D6EF23F0000EAE6F4F0EAD6F28
:10461000860EAD25D96E030EAE21DA6E000EDF6E6A
:10462000000E9E6F000E9D6FB4BF1BEF23F019EFBD
:1046300023F023EF23F0000E9E6F010E9D6FB36DEC
:10464000B41FD8B0B42B000EA06F020E9F6F54EFB2
:1046500023F0AD07D8A0AE07860EAD25D96E030EA8
:10466000AE21DA6EB3C001F0B4C002F0000E046EE9
:104670000A0E036EE7EC42F00150300FDF6EB3C05C
:1046800001F0B4C002F0000E046E0A0E036E85EC59
:1046900042F001C0B3F002C0B4F000019F07D8A0FF
:1046A000A007A107D8A0A207B351B411D8A45BEF0B
:1046B00023F05DEF23F029EF23F0A0BF6AEF23F092
:1046C000A05106E19F05D8B068EF23F06AEF23F010
:1046D00029EF23F0AD07D8A0AE079D519E11D8A4B5
:1046E00074EF23F076EF23F07CEF23F0000E8A6F57
:1046F0002B0E896F80EF23F0000E8A6F2D0E896FCD
:10470000860EAD25D96E030EAE21DA6E600027F25B
:10471000DFFFA107D8A0A207AD07D8A0AE07BF0E44
:104720007E6FFF0E7F6F7D51806F816B7E51802782
:104730007F51812381510AE11A0E805DD8A0A3EF39
:1047400023F0A6EF23F0010EA7EF23F0000E8D6FEC
:104750008E6B8D518E11D8A4B0EF23F0B2EF23F001
:10476000B8EF23F0000E8C6F650E8B6FBCEF23F05B
:10477000000E8C6F450E8B6F860EAD25D96E030E25
:10478000AE21DA6E60002FF2DFFFA107D8A0A207EA
:10479000860EB525016E030EB621026E860EAD257E
:1047A000036E030EAE21046ED0EC44F077C013F01C
:1047B00078C014F0860E156E030E166EA1C017F0A9
:1047C000A2C018F022EC42F013C077F014C078F0C9
:1047D0001200A5EC47F0E8EC47F0020E096E480E17
:1047E0000A6E030E0B6E020E1DEC47F0010E000167
:1047F0009F6F000EA06F000EA16F800EA26F3F0E84
:10480000A36F480EA46F030EA56F010E1EEC44F0BB
:10481000020E00019F6FB40E566EA20E576E910EDF
:10482000586EB90E596E1EEC2BF056C0A0F057C052
:10483000A1F058C0A2F059C0A3F0480E0001A46F27
:10484000030EA56F020E1EEC44F0480E0001AB6F84
:10485000030EAC6FE00EAD6F010EAE6F8EEC3FF04D
:10486000020E096E5A0E0A6E030E0B6E020E1DEC3E
:1048700047F0010E00019F6F000EA06F000EA16FA8
:10488000800EA26F3F0EA36F5A0EA46F030EA56F8A
:10489000010E1EEC44F0020E00019F6F000EA06F8F
:1048A000000EA16F800EA26F3F0EA36F5A0EA46F71
:1048B000030EA56F020E1EEC44F05A0E0001AB6F02
:1048C000030EAC6F600EAD6F020EAE6F8EEC3FF05C
:1048D000020E096EBA0E0A6E020E0B6E020E1DEC6F
:1048E00047F0010E00019F6F000EA06F000EA16F38
:1048F000800EA26F3F0EA36FBA0EA46F020EA56FBB
:10490000010E1EEC44F0020E00019F6F000EA06F1E
:10491000000EA16F800EA26F3F0EA36FBA0EA46FA0
:10492000020EA56F020E1EEC44F0010E096E6C0E15
:104930000A6E030E0B6E020E1DEC47F0010E000115
:104940009F6F420EA06F600EA16FE50EA26F3B0E2F
:10495000A36F6C0EA46F030EA56F010E1EEC44F046
:10496000010E00019F6F000EA06F000EA16F800E60
:10497000A26FBF0EA36F6C0EA46F030EA56F020E85
:104980001EEC44F0010E096E000E0A6E030E0B6E53
:10499000020E1DEC47F0010E00019F6F010E076E25
:1049A0006C0E086E030E096E010E5CEC44F007C03D
:1049B000A0F008C0A1F009C0A2F00AC0A3F0000E48
:1049C0000001A46F030EA56F010E1EEC44F0010E52
:1049D00000019F6F020E076E6C0E086E030E096ECB
:1049E000010E5CEC44F007C0A0F008C0A1F009C0C3
:1049F000A2F00AC0A3F0000E0001A46F030EA56F81
:104A0000020E1EEC44F0000E0001846F000E856F54
:104A1000200E866F410E876F000E886F000E896F23
:104A2000800E8A6FC00E8B6F58EC08F084C0F2F1D4
:104A300085C0F3F186C0F4F187C0F5F1010E096E6F
:104A4000BC0E0A6E010E0B6E020E1DEC47F0020E3C
:104A5000096ECC0E0A6E020E0B6E020E1DEC47F0B4
:104A6000000E0001886F000E896FE00E8A6FC00E85
:104A70008B6F000E846F000E856F200E866F410EC7
:104A8000876F58EC08F084C0EBF085C0ECF086C06E
:104A9000EDF087C0EEF0010E00019F6FEBC011F04A
:104AA000ECC012F0EDC013F0EEC014F0000E156E65
:104AB000000E166E200E176E400E186EC0EC35F00C
:104AC00011C0A0F012C0A1F013C0A2F014C0A3F056
:104AD000CC0E0001A46F020EA56F010E1EEC44F077
:104AE000010E096E120E0A6E030E0B6E020E1DEC05
:104AF00047F0010E096ECE0E0A6E010E0B6E020E0D
:104B00001DEC47F0010E096EDE0E0A6E020E0B6EF2
:104B1000020E1DEC47F0020E096E960E0A6E020E92
:104B20000B6E020E1DEC47F0010E096E4E0E0A6E62
:104B3000020E0B6E020E1DEC47F0020E096E240EE3
:104B40000A6E030E0B6E020E1DEC47F0010E000103
:104B50009F6FF2C1A0F0F3C1A1F0F4C1A2F0F5C1C2
:104B6000A3F0240EA46F030EA56F010E1EEC44F0FB
:104B7000020E00019F6FF2C1A0F0F3C1A1F0F4C1D9
:104B8000A2F0F5C1A3F0240EA46F030EA56F020ED0
:104B90001EEC44F0020E096E360E0A6E030E0B6E0A
:104BA000020E1DEC47F0010E00019F6FF2C1A0F054
:104BB000F3C1A1F0F4C1A2F0F5C1A3F0360EA46FC9
:104BC000030EA56F010E1EEC44F0020E00019F6F54
:104BD000F2C1A0F0F3C1A1F0F4C1A2F0F5C1A3F0BD
:104BE000360EA46F030EA56F020E1EEC44F0020EEB
:104BF000096EA80E0A6E020E0B6E020E1DEC47F037
:104C0000020E096E720E0A6E020E0B6E020E1DEC83
:104C100047F0020E096E840E0A6E020E0B6E020E33
:104C20001DEC47F0000E0001EF6F000EF06F800EDC
:104C3000F16F3F0EF26F000EF36F000EF46F000E77
:104C4000F56F000EF66F000EF76F000EF86F000E96
:104C5000F96F000EFA6F000EE76F000EE86F000E9E
:104C6000E96F000EEA6F000EFB6F000EFC6F000E86
:104C7000FD6F000EFE6F010E9F6FEFC0A0F0F0C041
:104C8000A1F0F1C0A2F0F2C0A3F0120EA46F030EC7
:104C9000A56F010E1EEC44F0010E00019F6FF3C0E2
:104CA000A0F0F4C0A1F0F5C0A2F0F6C0A3F0120E7F
:104CB000A46F030EA56F020E1EEC44F0000E00015F
:104CC000E66FEC0E0001EF6F510EF06F780EF16F92
:104CD0003F0EF26FCD0EF36FCC0EF46F4C0EF56FEE
:104CE0003E0EF66F0A0EFB6FD70EFC6F230EFD6FA4
:104CF0003D0EFE6FA60EF76F9B0EF86F440EF96F18
:104D00003B0EFA6F120E0201006F030E016F360E9A
:104D1000026F030E036FF7C004F2F8C005F2F9C08A
:104D200006F2FAC007F2E7C008F2E8C009F2E9C0EB
:104D30000AF2EAC00BF2FBC00CF2FCC00DF2FDC09F
:104D40000EF2FEC00FF20A0E106FD70E116F5B0E3F
:104D5000126F400E136FF2C114F2F3C115F2F4C1D9
:104D600016F2F5C117F2480E186F030E196F6C0E8C
:104D70001A6F030E1B6F5A0E1C6F030E1D6FBA0EB7
:104D80001E6F020E1F6FCE0E206F010E216F0A0ED6
:104D9000226FD70E236F230E246F3C0E256F000E5B
:104DA000266FA00E276F8C0E286F460E296F000EFF
:104DB0002A6F000E2B6F160E2C6F450E2D6F8F0E67
:104DC0002E6FC20E2F6F750E306F3C0E316FCC0EF2
:104DD000326F020E336FE00E346F010E356F600ECE
:104DE000366F020E376FA80E386F020E396F720ED3
:104DF0003A6F020E3B6F840E3C6F020E3D6FBC0E8D
:104E00003E6F010E3F6F240E406F030E416F000E88
:104E1000426F030E436F4E0E446F020E456F0A0E33
:104E2000466FD70E476F230E486F3C0E496FDE0E5C
:104E30004A6F020E4B6F960E4C6F020E4D6FA8EC30
:104E400027F0010E0101F66F020EF6652AEF27F03A
:104E50002CEF27F02EEF27F07EEF27F0010E000158
:104E60009F6F010E076EDE0E086E020E096E0101C5
:104E7000F6515CEC44F007C0A0F008C0A1F009C0F6
:104E8000A2F00AC0A3F0120E0001A46F030EA56FDA
:104E90000101F6511EEC44F0010E0001FF6F020EFD
:104EA000FF6555EF27F057EF27F059EF27F07AEF1E
:104EB00027F0FFC09FF0FFC007F0960E086E020EAD
:104EC000096E0101F6515CEC44F007C0A0F008C087
:104ED000A1F009C0A2F00AC0A3F0360E0001A46F31
:104EE000030EA56F0101F6511EEC44F00001FF2BEB
:104EF0004FEF27F00101F62B24EF27F0BEEC47F02F
:104F00000009D8B486EF27F088EF27F061EF26F08C
:104F10000A0E0001E627990ED96F100EDA6F010E06
:104F2000076EDE0E086E020E096E010E5CEC44F098
:104F300007C0DBF008C0DCF009C0DDF00AC0DEF01D
:104F400061EC47F0C9EC47F061EF26F0FEEF7FF02F
:104F500000C2ABF001C2ACF004C2ADF005C2AEF0CD
:104F600006C2AFF007C2B0F022C2B1F023C2B2F065
:104F700024C2B3F025C2B4F026C2B5F027C2B6F001
:104F800028C2B7F029C2B8F02AC2B9F02BC2BAF0D1
:104F90002CC2BBF02DC2BCF02EC2BDF02FC2BEF0A1
:104FA00030C2BFF031C2C0F020C2C1F021C2C2F095
:104FB000CFEC3AF0010E0001E56F010E9F6F010E7C
:104FC000076E20C208F021C209F0E5515CEC44F004
:104FD00007C0A0F008C0A1F009C0A2F00AC0A3F069
:104FE0003EC2A4F03FC2A5F00001E5511EEC44F022
:104FF0000001E52B020EE56500EF28F002EF28F036
:10500000DDEF27F018C2ABF019C2ACF002C2ADF070
:1050100003C2AEF038C2AFF039C2B0F0F4EC3CF0ED
:1050200038C2ABF039C2ACF034C2ADF035C2AEF02C
:105030003AC2AFF03BC2B0F0F4EC3CF01CC2ABF0B3
:105040001DC2ACF032C2ADF033C2AEF038C2AFF028
:1050500039C2B0F0F4EC3CF038C2ABF039C2ACF07D
:1050600036C2ADF037C2AEF03CC2AFF03DC2B0F0D8
:10507000F4EC3CF0010E0001E56F010EE46F020E4E
:10508000E46545EF28F047EF28F049EF28F084EF7A
:1050900028F0E4C09FF03AC208F03BC209F0E4C037
:1050A00007F0E5515CEC44F007C02AF008C02BF093
:1050B00009C02CF00AC02DF03CC208F03DC209F036
:1050C000E4C007F00001E5515CEC44F007C02EF0AD
:1050D00008C02FF009C030F00AC031F060EC33F0A6
:1050E0002AC0A0F02BC0A1F02CC0A2F02DC0A3F0CC
:1050F00040C2A4F041C2A5F00001E5511EEC44F00D
:105100000001E42B3FEF28F0E52B020EE5658BEF65
:1051100028F08DEF28F03DEF28F040C2ABF041C2FF
:10512000ACF042C2ADF043C2AEF038C2AFF039C20B
:10513000B0F0F4EC3CF0000E0001DB6F000EDC6F11
:10514000000EDD6F000EDE6F000EDF6F000EE06FF1
:10515000000EE16F000EE26F010EE56FDBC02AF07A
:10516000DCC02BF0DDC02CF0DEC02DF01AC208F040
:105170001BC209F0010E076EE5515CEC44F007C05C
:1051800015F008C016F009C017F00AC018F038C2B0
:1051900008F039C209F0010E076E0001E5515CEC20
:1051A00044F007C011F008C012F009C013F00AC0A3
:1051B00014F0C0EC35F011C02EF012C02FF013C067
:1051C00030F014C031F060EC33F02AC0DBF02BC0BB
:1051D000DCF02CC0DDF02DC0DEF00001E52B020E6E
:1051E000E565F5EF28F0F7EF28F0AEEF28F0DBC02B
:1051F0002AF0DCC02BF0DDC02CF0DEC02DF014C294
:105200002EF015C22FF016C230F017C231F060EC4C
:1052100033F02AC0DFF02BC0E0F02CC0E1F02DC04D
:10522000E2F0DFC084F0E0C085F0E1C086F0E2C0CB
:1052300087F0000E0001886F000E896F800E8A6F64
:10524000BF0E8B6F58EC08F084C0DFF085C0E0F033
:1052500086C0E1F087C0E2F0010E0001E56F010EAB
:105260009F6F38C208F039C209F0010E076EE55190
:105270005CEC44F007C011F008C012F009C013F054
:105280000AC014F0DFC015F0E0C016F0E1C017F05E
:10529000E2C018F0C0EC35F011C0A0F012C0A1F0CF
:1052A00013C0A2F014C0A3F044C2A4F045C2A5F0FC
:1052B0000001E5511EEC44F00001E52B020EE5650E
:1052C00064EF29F066EF29F02FEF29F0000ED76F79
:1052D000000ED86F000ED96F000EDA6F000E156E3B
:1052E000000E166EC80E176E420E186E3EC208F003
:1052F0003FC209F0010E076E010E5CEC44F007C0DE
:1053000011F008C012F009C013F00AC014F0C0EC8C
:1053100035F011C0CBF012C0CCF013C0CDF014C0EA
:10532000CEF00CC22EF00DC22FF00EC230F00FC224
:1053300031F03EC208F03FC209F0010E076E020EC6
:105340005CEC44F007C02AF008C02BF009C02CF038
:105350000AC02DF060EC33F02AC0CFF02BC0D0F0A3
:105360002CC0D1F02DC0D2F046C256F047C257F043
:1053700048C258F049C259F010C252F011C253F05D
:1053800012C254F013C255F004C24EF005C24FF0E1
:1053900006C250F007C251F0CBC04AF0CCC04BF06F
:1053A000CDC04CF0CEC04DF0DFEC43F04AC0D3F09E
:1053B0004BC0D4F04CC0D5F04DC0D6F0CFC042F0B9
:1053C000D0C043F0D1C044F0D2C045F0D3C046F0C5
:1053D000D4C047F0D5C048F0D6C049F04DEC46F0F7
:1053E00042C0D7F043C0D8F044C0D9F045C0DAF08D
:1053F000010E0001E56F010E9F6F44C208F045C227
:1054000009F0010E076EE5515CEC44F007C011F0A5
:1054100008C012F009C013F00AC014F0D7C015F08C
:10542000D8C016F0D9C017F0DAC018F0C0EC35F0CB
:1054300011C0A0F012C0A1F013C0A2F014C0A3F0DC
:1054400038C2A4F039C2A5F00001E5511EEC44F0C9
:10545000010E00019F6F3EC208F03FC209F0010E2D
:10546000076EE5515CEC44F007C02AF008C02BF051
:1054700009C02CF00AC02DF038C208F039C209F07A
:10548000010E076E0001E5515CEC44F007C02EF000
:1054900008C02FF009C030F00AC031F060EC33F0E2
:1054A0002AC0A0F02BC0A1F02CC0A2F02DC0A3F008
:1054B0004AC2A4F04BC2A5F00001E5511EEC44F035
:1054C0000001E52B020EE56568EF2AF06AEF2AF08D
:1054D000FBEF29F0010EE56F010EE36F020EE365AD
:1054E00074EF2AF076EF2AF078EF2AF0B3EF2AF083
:1054F000E3C09FF044C208F045C209F0010E076EF8
:10550000E5515CEC44F007C011F008C012F009C08E
:1055100013F00AC014F01AC208F01BC209F0010E01
:10552000076E0001E3515CEC44F007C015F008C0C1
:1055300016F009C017F00AC018F0C0EC35F011C021
:10554000A0F012C0A1F013C0A2F014C0A3F038C2A2
:10555000A4F039C2A5F00001E5511EEC44F00001B1
:10556000E32B6EEF2AF0E52B020EE565BAEF2AF089
:10557000BCEF2AF06CEF2AF038C2ABF039C2ACF0C5
:1055800040C2ADF041C2AEF03AC2AFF03BC2B0F0A3
:10559000F4EC3CF0010E0001E56F010EE46F020E29
:1055A000E465D5EF2AF0D7EF2AF0D9EF2AF014EF0F
:1055B0002BF0E4C09FF040C208F041C209F0E4C003
:1055C00007F0E5515CEC44F007C042F008C043F03E
:1055D00009C044F00AC045F03AC208F03BC209F0E5
:1055E000E4C007F00001E5515CEC44F007C046F070
:1055F00008C047F009C048F00AC049F04DEC46F039
:1056000042C0A0F043C0A1F044C0A2F045C0A3F046
:105610004CC2A4F04DC2A5F00001E5511EEC44F0CF
:105620000001E42BCFEF2AF0E52B020EE5651BEF1E
:105630002BF01DEF2BF0CDEF2AF0120056C06DF0CD
:1056400057C06EF058C06FF059C070F06DC09BF03D
:105650006EC09CF06FC09DF070C09EF09BC05AF071
:105660009CC05BF09DC05CF09EC05DF0200E3EEFE4
:105670002BF0D8905D325C325B325A32E82E39EF33
:105680002BF05AC095F05BC096F000019E9F500E23
:105690009B5DAC0E9C59AE0E9D59420E9E59D8A0F2
:1056A00054EF2BF056EF2BF0C4EF2BF09B05000EC0
:1056B0009C59800E9D597F0E9E59D8A062EF2BF009
:1056C00064EF2BF06EEF2BF056C056F057C057F03A
:1056D00058C058F059C059F033EF2EF0180E9B5DAA
:1056E000720E9C59B10E9D59420E9E59D8A07BEF67
:1056F0002BF07DEF2BF0A2EF2BF095519611D8A453
:1057000084EF2BF086EF2BF0A2EF2BF056C011F0B8
:1057100057C012F058C013F059C014F0000E156EA7
:10572000000E166E000E176E7F0E186EC0EC35F070
:1057300011C056F012C057F013C058F014C059F001
:1057400064EF2BF095519611D8B4A9EF2BF0ABEF85
:105750002BF0C4EF2BF0B50E9B5DF10E9C59CF0ED4
:105760009D59420E9E59D8A0B8EF2BF0BAEF2BF0FE
:10577000C4EF2BF0000E566E000E576E000E586EE2
:10578000000E596E33EF2EF0190E9B5D720E9C5970
:10579000B10E9D593E0E9E59D8A0D1EF2BF0D3EFFC
:1057A0002BF0C5EF2CF0930E9B5D150E9C59850ECA
:1057B0009D593F0E9E59D8A0E0EF2BF0E2EF2BF061
:1057C00035EF2CF095C05AF096C05BF0D8905A3661
:1057D0005B36D8905A365B36110E5A24F66E100E90
:1057E0005B20F76EF86A000EF82209006F00D4FF04
:1057F0002EF009006F00D4FF2FF009006F00D4FFD6
:1058000030F00A006F00D4FF31F03B0E156EAA0E87
:10581000166EB80E176E3F0E186E56C011F057C0B8
:1058200012F058C013F059C014F0C0EC35F011C09C
:105830002AF012C02BF013C02CF014C02DF060EC35
:1058400033F02AC03AF02BC03BF02CC03CF02DC006
:105850003DF024EC40F03AC097F03BC098F03CC0DB
:1058600099F03DC09AF04DEF2CF095C05AF096C0DB
:105870005BF0D8905A365B36010E5C6E000E5D6EA2
:105880005A505C5E5B505D5A5CC097F05DC098F00A
:10589000000E98BFFF0E996F9A6F56C042F057C026
:1058A00043F058C044F059C045F0000E156E720E1A
:1058B000166E310E176E3F0E186E97C001F098C02D
:1058C00002F099C003F09AC004F0010EDDEC3DF047
:1058D00001C011F002C012F003C013F004C014F0B4
:1058E000C0EC35F011C046F012C047F013C048F0CC
:1058F00014C049F04DEC46F042C08DF043C08EF02C
:1059000044C08FF045C090F097C001F098C002F0FD
:1059100099C003F09AC004F0010EDDEC3DF001C027
:1059200011F002C012F003C013F004C014F08E0E88
:10593000156EBE0E166EBF0E176E350E186EC0ECCD
:1059400035F011C091F012C092F013C093F014C062
:1059500094F08DC042F08EC043F08FC044F090C0F0
:1059600045F091C046F092C047F093C048F094C013
:1059700049F04DEC46F042C056F043C057F044C0E9
:1059800058F045C059F009EF2DF09B05000E9C59C9
:10599000000E9D59390E9E59D8A0D1EF2CF0D3EFAF
:1059A0002CF0EDEF2CF0000E976F000E986F000EAC
:1059B000996F000E9A6F56C08DF057C08EF058C088
:1059C0008FF059C090F0000E916F000E926F000E94
:1059D000936F000E946F09EF2DF056C02AF057C058
:1059E0002BF058C02CF059C02DF0000E2E6E000E7A
:1059F0002F6E800E306E3F0E316E60EC33F02AC099
:105A000056F02BC057F02CC058F02DC059F033EF92
:105A10002EF056C011F057C012F058C013F059C004
:105A200014F056C015F057C016F058C017F059C002
:105A300018F0C0EC35F011C085F012C086F013C02C
:105A400087F014C088F08F0E2E6EAA0E2F6E2A0ECD
:105A5000306E3E0E316E150E156E520E166E350EF0
:105A6000176EBB0E186E85C011F086C012F087C08D
:105A700013F088C014F0C0EC35F011C02AF012C049
:105A80002BF013C02CF014C02DF060EC33F02AC0C2
:105A900071F02BC072F02CC073F02DC074F056C0A2
:105AA00042F057C043F058C044F059C045F085C09B
:105AB00015F086C016F087C017F088C018F071C0C6
:105AC00011F072C012F073C013F074C014F0C0EC87
:105AD00035F011C046F012C047F013C048F014C0B2
:105AE00049F04DEC46F042C081F043C082F044C022
:105AF00083F045C084F081C046F082C047F083C087
:105B000048F084C049F0000E426E000E436E000E55
:105B1000446E400E456E4DEC46F042C04EF043C020
:105B20004FF044C050F045C051F081C015F082C024
:105B300016F083C017F084C018F056C011F057C09B
:105B400012F058C013F059C014F0C0EC35F011C079
:105B50004AF012C04BF013C04CF014C04DF0E7EC0B
:105B600037F04AC075F04BC076F04CC077F04DC0AE
:105B700078F091C046F092C047F093C048F094C0CE
:105B800049F075C042F076C043F077C044F078C069
:105B900045F04DEC46F042C079F043C07AF044C085
:105BA0007BF045C07CF08DC02EF08EC02FF08FC0F2
:105BB00030F090C031F079C02AF07AC02BF07BC071
:105BC0002CF07CC02DF060EC33F02AC07DF02BC0AF
:105BD0007EF02CC07FF02DC080F07DC02AF07EC00A
:105BE0002BF07FC02CF080C02DF0000E2E6E000E2A
:105BF0002F6E800E306E3F0E316E60EC33F02AC097
:105C000089F02BC08AF02CC08BF02DC08CF00001E5
:105C10009751981199119A11D8A411EF2EF013EF02
:105C20002EF01DEF2EF089C056F08AC057F08BC0C1
:105C300058F08CC059F033EF2EF089C02AF08AC09A
:105C40002BF08BC02CF08CC02DF097C02EF098C09C
:105C50002FF0B5EC39F02AC056F02BC057F02CC00D
:105C600058F02DC059F012006000F7F2D9FF600023
:105C7000FBF2DAFF6F007BFFF6FF6F0077FFF7FFA5
:105C8000F86A0800F550250AD8A449EF2EF04BEF2A
:105C90002EF0DCEF30F06000F7F2D9FF6000FBF28D
:105CA000DAFFDE2A000EDD22000E0101FA6F000E7F
:105CB000F96FF9C1FDF1FAC1FEF1FB69FC69600001
:105CC000F7F2D9FF6000FBF2DAFF6F007BFFF6FF0F
:105CD0006F0077FFF7FFF86A0800F5502E0AD8A486
:105CE00074EF2EF076EF2EF010EF2FF0000EFC6F19
:105CF000000EFB6F6000F7F2D9FF6000FBF2DAFFE5
:105D0000DE2A000EDD226000F7F2D9FF6000FBF210
:105D1000DAFF6F007BFFF6FF6F0077FFF7FFF86A8F
:105D20000800F5502A0AD8A498EF2EF09AEF2EF02A
:105D3000C1EF2EF06000F7F2D9FF6000FBF2DAFF4E
:105D4000DE2A000EDD226000FFF2D9FF600003F3BF
:105D5000DAFF6F007CFFC1F0020EDE266F007CFFD1
:105D6000C2F0000EDD22600007F3D9FF60000BF3E4
:105D7000DAFF6F0078FFFBF16F0074FFFCF110EFAA
:105D80002FF06000F7F2D9FF6000FBF2DAFF6F003E
:105D900078FF08F06F0074FF09F0B7EC3EF008C020
:105DA000FBF109C0FCF1DEEF2EF06000F7F2D9FF45
:105DB0006000FBF2DAFFDE2A000EDD22D00E0001C9
:105DC000C16FFF0EC26F6000F7F2D9FF6000FBF2F7
:105DD000DAFF6F007BFFF6FF6F0077FFF7FFF86ACF
:105DE0000800F550C36FC46BC151C327C251C4230F
:105DF000C4510AE10A0EC35DD8A001EF2FF004EFF1
:105E00002FF0010E05EF2FF0000EC56FC66BC551C8
:105E1000C611D8A40EEF2FF010EF2FF0D5EF2EF013
:105E20006000F7F2D9FF6000FBF2DAFF6F007BFF42
:105E3000F6FF6F0077FFF7FFF86A0800F550076E6E
:105E4000086A6FEC45F007500001CD6FCD51D8B412
:105E50002CEF2FF02EEF2FF076EF2FF06000F7F2FF
:105E6000D9FF6000FBF2DAFF6F0078FFC1F06F002E
:105E700074FFC2F0010EC127000EC223600007F3B9
:105E8000F6FF60000BF3F7FFF86A0800F550076EA5
:105E9000086A6FEC45F007500001CE6FCE51D8B4C0
:105EA00054EF2FF056EF2FF076EF2FF06000F7F25F
:105EB000D9FF6000FBF2DAFF6F0078FFC1F06F00DE
:105EC00074FFC2F0020EC127000EC223600007F368
:105ED000F6FF60000BF3F7FFF86A0800F550076E55
:105EE000086A6FEC45F007500001CF6F660ECD19C0
:105EF000D8A47DEF2FF07FEF2FF0D1EF2FF06000CF
:105F0000F7F2D9FF6000FBF2DAFF6F007BFFF6FFCC
:105F10006F0077FFF7FFF86A08006F00D4FFD0F03A
:105F20006000F7F2D9FF6000FBF2DAFFDE2A000E14
:105F3000DD226000FFF2D9FF600003F3DAFF6F009B
:105F40007CFFC1F0040EDE266F007CFFC2F0000E65
:105F5000DD22600007F3D9FF60000BF3DAFF6F006A
:105F600078FFC9F06F0078FFCAF06F0078FFCBF0C0
:105F70006F0078FFCCF0BBC077F0BCC078F0C9C030
:105F800079F0CAC07AF0CBC07BF0CCC07CF0D0C036
:105F90007DF089EC1DF077C0BBF078C0BCF0FEEF5F
:105FA00030F0CD0E016E000E026E9C0E036E100ED0
:105FB000046E000E066E020E056EA8EC41F0015054
:105FC0000210D8A4E6EF2FF0E8EF2FF09BEF30F0AF
:105FD0006000F7F2D9FF6000FBF2DAFF6F0078FF94
:105FE000C1F06F0074FFC2F0010E0001C127000E66
:105FF000C223600007F3F6FF60000BF3F7FFF86AB7
:1060000008006F00D4FFD0F0BF0EC16FFF0EC26F4B
:106010006000F7F2D9FF6000FBF2DAFF6F007BFF50
:10602000F6FF6F0077FFF7FFF86A0800F550C36FBF
:10603000C46BC151C327C251C423C4510AE11A0E13
:10604000C35DD8A026EF30F029EF30F0010E2AEF23
:1060500030F0000EC76FC86BC751C811D8B433EF0A
:1060600030F035EF30F059EF30F06000FFF2D9FF3B
:10607000600003F3DAFF6F007CFFC1F0040EDE2640
:106080006F007CFFC2F0000EDD22600007F3D9FF35
:1060900060000BF3DAFF6F0078FFC9F06F0078FF44
:1060A000CAF06F0078FFCBF06F0078FFCCF07BEF89
:1060B00030F06000FFF2D9FF600003F3DAFF6F00F9
:1060C0007CFFC1F0040EDE266F007CFFC2F0000EE4
:1060D000DD22600007F3D9FF60000BF3DAFF6F00E9
:1060E00078FFC9F06F0078FFCAF06F0078FFCBF03F
:1060F0006F0078FFCCF0020E6000F7F2D9FF60006D
:10610000FBF2DAFFDE26000EDD22BBC077F0BCC05A
:1061100078F0C9C079F0CAC07AF0CBC07BF0CCC0AF
:106120007CF0D0C07DF089EC1DF077C0BBF078C06A
:10613000BCF0FEEF30F06000F7F2D9FF6000FBF238
:10614000DAFF6F007BFFF6FF6F0077FFF7FFF86A5B
:106150000800F550250AD8A4B0EF30F0B2EF30F0C7
:10616000CCEF30F06000F7F2D9FF6000FBF2DAFF0D
:10617000DE2A000EDD22000E046E250E036EBBC06B
:1061800005F0BCC006F094EC43F0000E0001BC6FBB
:10619000010EBB6FFEEF30F06000F7F2D9FF600038
:1061A000FBF2DAFFDE2A000EDD22000E0001BC6FDA
:1061B000000EBB6FFEEF30F06000F7F2D9FF600019
:1061C000FBF2DAFF6F007BFFF6FF6F0077FFF7FF50
:1061D000F86A0800F550036E046ABBC005F0BCC045
:1061E00006F094EC43F06000F7F2D9FF6000FBF298
:1061F000DAFFDE2A000EDD22C5EF30F0120056C0B5
:1062000068F057C069F058C06AF059C06BF068C0B8
:1062100080F069C081F06AC082F06BC083F0000E2C
:10622000000180155A6E000E81155B6E800E82157E
:106230005C6E7F0E83155D6E800E5C1809E17F0E2B
:106240005D185A105B10D8A428EF31F02AEF31F016
:1062500058EF31F056C015F057C016F058C017F07F
:1062600059C018F056C011F057C012F058C013F0C2
:1062700059C014F0C0EC35F011C02AF012C02BF058
:1062800013C02CF014C02DF056C02EF057C02FF0C4
:1062900058C030F059C031F060EC33F02AC056F0ED
:1062A0002BC057F02CC058F02DC059F05FEF33F0E1
:1062B00083BF67EF31F083518211811106E18005C0
:1062C000D8B065EF31F067EF31F0A4EF31F0FF0E99
:1062D00080155A6EFF0E81155B6EFF0E82155C6E87
:1062E0007F0E83155D6E5A505B105C105D10D8A454
:1062F0007CEF31F07EEF31F088EF31F056C056F090
:1063000057C057F058C058F059C059F05FEF33F0FC
:1063100083BF8FEF31F08DEF31F0A4EF31F0000E3D
:106320000201FD6F210EFC6FA20E016E100E026EB7
:1063300087EC47F001C056F002C057F003C058F098
:1063400004C059F05FEF33F0170E5A6E80C05BF057
:1063500081C05CF082C05DF083C05EF05A66B3EF2E
:1063600031F0BBEF31F05E345E325D325C325B3275
:106370005A2EAEEF31F05BC078F05CC079F05DC0B2
:106380007AF05EC07BF00001785179117A117B11AF
:10639000D8A4CDEF31F0CFEF31F0FFEF31F0000EA8
:1063A000646F000E656F000E666F000E676FE4EF9E
:1063B00031F0D8908037813782378337010E6427D8
:1063C000000E65236623672382AFE9EF31F0EBEF20
:1063D00031F0D9EF31F0FF0E64255A6EFF0E6521C2
:1063E0005B6EFF0E66215C6EFF0E67215D6E5A507C
:1063F000785F5B50795B5C507A5B5D507B5B810EB4
:106400007827FF0E7923FF0E7A23FF0E7B23FF0EE2
:1064100080155A6EFF0E81155B6E7F0E82155C6EC5
:10642000000E83155D6E000E5A10806F000E5B101B
:10643000816F800E5C10826F000E5D10836F78A1FB
:1064400024EF32F026EF32F02EEF32F08051802729
:106450008151812382518223835183237B357B3376
:106460007A33793378338051802781518123825167
:10647000822383518323000E606F000E616F000E34
:10648000626F000E636F60C06CF061C06DF062C03F
:106490006EF063C06FF0000E7C6F000E7D6F000E1B
:1064A0007E6F010E7F6F9DEF32F060517C25706F23
:1064B00061517D21716F62517E21726F63517F2125
:1064C000736F7051805D715181597251825983513E
:1064D000800A5A6E7351800A5A58D8A072EF32F06F
:1064E00074EF32F090EF32F070517C25606F715193
:1064F0007D21616F72517E21626F73517F21636FC5
:106500007051805F7151815B7251825B7351835B0B
:106510007C516C277D516D237E516E237F516F23FB
:10652000805180278151812382518223835183238B
:10653000D8907F337E337D337C337C517D117E1147
:106540007F11D8A4A6EF32F0A8EF32F055EF32F069
:106550008051811182118311D8B4B1EF32F0B3EFC1
:1065600032F014EF33F0000E746F000E756F800E72
:10657000766F3F0E776F74C04AF075C04BF076C0EF
:106580004CF077C04DF0000E4E6E000E4F6E800E38
:10659000506E3F0E516EA7EC40F0D8A0D2EF32F013
:1065A000D4EF32F014EF33F0000E0001746F000EE0
:1065B000756F800E766F3F0E776F000E4A6E000E7D
:1065C0004B6E800E4C6E3F0E4D6E74C04EF075C01B
:1065D0004FF076C050F077C051F0A7EC40F0D8B043
:1065E000F4EF32F0F6EF32F0FFEF32F0020E00017E
:1065F0006C27000E6D236E236F2314EF33F0010E12
:1066000000016C155A6E000E6D155B6E000E6E1556
:106610005C6E000E6F155D6E5A506C275B506D23DB
:106620005C506E235D506F236CC05AF06DC05BF000
:106630006EC05CF06FC05DF05D345D325C325B3229
:106640005A32000E5A240001806F000E5B20816FC9
:10665000000E5C20826F3F0E5D20836F78C05AF081
:1066600079C05BF07AC05CF07BC05DF0170ED8900B
:106670005A365B365C365D36E82E37EF33F05A50CB
:1066800080275B5081235C5082235D50832380C030
:1066900068F081C069F082C06AF083C06BF068C0A6
:1066A00074F069C075F06AC076F06BC077F074C0A2
:1066B00056F075C057F076C058F077C059F0120008
:1066C0002D50800B366E2D502D24386E2CAE6BEF76
:1066D00033F06DEF33F06EEF33F038803850D8B4CC
:1066E00074EF33F076EF33F08BEF33F03828D8A423
:1066F0007CEF33F07EEF33F086EF33F0000E2A6E3E
:10670000000E2B6E000E2C6E000E2D6E2C8E000EC9
:106710002D6E93EF33F0000E2A6E000E2B6E000EDE
:106720002C6E000E2D6E3150800B376E36503718A0
:10673000D8B49DEF33F09FEF33F0A0EF33F0368CF9
:1067400031503124376E30AEA8EF33F0AAEF33F07A
:10675000ABEF33F037803750D8B4B1EF33F0B3EF4D
:1067600033F0C8EF33F03728D8A4B9EF33F0BBEFDC
:1067700033F0C3EF33F0000E2E6E000E2F6E000EBE
:10678000306E000E316E308E000E316ED0EF33F071
:10679000000E2E6E000E2F6E000E306E000E316E4B
:1067A0003850375CD8B0D7EF33F0D9EF33F000EF83
:1067B00034F036ACDEEF33F0E0EF33F0E2EF33F0FD
:1067C000800E361A38C039F037C038F039C037F08B
:1067D0002AC039F02EC02AF039C02EF02BC039F073
:1067E0002FC02BF039C02FF02CC039F030C02CF066
:1067F00039C030F02DC039F031C02DF039C031F042
:10680000000E396E385037C032F0336A325E000EF7
:10681000335A33BE15EF34F0335009E11A0E325CAF
:10682000D8A015EF34F017EF34F04EEF34F02A50C3
:106830002B102C102D10D8A420EF34F023EF34F0BF
:10684000010E24EF34F0000E396E000E2A6E000E99
:106850002B6E000E2C6E000E2D6E37C038F057EFE9
:1068600034F039A036EF34F038EF34F03EEF34F046
:10687000D89039300109396E40EF34F0D890393270
:106880002AA045EF34F047EF34F048EF34F0398E6A
:106890002D342D322C322B322A32382A3750385CA4
:1068A000D8A055EF34F057EF34F031EF34F036BC68
:1068B0005CEF34F05EEF34F09EEF34F03850D8A443
:1068C00064EF34F066EF34F070EF34F0000E2A6EAF
:1068D000000E2B6E000E2C6E000E2D6EBFEF35F0ED
:1068E0002E502A262F502B2230502C2231502D2270
:1068F0002DA07DEF34F07FEF34F02BEF35F039A091
:1069000084EF34F086EF34F08CEF34F0D8903930E7
:106910000109396E8EEF34F0D89039322AA093EF06
:1069200034F095EF34F096EF34F0398E2D342D326B
:106930002C322B322A32382A2BEF35F02E502A5C9B
:106940002F502B5830502C582D50800A326E315019
:10695000800A3258D8B0AFEF34F0B1EF34F0DCEF4A
:1069600034F02A502E5C326E2B502F58336E2C5040
:106970003058346E2D503158356EFF0E32242A6E49
:10698000FF0E33202B6EFF0E34202C6EFF0E3520B1
:106990002D6E800E361A396C3950D8A4D2EF34F0EF
:1069A000D4EF34F0E4EF34F0010E2A26000E2B224F
:1069B0002C222D22E4EF34F02E502A5E2F502B5A39
:1069C00030502C5A31502D5A2A502B102C102D108B
:1069D000D8A4EDEF34F0EFEF34F024EF35F0395078
:1069E000D8A4F5EF34F0F7EF34F024EF35F0000ED3
:1069F0002A6E000E2B6E000E2C6E000E2D6EBFEF59
:106A000035F0D8902A362B362C362D3639AE0BEF92
:106A100035F00DEF35F00EEF35F02A8039A013EF89
:106A200035F015EF35F019EF35F0D88039361BEF1A
:106A300035F0D89039363850D8B421EF35F023EFFF
:106A400035F024EF35F038062CAE29EF35F02BEF7A
:106A500035F001EF35F0000E376E39AE32EF35F01C
:106A600034EF35F04CEF35F039C032F07F0E32168E
:106A7000D8B43DEF35F03FEF35F043EF35F0010E80
:106A8000376E4CEF35F02AA048EF35F04AEF35F07D
:106A90004CEF35F03FEF35F03750D8B452EF35F0CA
:106AA00054EF35F07FEF35F0010E2A26000E2B2231
:106AB0002C222D222DA05FEF35F061EF35F07FEF16
:106AC00035F02AC032F02BC033F02CC034F02DC08A
:106AD00035F03534353234323332323232C02AF086
